{"abi":[{"type":"constructor","inputs":[{"name":"_fundingToken","type":"address","internalType":"address"},{"name":"_votingToken","type":"address","internalType":"address"},{"name":"_votingPowerToken","type":"address","internalType":"address"},{"name":"_minRequestableAmount","type":"uint256","internalType":"uint256"},{"name":"_maxRequestableAmount","type":"uint256","internalType":"uint256"},{"name":"_tallyDate","type":"uint256","internalType":"uint256"},{"name":"_owner","type":"address","internalType":"address"}],"stateMutability":"nonpayable"},{"type":"function","name":"calculateFundingToBeReceived","inputs":[{"name":"_proposalId","type":"uint256","internalType":"uint256"}],"outputs":[{"name":"","type":"uint256","internalType":"uint256"}],"stateMutability":"view"},{"type":"function","name":"deposit","inputs":[{"name":"_amount","type":"uint256","internalType":"uint256"}],"outputs":[],"stateMutability":"nonpayable"},{"type":"function","name":"distributeFunds","inputs":[],"outputs":[],"stateMutability":"nonpayable"},{"type":"function","name":"getFundingToken","inputs":[],"outputs":[{"name":"","type":"address","internalType":"address"}],"stateMutability":"view"},{"type":"function","name":"getMaxRequestableAmount","inputs":[],"outputs":[{"name":"","type":"uint256","internalType":"uint256"}],"stateMutability":"view"},{"type":"function","name":"getMinRequestableAmount","inputs":[],"outputs":[{"name":"","type":"uint256","internalType":"uint256"}],"stateMutability":"view"},{"type":"function","name":"getProposal","inputs":[{"name":"_proposalId","type":"uint256","internalType":"uint256"}],"outputs":[{"name":"","type":"string","internalType":"string"},{"name":"","type":"uint256","internalType":"uint256"},{"name":"","type":"uint256","internalType":"uint256"},{"name":"","type":"address","internalType":"address"}],"stateMutability":"view"},{"type":"function","name":"getProposalIdsByProposer","inputs":[{"name":"_proposer","type":"address","internalType":"address"}],"outputs":[{"name":"","type":"uint256[]","internalType":"uint256[]"}],"stateMutability":"view"},{"type":"function","name":"getTallyDate","inputs":[],"outputs":[{"name":"","type":"uint256","internalType":"uint256"}],"stateMutability":"view"},{"type":"function","name":"getTotalBalanceAvailbleForDistribution","inputs":[],"outputs":[{"name":"","type":"uint256","internalType":"uint256"}],"stateMutability":"view"},{"type":"function","name":"getTotalFundsDistributed","inputs":[],"outputs":[{"name":"","type":"uint256","internalType":"uint256"}],"stateMutability":"view"},{"type":"function","name":"getTotalProposals","inputs":[],"outputs":[{"name":"","type":"uint256","internalType":"uint256"}],"stateMutability":"view"},{"type":"function","name":"getTotalVotingPowerTokensMinted","inputs":[],"outputs":[{"name":"","type":"uint256","internalType":"uint256"}],"stateMutability":"view"},{"type":"function","name":"getTotalVotingPowerTokensUsed","inputs":[],"outputs":[{"name":"","type":"uint256","internalType":"uint256"}],"stateMutability":"view"},{"type":"function","name":"getVotingPowerOf","inputs":[{"name":"_voter","type":"address","internalType":"address"}],"outputs":[{"name":"","type":"uint256","internalType":"uint256"}],"stateMutability":"view"},{"type":"function","name":"getVotingPowerToken","inputs":[],"outputs":[{"name":"","type":"address","internalType":"address"}],"stateMutability":"view"},{"type":"function","name":"getVotingToken","inputs":[],"outputs":[{"name":"","type":"address","internalType":"address"}],"stateMutability":"view"},{"type":"function","name":"owner","inputs":[],"outputs":[{"name":"","type":"address","internalType":"address"}],"stateMutability":"view"},{"type":"function","name":"register","inputs":[{"name":"_amount","type":"uint256","internalType":"uint256"}],"outputs":[],"stateMutability":"nonpayable"},{"type":"function","name":"releaseVotingTokens","inputs":[],"outputs":[],"stateMutability":"nonpayable"},{"type":"function","name":"renounceOwnership","inputs":[],"outputs":[],"stateMutability":"nonpayable"},{"type":"function","name":"submitProposal","inputs":[{"name":"_metadata","type":"string","internalType":"string"},{"name":"_minimumAmount","type":"uint256","internalType":"uint256"},{"name":"_maximumAmount","type":"uint256","internalType":"uint256"},{"name":"_recipient","type":"address","internalType":"address"}],"outputs":[{"name":"","type":"uint256","internalType":"uint256"}],"stateMutability":"nonpayable"},{"type":"function","name":"transferOwnership","inputs":[{"name":"newOwner","type":"address","internalType":"address"}],"outputs":[],"stateMutability":"nonpayable"},{"type":"function","name":"voteOnProposal","inputs":[{"name":"_proposalId","type":"uint256","internalType":"uint256"},{"name":"_amount","type":"uint256","internalType":"uint256"}],"outputs":[],"stateMutability":"nonpayable"},{"type":"function","name":"withdrawRemaining","inputs":[],"outputs":[],"stateMutability":"nonpayable"},{"type":"event","name":"FundingTokenDeposited","inputs":[{"name":"from","type":"address","indexed":true,"internalType":"address"},{"name":"amount","type":"uint256","indexed":true,"internalType":"uint256"}],"anonymous":false},{"type":"event","name":"FundsDistributed","inputs":[{"name":"proposalId","type":"uint256","indexed":true,"internalType":"uint256"},{"name":"recipient","type":"address","indexed":true,"internalType":"address"},{"name":"amount","type":"uint256","indexed":true,"internalType":"uint256"}],"anonymous":false},{"type":"event","name":"OwnershipTransferred","inputs":[{"name":"previousOwner","type":"address","indexed":true,"internalType":"address"},{"name":"newOwner","type":"address","indexed":true,"internalType":"address"}],"anonymous":false},{"type":"event","name":"ProposalSubmitted","inputs":[{"name":"proposer","type":"address","indexed":true,"internalType":"address"},{"name":"proposalId","type":"uint256","indexed":true,"internalType":"uint256"}],"anonymous":false},{"type":"event","name":"RegisteredVoter","inputs":[{"name":"voter","type":"address","indexed":true,"internalType":"address"},{"name":"amount","type":"uint256","indexed":true,"internalType":"uint256"}],"anonymous":false},{"type":"event","name":"ReleasedTokens","inputs":[{"name":"voter","type":"address","indexed":true,"internalType":"address"},{"name":"amount","type":"uint256","indexed":true,"internalType":"uint256"}],"anonymous":false},{"type":"event","name":"RemainingFundsWithdrawn","inputs":[{"name":"user","type":"address","indexed":true,"internalType":"address"},{"name":"amount","type":"uint256","indexed":false,"internalType":"uint256"}],"anonymous":false},{"type":"event","name":"VotedOnProposal","inputs":[{"name":"voter","type":"address","indexed":true,"internalType":"address"},{"name":"proposalId","type":"uint256","indexed":true,"internalType":"uint256"},{"name":"amount","type":"uint256","indexed":true,"internalType":"uint256"}],"anonymous":false},{"type":"error","name":"FundingVault__AlreadyDistributedFunds","inputs":[]},{"type":"error","name":"FundingVault__AlreadyVoted","inputs":[]},{"type":"error","name":"FundingVault__AmountCannotBeZero","inputs":[]},{"type":"error","name":"FundingVault__AmountExceededsLimit","inputs":[]},{"type":"error","name":"FundingVault__CannotBeAZeroAddress","inputs":[]},{"type":"error","name":"FundingVault__FundsNotDistributedYet","inputs":[]},{"type":"error","name":"FundingVault__MaxRequestableAmountCannotBeLessThanMinRequestableAmount","inputs":[]},{"type":"error","name":"FundingVault__MetadataCannotBeEmpty","inputs":[]},{"type":"error","name":"FundingVault__MinRequestableAmountCannotBeGreaterThanMaxRequestableAmount","inputs":[]},{"type":"error","name":"FundingVault__NoFundsToWithdraw","inputs":[]},{"type":"error","name":"FundingVault__NoRemainingFundsToWithdraw","inputs":[]},{"type":"error","name":"FundingVault__NoVotingPowerTokenMinted","inputs":[]},{"type":"error","name":"FundingVault__NotEnoughBalance","inputs":[]},{"type":"error","name":"FundingVault__ProposalDoesNotExist","inputs":[]},{"type":"error","name":"FundingVault__TallyDateNotPassed","inputs":[]},{"type":"error","name":"FundingVault__TransferFailed","inputs":[]},{"type":"error","name":"FundingVault__WithdrawableAmountTooSmall","inputs":[]},{"type":"error","name":"OwnableInvalidOwner","inputs":[{"name":"owner","type":"address","internalType":"address"}]},{"type":"error","name":"OwnableUnauthorizedAccount","inputs":[{"name":"account","type":"address","internalType":"address"}]},{"type":"error","name":"ReentrancyGuardReentrantCall","inputs":[]}],"bytecode":{"object":"0x61010060405234801561001157600080fd5b50604051611d1f380380611d1f83398101604081905261003091610118565b806001600160a01b03811661005f57604051631e4fbdf760e01b81526000600482015260240160405180910390fd5b610068816100ac565b50506001805560e0526001600160a01b0394851660805292841660a052921660c052600391909155600455600060058190556006556007805460ff19169055610189565b600080546001600160a01b038381166001600160a01b0319831681178455604051919092169283917f8be0079c531659141344cd1fd0a4f28419497f9722a3daafe3b4186f6b6457e09190a35050565b80516001600160a01b038116811461011357600080fd5b919050565b600080600080600080600060e0888a03121561013357600080fd5b61013c886100fc565b965061014a602089016100fc565b9550610158604089016100fc565b9450606088015193506080880151925060a0880151915061017b60c089016100fc565b905092959891949750929550565b60805160a05160c05160e051611aed610232600039600081816102780152818161038401528181610682015281816107d8015261112c0152600081816101c0015281816103f301528181610abf01528181610b7701528181610c5101528181610d0001526114e601526000818161032e01528181610727015281816113a001526114540152600081816102b70152818161097201528181610db1015261128e0152611aed6000f3fe608060405234801561001057600080fd5b50600436106101735760003560e01c8063715018a6116100de578063bb39d1b911610097578063e28c3b1911610071578063e28c3b191461032c578063ee38db9514610352578063f207564e1461035a578063f2fde38b1461036d57600080fd5b8063bb39d1b9146102ee578063c7f758a814610301578063d5bd8d641461032457600080fd5b8063715018a61461026e5780637770477d146102765780637fa107c91461029c5780638da5cb5b146102a457806396c8370c146102b5578063b6b55f25146102db57600080fd5b8063323bef0911610130578063323bef09146101f85780633644e2c2146102185780633a6a4d2e146102225780634595fbfc1461022a578063556f6cc01461025357806370467ecb1461026657600080fd5b80630e392155146101785780631a5007dd1461019e5780631cdb13d9146101a657806324bd06fc146101ae57806328e952a9146101b657806331cbd295146101be575b600080fd5b61018b61018636600461168c565b610380565b6040519081526020015b60405180910390f35b60025461018b565b60035461018b565b60045461018b565b60055461018b565b7f00000000000000000000000000000000000000000000000000000000000000005b6040516001600160a01b039091168152602001610195565b61020b6102063660046116bc565b61060c565b60405161019591906116de565b610220610678565b005b6102206107ce565b61018b6102383660046116bc565b6001600160a01b03166000908152600b602052604090205490565b610220610261366004611722565b610a73565b61018b610c4d565b610220610cd6565b7f000000000000000000000000000000000000000000000000000000000000000061018b565b61018b610ce8565b6000546001600160a01b03166101e0565b7f00000000000000000000000000000000000000000000000000000000000000006101e0565b6102206102e936600461168c565b610d4f565b61018b6102fc36600461175a565b610e6d565b61031461030f36600461168c565b61101a565b604051610195949392919061182f565b60065461018b565b7f00000000000000000000000000000000000000000000000000000000000000006101e0565b610220611122565b61022061036836600461168c565b611360565b61022061037b3660046116bc565b6115a5565b60007f00000000000000000000000000000000000000000000000000000000000000004210156103c35760405163c62c35d560e01b815260040160405180910390fd5b8115806103d1575060025482115b156103ef57604051630a54249560e01b815260040160405180910390fd5b60007f00000000000000000000000000000000000000000000000000000000000000006001600160a01b03166318160ddd6040518163ffffffff1660e01b8152600401602060405180830381865afa15801561044f573d6000803e3d6000fd5b505050506040513d601f19601f82011682018060405250810190610473919061189d565b90508060000361049657604051633161f99760e11b815260040160405180910390fd5b6000838152600a60205260408120546104b790670de0b6b3a76400006118cc565b90506000600960008681526020019081526020016000206040518060800160405290816000820180546104e9906118e9565b80601f0160208091040260200160405190810160405280929190818152602001828054610515906118e9565b80156105625780601f1061053757610100808354040283529160200191610562565b820191906000526020600020905b81548152906001019060200180831161054557829003601f168201915b505050918352505060018201546020820152600282015460408201526003909101546001600160a01b031660609091015290506000670de0b6b3a76400006105aa8585611923565b6005546105b791906118cc565b6105c19190611923565b602083015190915081108015906105fa5782604001518211156105ee575050604001519250610607915050565b50935061060792505050565b5060009695505050505050565b919050565b6001600160a01b03811660009081526008602090815260409182902080548351818402810184019094528084526060939283018282801561066c57602002820191906000526020600020905b815481526020019060010190808311610658575b50505050509050919050565b6106806115e5565b7f00000000000000000000000000000000000000000000000000000000000000004210156106c15760405163c62c35d560e01b815260040160405180910390fd5b336000908152600b6020526040902054806106ef57604051632c7e767360e11b815260040160405180910390fd5b336000818152600b6020526040808220919091555163a9059cbb60e01b81526004810191909152602481018290526001600160a01b037f0000000000000000000000000000000000000000000000000000000000000000169063a9059cbb906044016020604051808303816000875af1158015610770573d6000803e3d6000fd5b505050506040513d601f19601f820116820180604052508101906107949190611945565b50604051819033907fada8b88f0652690c97e2c67433a0d69ead55259f8d2037887cd88d0db849e20890600090a3506107cc60018055565b565b6107d66115e5565b7f00000000000000000000000000000000000000000000000000000000000000004210156108175760405163c62c35d560e01b815260040160405180910390fd5b60075460ff161561083b57604051632df64c7d60e21b815260040160405180910390fd5b6007805460ff191660019081179091555b6002548111610a6957600061086082610380565b9050600060096000848152602001908152602001600020604051806080016040529081600082018054610892906118e9565b80601f01602080910402602001604051908101604052809291908181526020018280546108be906118e9565b801561090b5780601f106108e05761010080835404028352916020019161090b565b820191906000526020600020905b8154815290600101906020018083116108ee57829003601f168201915b505050918352505060018201546020820152600282015460408201526003909101546001600160a01b031660609091015290508115610a5457606081015160405163a9059cbb60e01b81526001600160a01b039182166004820152602481018490526000917f0000000000000000000000000000000000000000000000000000000000000000169063a9059cbb906044016020604051808303816000875af11580156109bb573d6000803e3d6000fd5b505050506040513d601f19601f820116820180604052508101906109df9190611945565b9050806109ff57604051631de7d59160e21b815260040160405180910390fd5b8260066000828254610a119190611967565b9091555050606082015160405184916001600160a01b03169086907f9f5926601e7fc353505f05fae61282ae5d67b716f95656849456e6aa7bbbbb5f90600090a4505b50508080610a619061197a565b91505061084c565b506107cc60018055565b610a7b6115e5565b811580610a89575060025482115b15610aa757604051630a54249560e01b815260040160405180910390fd5b6040516370a0823160e01b81523360048201526000907f00000000000000000000000000000000000000000000000000000000000000006001600160a01b0316906370a0823190602401602060405180830381865afa158015610b0e573d6000803e3d6000fd5b505050506040513d601f19601f82011682018060405250810190610b32919061189d565b905080821115610b5557604051634144687160e01b815260040160405180910390fd5b6040516323b872dd60e01b8152336004820152306024820152604481018390527f00000000000000000000000000000000000000000000000000000000000000006001600160a01b0316906323b872dd906064016020604051808303816000875af1158015610bc8573d6000803e3d6000fd5b505050506040513d601f19601f82011682018060405250810190610bec9190611945565b506000838152600a602052604081208054849290610c0b908490611967565b90915550506040518290849033907f4f320d0dd50d47ce5b5d001a0fc303f39b669f9e6adf87bcf899dc4a2b9a80cd90600090a450610c4960018055565b5050565b60007f00000000000000000000000000000000000000000000000000000000000000006001600160a01b03166318160ddd6040518163ffffffff1660e01b8152600401602060405180830381865afa158015610cad573d6000803e3d6000fd5b505050506040513d601f19601f82011682018060405250810190610cd1919061189d565b905090565b610cde61160f565b6107cc600061163c565b6040516370a0823160e01b81523060048201526000907f00000000000000000000000000000000000000000000000000000000000000006001600160a01b0316906370a0823190602401602060405180830381865afa158015610cad573d6000803e3d6000fd5b610d576115e5565b60008111610d7857604051632c7e767360e11b815260040160405180910390fd5b8060056000828254610d8a9190611967565b90915550506040516323b872dd60e01b8152336004820152306024820152604481018290527f00000000000000000000000000000000000000000000000000000000000000006001600160a01b0316906323b872dd906064016020604051808303816000875af1158015610e02573d6000803e3d6000fd5b505050506040513d601f19601f82011682018060405250810190610e269190611945565b50336000818152600c6020526040808220849055518392917f697042ef5da31e8cc8af5610bbeda31e034ff7c72945a28c25a38d2c7a38f5f591a3610e6a60018055565b50565b6000610e776115e5565b8451600003610e9957604051630120cfa760e61b815260040160405180910390fd5b600354841080610eaa575060045483115b15610ec857604051634144687160e01b815260040160405180910390fd5b82841115610ee95760405163d292434b60e01b815260040160405180910390fd5b6001600160a01b038216610f1057604051630fb38e4f60e31b815260040160405180910390fd5b60028054906000610f208361197a565b90915550506040805160808101825286815260208082018790528183018690526001600160a01b0385166060830152600254600090815260099091529190912081518190610f6e90826119e4565b50602082810151600183810191909155604080850151600280860191909155606090950151600390940180546001600160a01b0319166001600160a01b0390951694909417909355336000818152600884528481208654815494850182559082529381209092019290925592549151919290917f9502d7618553b38b99edbe5d1547756cc9ab18db5ddd0674b051490ca4e2fb4c9190a35060025461101260018055565b949350505050565b606060008060008060096000878152602001908152602001600020604051806080016040529081600082018054611050906118e9565b80601f016020809104026020016040519081016040528092919081815260200182805461107c906118e9565b80156110c95780601f1061109e576101008083540402835291602001916110c9565b820191906000526020600020905b8154815290600101906020018083116110ac57829003601f168201915b5050509183525050600182015460208083019190915260028301546040808401919091526003909301546001600160a01b0316606092830152835190840151928401519390910151909991985091965090945092505050565b61112a6115e5565b7f000000000000000000000000000000000000000000000000000000000000000042101561116b5760405163c62c35d560e01b815260040160405180910390fd5b60075460ff1661118e576040516382f3861b60e01b815260040160405180910390fd5b336000908152600c6020526040812054908190036111bf5760405163dfe5dfe160e01b815260040160405180910390fd5b6005546006548082116111e557604051630556dbdb60e51b815260040160405180910390fd5b60006111f18284611aa4565b905060008361120886670de0b6b3a76400006118cc565b6112129190611923565b90506000670de0b6b3a764000061122984846118cc565b6112339190611923565b90508060000361125657604051630a5a249f60e21b815260040160405180910390fd5b336000818152600c60205260408082208290555163a9059cbb60e01b8152600481019290925260248201839052906001600160a01b037f0000000000000000000000000000000000000000000000000000000000000000169063a9059cbb906044016020604051808303816000875af11580156112d7573d6000803e3d6000fd5b505050506040513d601f19601f820116820180604052508101906112fb9190611945565b90508061131b57604051631de7d59160e21b815260040160405180910390fd5b60405182815233907f1e563d9e18af5db6fd44fc692df8325fdf25841bc9ba0ec5ea17f128b12766e39060200160405180910390a2505050505050506107cc60018055565b6113686115e5565b6000811161138957604051632c7e767360e11b815260040160405180910390fd5b6040516370a0823160e01b815233600482015281907f00000000000000000000000000000000000000000000000000000000000000006001600160a01b0316906370a0823190602401602060405180830381865afa1580156113ef573d6000803e3d6000fd5b505050506040513d601f19601f82011682018060405250810190611413919061189d565b101561143257604051632f27d51160e21b815260040160405180910390fd5b6040516323b872dd60e01b8152336004820152306024820152604481018290527f00000000000000000000000000000000000000000000000000000000000000006001600160a01b0316906323b872dd906064016020604051808303816000875af11580156114a5573d6000803e3d6000fd5b505050506040513d601f19601f820116820180604052508101906114c99190611945565b506040516340c10f1960e01b8152336004820152602481018290527f00000000000000000000000000000000000000000000000000000000000000006001600160a01b0316906340c10f1990604401600060405180830381600087803b15801561153257600080fd5b505af1158015611546573d6000803e3d6000fd5b5050336000908152600b60205260408120805485945090925061156a908490611967565b9091555050604051819033907f0c3becdb286011bdfd6932f09baa4447106b6078f69fb6b49891a69b1541706490600090a3610e6a60018055565b6115ad61160f565b6001600160a01b0381166115dc57604051631e4fbdf760e01b8152600060048201526024015b60405180910390fd5b610e6a8161163c565b60026001540361160857604051633ee5aeb560e01b815260040160405180910390fd5b6002600155565b6000546001600160a01b031633146107cc5760405163118cdaa760e01b81523360048201526024016115d3565b600080546001600160a01b038381166001600160a01b0319831681178455604051919092169283917f8be0079c531659141344cd1fd0a4f28419497f9722a3daafe3b4186f6b6457e09190a35050565b60006020828403121561169e57600080fd5b5035919050565b80356001600160a01b038116811461060757600080fd5b6000602082840312156116ce57600080fd5b6116d7826116a5565b9392505050565b6020808252825182820181905260009190848201906040850190845b81811015611716578351835292840192918401916001016116fa565b50909695505050505050565b6000806040838503121561173557600080fd5b50508035926020909101359150565b634e487b7160e01b600052604160045260246000fd5b6000806000806080858703121561177057600080fd5b843567ffffffffffffffff8082111561178857600080fd5b818701915087601f83011261179c57600080fd5b8135818111156117ae576117ae611744565b604051601f8201601f19908116603f011681019083821181831017156117d6576117d6611744565b816040528281528a60208487010111156117ef57600080fd5b8260208601602083013760006020848301015280985050505050506020850135925060408501359150611824606086016116a5565b905092959194509250565b608081526000855180608084015260005b8181101561185d57602081890181015160a0868401015201611840565b50600060a082850181019190915260208401969096526040830194909452506001600160a01b03919091166060820152601f909101601f19160101919050565b6000602082840312156118af57600080fd5b5051919050565b634e487b7160e01b600052601160045260246000fd5b80820281158282048414176118e3576118e36118b6565b92915050565b600181811c908216806118fd57607f821691505b60208210810361191d57634e487b7160e01b600052602260045260246000fd5b50919050565b60008261194057634e487b7160e01b600052601260045260246000fd5b500490565b60006020828403121561195757600080fd5b815180151581146116d757600080fd5b808201808211156118e3576118e36118b6565b60006001820161198c5761198c6118b6565b5060010190565b601f8211156119df576000816000526020600020601f850160051c810160208610156119bc5750805b601f850160051c820191505b818110156119db578281556001016119c8565b5050505b505050565b815167ffffffffffffffff8111156119fe576119fe611744565b611a1281611a0c84546118e9565b84611993565b602080601f831160018114611a475760008415611a2f5750858301515b600019600386901b1c1916600185901b1785556119db565b600085815260208120601f198616915b82811015611a7657888601518255948401946001909101908401611a57565b5085821015611a945787850151600019600388901b60f8161c191681555b5050505050600190811b01905550565b818103818111156118e3576118e36118b656fea26469706673582212206ecb283d9e26344451eb25e9460b81cd66f916e4028316a6756f1475dc41fef264736f6c63430008190033","linkReferences":{}},"methodIdentifiers":{"calculateFundingToBeReceived(uint256)":"0e392155","deposit(uint256)":"b6b55f25","distributeFunds()":"3a6a4d2e","getFundingToken()":"96c8370c","getMaxRequestableAmount()":"24bd06fc","getMinRequestableAmount()":"1cdb13d9","getProposal(uint256)":"c7f758a8","getProposalIdsByProposer(address)":"323bef09","getTallyDate()":"7770477d","getTotalBalanceAvailbleForDistribution()":"28e952a9","getTotalFundsDistributed()":"d5bd8d64","getTotalProposals()":"1a5007dd","getTotalVotingPowerTokensMinted()":"70467ecb","getTotalVotingPowerTokensUsed()":"7fa107c9","getVotingPowerOf(address)":"4595fbfc","getVotingPowerToken()":"31cbd295","getVotingToken()":"e28c3b19","owner()":"8da5cb5b","register(uint256)":"f207564e","releaseVotingTokens()":"3644e2c2","renounceOwnership()":"715018a6","submitProposal(string,uint256,uint256,address)":"bb39d1b9","transferOwnership(address)":"f2fde38b","voteOnProposal(uint256,uint256)":"556f6cc0","withdrawRemaining()":"ee38db95"},"id":32}