{"abi":[{"type":"constructor","inputs":[{"name":"_fundingToken","type":"address","internalType":"address"},{"name":"_votingToken","type":"address","internalType":"address"},{"name":"_votingPowerToken","type":"address","internalType":"address"},{"name":"_minRequestableAmount","type":"uint256","internalType":"uint256"},{"name":"_maxRequestableAmount","type":"uint256","internalType":"uint256"},{"name":"_tallyDate","type":"uint256","internalType":"uint256"},{"name":"_deployer","type":"address","internalType":"address"}],"stateMutability":"nonpayable"},{"type":"function","name":"calculateFundingToBeReceived","inputs":[{"name":"_proposalId","type":"uint256","internalType":"uint256"}],"outputs":[{"name":"","type":"uint256","internalType":"uint256"}],"stateMutability":"view"},{"type":"function","name":"deposit","inputs":[{"name":"_amount","type":"uint256","internalType":"uint256"}],"outputs":[],"stateMutability":"nonpayable"},{"type":"function","name":"distributeFunds","inputs":[],"outputs":[],"stateMutability":"nonpayable"},{"type":"function","name":"getDeployer","inputs":[],"outputs":[{"name":"","type":"address","internalType":"address"}],"stateMutability":"view"},{"type":"function","name":"getFundingToken","inputs":[],"outputs":[{"name":"","type":"address","internalType":"address"}],"stateMutability":"view"},{"type":"function","name":"getMaxRequestableAmount","inputs":[],"outputs":[{"name":"","type":"uint256","internalType":"uint256"}],"stateMutability":"view"},{"type":"function","name":"getMinRequestableAmount","inputs":[],"outputs":[{"name":"","type":"uint256","internalType":"uint256"}],"stateMutability":"view"},{"type":"function","name":"getProposal","inputs":[{"name":"_proposalId","type":"uint256","internalType":"uint256"}],"outputs":[{"name":"","type":"string","internalType":"string"},{"name":"","type":"uint256","internalType":"uint256"},{"name":"","type":"uint256","internalType":"uint256"},{"name":"","type":"address","internalType":"address"}],"stateMutability":"view"},{"type":"function","name":"getProposalIdsByProposer","inputs":[{"name":"_proposer","type":"address","internalType":"address"}],"outputs":[{"name":"","type":"uint256[]","internalType":"uint256[]"}],"stateMutability":"view"},{"type":"function","name":"getTallyDate","inputs":[],"outputs":[{"name":"","type":"uint256","internalType":"uint256"}],"stateMutability":"view"},{"type":"function","name":"getTotalBalanceAvailbleForDistribution","inputs":[],"outputs":[{"name":"","type":"uint256","internalType":"uint256"}],"stateMutability":"view"},{"type":"function","name":"getTotalFundsDistributed","inputs":[],"outputs":[{"name":"","type":"uint256","internalType":"uint256"}],"stateMutability":"view"},{"type":"function","name":"getTotalProposals","inputs":[],"outputs":[{"name":"","type":"uint256","internalType":"uint256"}],"stateMutability":"view"},{"type":"function","name":"getTotalVotingPowerTokensMinted","inputs":[],"outputs":[{"name":"","type":"uint256","internalType":"uint256"}],"stateMutability":"view"},{"type":"function","name":"getTotalVotingPowerTokensUsed","inputs":[],"outputs":[{"name":"","type":"uint256","internalType":"uint256"}],"stateMutability":"view"},{"type":"function","name":"getVotingPowerOf","inputs":[{"name":"_voter","type":"address","internalType":"address"}],"outputs":[{"name":"","type":"uint256","internalType":"uint256"}],"stateMutability":"view"},{"type":"function","name":"getVotingPowerToken","inputs":[],"outputs":[{"name":"","type":"address","internalType":"address"}],"stateMutability":"view"},{"type":"function","name":"getVotingToken","inputs":[],"outputs":[{"name":"","type":"address","internalType":"address"}],"stateMutability":"view"},{"type":"function","name":"register","inputs":[{"name":"_amount","type":"uint256","internalType":"uint256"}],"outputs":[],"stateMutability":"nonpayable"},{"type":"function","name":"releaseVotingTokens","inputs":[],"outputs":[],"stateMutability":"nonpayable"},{"type":"function","name":"submitProposal","inputs":[{"name":"_metadata","type":"string","internalType":"string"},{"name":"_minimumAmount","type":"uint256","internalType":"uint256"},{"name":"_maximumAmount","type":"uint256","internalType":"uint256"},{"name":"_recipient","type":"address","internalType":"address"}],"outputs":[{"name":"","type":"uint256","internalType":"uint256"}],"stateMutability":"nonpayable"},{"type":"function","name":"voteOnProposal","inputs":[{"name":"_proposalId","type":"uint256","internalType":"uint256"},{"name":"_amount","type":"uint256","internalType":"uint256"}],"outputs":[],"stateMutability":"nonpayable"},{"type":"function","name":"withdrawRemaining","inputs":[],"outputs":[],"stateMutability":"nonpayable"},{"type":"event","name":"FundingTokenDeposited","inputs":[{"name":"from","type":"address","indexed":true,"internalType":"address"},{"name":"amount","type":"uint256","indexed":true,"internalType":"uint256"}],"anonymous":false},{"type":"event","name":"FundsDistributed","inputs":[{"name":"proposalId","type":"uint256","indexed":true,"internalType":"uint256"},{"name":"recipient","type":"address","indexed":true,"internalType":"address"},{"name":"amount","type":"uint256","indexed":true,"internalType":"uint256"}],"anonymous":false},{"type":"event","name":"PlatformFeeSubmitted","inputs":[{"name":"platform","type":"address","indexed":true,"internalType":"address"},{"name":"amount","type":"uint256","indexed":false,"internalType":"uint256"}],"anonymous":false},{"type":"event","name":"ProposalSubmitted","inputs":[{"name":"proposer","type":"address","indexed":true,"internalType":"address"},{"name":"proposalId","type":"uint256","indexed":true,"internalType":"uint256"}],"anonymous":false},{"type":"event","name":"RegisteredVoter","inputs":[{"name":"voter","type":"address","indexed":true,"internalType":"address"},{"name":"amount","type":"uint256","indexed":true,"internalType":"uint256"}],"anonymous":false},{"type":"event","name":"ReleasedTokens","inputs":[{"name":"voter","type":"address","indexed":true,"internalType":"address"},{"name":"amount","type":"uint256","indexed":true,"internalType":"uint256"}],"anonymous":false},{"type":"event","name":"RemainingFundsWithdrawn","inputs":[{"name":"user","type":"address","indexed":true,"internalType":"address"},{"name":"amount","type":"uint256","indexed":false,"internalType":"uint256"}],"anonymous":false},{"type":"event","name":"VotedOnProposal","inputs":[{"name":"voter","type":"address","indexed":true,"internalType":"address"},{"name":"proposalId","type":"uint256","indexed":true,"internalType":"uint256"},{"name":"amount","type":"uint256","indexed":true,"internalType":"uint256"}],"anonymous":false},{"type":"error","name":"FundingVault__AlreadyDistributedFunds","inputs":[]},{"type":"error","name":"FundingVault__AlreadyVoted","inputs":[]},{"type":"error","name":"FundingVault__AmountCannotBeZero","inputs":[]},{"type":"error","name":"FundingVault__AmountExceededsLimit","inputs":[]},{"type":"error","name":"FundingVault__CannotBeAZeroAddress","inputs":[]},{"type":"error","name":"FundingVault__FundsNotDistributedYet","inputs":[]},{"type":"error","name":"FundingVault__MaxRequestableAmountCannotBeLessThanMinRequestableAmount","inputs":[]},{"type":"error","name":"FundingVault__MetadataCannotBeEmpty","inputs":[]},{"type":"error","name":"FundingVault__MinRequestableAmountCannotBeGreaterThanMaxRequestableAmount","inputs":[]},{"type":"error","name":"FundingVault__NoFundsToWithdraw","inputs":[]},{"type":"error","name":"FundingVault__NoRemainingFundsToWithdraw","inputs":[]},{"type":"error","name":"FundingVault__NoVotingPowerTokenMinted","inputs":[]},{"type":"error","name":"FundingVault__NotEnoughBalance","inputs":[]},{"type":"error","name":"FundingVault__ProposalDoesNotExist","inputs":[]},{"type":"error","name":"FundingVault__TallyDateNotPassed","inputs":[]},{"type":"error","name":"FundingVault__TallyDatePassed","inputs":[]},{"type":"error","name":"FundingVault__TransferFailed","inputs":[]},{"type":"error","name":"FundingVault__WithdrawableAmountTooSmall","inputs":[]},{"type":"error","name":"ReentrancyGuardReentrantCall","inputs":[]}],"bytecode":{"object":"0x610120604052348015610010575f5ffd5b50604051612f2c380380612f2c833981810160405281019061003291906101e4565b60015f819055508161010081815250508673ffffffffffffffffffffffffffffffffffffffff1660808173ffffffffffffffffffffffffffffffffffffffff16815250508573ffffffffffffffffffffffffffffffffffffffff1660a08173ffffffffffffffffffffffffffffffffffffffff16815250508473ffffffffffffffffffffffffffffffffffffffff1660c08173ffffffffffffffffffffffffffffffffffffffff168152505083600281905550826003819055505f6004819055505f6005819055505f60065f6101000a81548160ff0219169083151502179055508073ffffffffffffffffffffffffffffffffffffffff1660e08173ffffffffffffffffffffffffffffffffffffffff168152505050505050505050610281565b5f5ffd5b5f73ffffffffffffffffffffffffffffffffffffffff82169050919050565b5f61018082610157565b9050919050565b61019081610176565b811461019a575f5ffd5b50565b5f815190506101ab81610187565b92915050565b5f819050919050565b6101c3816101b1565b81146101cd575f5ffd5b50565b5f815190506101de816101ba565b92915050565b5f5f5f5f5f5f5f60e0888a0312156101ff576101fe610153565b5b5f61020c8a828b0161019d565b975050602061021d8a828b0161019d565b965050604061022e8a828b0161019d565b955050606061023f8a828b016101d0565b94505060806102508a828b016101d0565b93505060a06102618a828b016101d0565b92505060c06102728a828b0161019d565b91505092959891949750929550565b60805160a05160c05160e05161010051612bc66103665f395f818161041f0152818161082601528181610a2f015281816110130152818161135b0152818161144e0152818161163101528181611ab30152611e1b01525f8181610aea01528181610e9101528181610f49015261133401525f81816104c101528181610765015281816110b501528181611189015281816112a101528181611382015261201d01525f818161093c01528181611a8501528181611eaf0152611f7f01525f8181610cef01528181610e5501528181611420015281816114f90152611ce00152612bc65ff3fe608060405234801561000f575f5ffd5b506004361061014b575f3560e01c806370467ecb116100c1578063bb39d1b91161007a578063bb39d1b914610357578063c7f758a814610387578063d5bd8d64146103ba578063e28c3b19146103d8578063ee38db95146103f6578063f207564e146104005761014b565b806370467ecb146102a557806372630531146102c35780637770477d146102e15780637fa107c9146102ff57806396c8370c1461031d578063b6b55f251461033b5761014b565b806331cbd2951161011357806331cbd295146101f7578063323bef09146102155780633644e2c2146102455780633a6a4d2e1461024f5780634595fbfc14610259578063556f6cc0146102895761014b565b80630e3921551461014f5780631a5007dd1461017f5780631cdb13d91461019d57806324bd06fc146101bb57806328e952a9146101d9575b5f5ffd5b610169600480360381019061016491906121d6565b61041c565b6040516101769190612210565b60405180910390f35b61018761073e565b6040516101949190612210565b60405180910390f35b6101a5610747565b6040516101b29190612210565b60405180910390f35b6101c3610750565b6040516101d09190612210565b60405180910390f35b6101e1610759565b6040516101ee9190612210565b60405180910390f35b6101ff610762565b60405161020c9190612268565b60405180910390f35b61022f600480360381019061022a91906122ab565b610789565b60405161023c919061238d565b60405180910390f35b61024d61081c565b005b610257610a25565b005b610273600480360381019061026e91906122ab565b610fc3565b6040516102809190612210565b60405180910390f35b6102a3600480360381019061029e91906123ad565b611009565b005b6102ad61129e565b6040516102ba9190612210565b60405180910390f35b6102cb611331565b6040516102d89190612268565b60405180910390f35b6102e9611358565b6040516102f69190612210565b60405180910390f35b61030761137f565b6040516103149190612210565b60405180910390f35b61032561141d565b6040516103329190612268565b60405180910390f35b610355600480360381019061035091906121d6565b611444565b005b610371600480360381019061036c9190612527565b611626565b60405161037e9190612210565b60405180910390f35b6103a1600480360381019061039c91906121d6565b61193a565b6040516103b19493929190612607565b60405180910390f35b6103c2611a79565b6040516103cf9190612210565b60405180910390f35b6103e0611a82565b6040516103ed9190612268565b60405180910390f35b6103fe611aa9565b005b61041a600480360381019061041591906121d6565b611e11565b005b5f7f0000000000000000000000000000000000000000000000000000000000000000421015610477576040517fc62c35d500000000000000000000000000000000000000000000000000000000815260040160405180910390fd5b5f82111580610487575060015482115b156104be576040517f0a54249500000000000000000000000000000000000000000000000000000000815260040160405180910390fd5b5f7f000000000000000000000000000000000000000000000000000000000000000073ffffffffffffffffffffffffffffffffffffffff166318160ddd6040518163ffffffff1660e01b8152600401602060405180830381865afa158015610528573d5f5f3e3d5ffd5b505050506040513d601f19601f8201168201806040525081019061054c9190612665565b90505f8103610587576040517f62c3f32e00000000000000000000000000000000000000000000000000000000815260040160405180910390fd5b5f670de0b6b3a764000060095f8681526020019081526020015f20546105ad91906126bd565b90505f60085f8681526020019081526020015f206040518060800160405290815f820180546105db9061272b565b80601f01602080910402602001604051908101604052809291908181526020018280546106079061272b565b80156106525780601f1061062957610100808354040283529160200191610652565b820191905f5260205f20905b81548152906001019060200180831161063557829003601f168201915b505050505081526020016001820154815260200160028201548152602001600382015f9054906101000a900473ffffffffffffffffffffffffffffffffffffffff1673ffffffffffffffffffffffffffffffffffffffff1673ffffffffffffffffffffffffffffffffffffffff168152505090505f670de0b6b3a764000084846106dc9190612788565b6004546106e991906126bd565b6106f39190612788565b90505f82602001518210159050801561073057826040015182111561072357826040015195505050505050610739565b8195505050505050610739565b5f955050505050505b919050565b5f600154905090565b5f600254905090565b5f600354905090565b5f600454905090565b5f7f0000000000000000000000000000000000000000000000000000000000000000905090565b606060075f8373ffffffffffffffffffffffffffffffffffffffff1673ffffffffffffffffffffffffffffffffffffffff1681526020019081526020015f2080548060200260200160405190810160405280929190818152602001828054801561081057602002820191905f5260205f20905b8154815260200190600101908083116107fc575b50505050509050919050565b610824612145565b7f000000000000000000000000000000000000000000000000000000000000000042101561087e576040517fc62c35d500000000000000000000000000000000000000000000000000000000815260040160405180910390fd5b5f600a5f3373ffffffffffffffffffffffffffffffffffffffff1673ffffffffffffffffffffffffffffffffffffffff1681526020019081526020015f205490505f81116108f8576040517f58fcece600000000000000000000000000000000000000000000000000000000815260040160405180910390fd5b5f600a5f3373ffffffffffffffffffffffffffffffffffffffff1673ffffffffffffffffffffffffffffffffffffffff1681526020019081526020015f20819055507f000000000000000000000000000000000000000000000000000000000000000073ffffffffffffffffffffffffffffffffffffffff1663a9059cbb33836040518363ffffffff1660e01b81526004016109959291906127b8565b6020604051808303815f875af11580156109b1573d5f5f3e3d5ffd5b505050506040513d601f19601f820116820180604052508101906109d59190612814565b50803373ffffffffffffffffffffffffffffffffffffffff167fada8b88f0652690c97e2c67433a0d69ead55259f8d2037887cd88d0db849e20860405160405180910390a350610a23612189565b565b610a2d612145565b7f0000000000000000000000000000000000000000000000000000000000000000421015610a87576040517fc62c35d500000000000000000000000000000000000000000000000000000000815260040160405180910390fd5b60065f9054906101000a900460ff1615610acd576040517fb7d931f400000000000000000000000000000000000000000000000000000000815260040160405180910390fd5b600160065f6101000a81548160ff0219169083151502179055505f7f000000000000000000000000000000000000000000000000000000000000000073ffffffffffffffffffffffffffffffffffffffff16636ea8bc106040518163ffffffff1660e01b8152600401602060405180830381865afa158015610b51573d5f5f3e3d5ffd5b505050506040513d601f19601f82011682018060405250810190610b759190612665565b90505f5f90505f600190505b6001548111610e49575f610b948261041c565b90505f811115610e35575f60085f8481526020019081526020015f206040518060800160405290815f82018054610bca9061272b565b80601f0160208091040260200160405190810160405280929190818152602001828054610bf69061272b565b8015610c415780601f10610c1857610100808354040283529160200191610c41565b820191905f5260205f20905b815481529060010190602001808311610c2457829003601f168201915b505050505081526020016001820154815260200160028201548152602001600382015f9054906101000a900473ffffffffffffffffffffffffffffffffffffffff1673ffffffffffffffffffffffffffffffffffffffff1673ffffffffffffffffffffffffffffffffffffffff168152505090505f60648684610cc491906126bd565b610cce9190612788565b90508083610cdc919061283f565b92508085610cea9190612872565b94505f7f000000000000000000000000000000000000000000000000000000000000000073ffffffffffffffffffffffffffffffffffffffff1663a9059cbb8460600151866040518363ffffffff1660e01b8152600401610d4c9291906127b8565b6020604051808303815f875af1158015610d68573d5f5f3e3d5ffd5b505050506040513d601f19601f82011682018060405250810190610d8c9190612814565b905080610dc5576040517f779f564400000000000000000000000000000000000000000000000000000000815260040160405180910390fd5b8184610dd19190612872565b60055f828254610de19190612872565b9250508190555083836060015173ffffffffffffffffffffffffffffffffffffffff16867f9f5926601e7fc353505f05fae61282ae5d67b716f95656849456e6aa7bbbbb5f60405160405180910390a45050505b508080610e41906128a5565b915050610b81565b505f811115610fb7575f7f000000000000000000000000000000000000000000000000000000000000000073ffffffffffffffffffffffffffffffffffffffff1663a9059cbb7f0000000000000000000000000000000000000000000000000000000000000000846040518363ffffffff1660e01b8152600401610ece9291906127b8565b6020604051808303815f875af1158015610eea573d5f5f3e3d5ffd5b505050506040513d601f19601f82011682018060405250810190610f0e9190612814565b905080610f47576040517f779f564400000000000000000000000000000000000000000000000000000000815260040160405180910390fd5b7f000000000000000000000000000000000000000000000000000000000000000073ffffffffffffffffffffffffffffffffffffffff167f78960d0b6d9da496cfe65faff867ec64774b887e2991495bb66abaa7afb1ddeb83604051610fad9190612210565b60405180910390a2505b5050610fc1612189565b565b5f600a5f8373ffffffffffffffffffffffffffffffffffffffff1673ffffffffffffffffffffffffffffffffffffffff1681526020019081526020015f20549050919050565b611011612145565b7f000000000000000000000000000000000000000000000000000000000000000042111561106b576040517f3ff8795900000000000000000000000000000000000000000000000000000000815260040160405180910390fd5b5f8211158061107b575060015482115b156110b2576040517f0a54249500000000000000000000000000000000000000000000000000000000815260040160405180910390fd5b5f7f000000000000000000000000000000000000000000000000000000000000000073ffffffffffffffffffffffffffffffffffffffff166370a08231336040518263ffffffff1660e01b815260040161110c9190612268565b602060405180830381865afa158015611127573d5f5f3e3d5ffd5b505050506040513d601f19601f8201168201806040525081019061114b9190612665565b905080821115611187576040517f4144687100000000000000000000000000000000000000000000000000000000815260040160405180910390fd5b7f000000000000000000000000000000000000000000000000000000000000000073ffffffffffffffffffffffffffffffffffffffff166323b872dd3330856040518463ffffffff1660e01b81526004016111e4939291906128ec565b6020604051808303815f875af1158015611200573d5f5f3e3d5ffd5b505050506040513d601f19601f820116820180604052508101906112249190612814565b508160095f8581526020019081526020015f205f8282546112459190612872565b9250508190555081833373ffffffffffffffffffffffffffffffffffffffff167f4f320d0dd50d47ce5b5d001a0fc303f39b669f9e6adf87bcf899dc4a2b9a80cd60405160405180910390a45061129a612189565b5050565b5f7f000000000000000000000000000000000000000000000000000000000000000073ffffffffffffffffffffffffffffffffffffffff166318160ddd6040518163ffffffff1660e01b8152600401602060405180830381865afa158015611308573d5f5f3e3d5ffd5b505050506040513d601f19601f8201168201806040525081019061132c9190612665565b905090565b5f7f0000000000000000000000000000000000000000000000000000000000000000905090565b5f7f0000000000000000000000000000000000000000000000000000000000000000905090565b5f7f000000000000000000000000000000000000000000000000000000000000000073ffffffffffffffffffffffffffffffffffffffff166370a08231306040518263ffffffff1660e01b81526004016113d99190612268565b602060405180830381865afa1580156113f4573d5f5f3e3d5ffd5b505050506040513d601f19601f820116820180604052508101906114189190612665565b905090565b5f7f0000000000000000000000000000000000000000000000000000000000000000905090565b61144c612145565b7f00000000000000000000000000000000000000000000000000000000000000004211156114a6576040517f3ff8795900000000000000000000000000000000000000000000000000000000815260040160405180910390fd5b5f81116114df576040517f58fcece600000000000000000000000000000000000000000000000000000000815260040160405180910390fd5b8060045f8282546114f09190612872565b925050819055507f000000000000000000000000000000000000000000000000000000000000000073ffffffffffffffffffffffffffffffffffffffff166323b872dd3330846040518463ffffffff1660e01b8152600401611554939291906128ec565b6020604051808303815f875af1158015611570573d5f5f3e3d5ffd5b505050506040513d601f19601f820116820180604052508101906115949190612814565b5080600b5f3373ffffffffffffffffffffffffffffffffffffffff1673ffffffffffffffffffffffffffffffffffffffff1681526020019081526020015f2081905550803373ffffffffffffffffffffffffffffffffffffffff167f697042ef5da31e8cc8af5610bbeda31e034ff7c72945a28c25a38d2c7a38f5f560405160405180910390a3611623612189565b50565b5f61162f612145565b7f0000000000000000000000000000000000000000000000000000000000000000421115611689576040517f3ff8795900000000000000000000000000000000000000000000000000000000815260040160405180910390fd5b5f8551036116c3576040517f4833e9c000000000000000000000000000000000000000000000000000000000815260040160405180910390fd5b6002548410806116d4575060035483115b1561170b576040517f4144687100000000000000000000000000000000000000000000000000000000815260040160405180910390fd5b82841115611745576040517fd292434b00000000000000000000000000000000000000000000000000000000815260040160405180910390fd5b5f73ffffffffffffffffffffffffffffffffffffffff168273ffffffffffffffffffffffffffffffffffffffff16036117aa576040517f7d9c727800000000000000000000000000000000000000000000000000000000815260040160405180910390fd5b60015f8154809291906117bc906128a5565b919050555060405180608001604052808681526020018581526020018481526020018373ffffffffffffffffffffffffffffffffffffffff1681525060085f60015481526020019081526020015f205f820151815f01908161181e9190612ac1565b5060208201518160010155604082015181600201556060820151816003015f6101000a81548173ffffffffffffffffffffffffffffffffffffffff021916908373ffffffffffffffffffffffffffffffffffffffff16021790555090505060075f3373ffffffffffffffffffffffffffffffffffffffff1673ffffffffffffffffffffffffffffffffffffffff1681526020019081526020015f20600154908060018154018082558091505060019003905f5260205f20015f90919091909150556001543373ffffffffffffffffffffffffffffffffffffffff167f9502d7618553b38b99edbe5d1547756cc9ab18db5ddd0674b051490ca4e2fb4c60405160405180910390a36001549050611932612189565b949350505050565b60605f5f5f5f60085f8781526020019081526020015f206040518060800160405290815f8201805461196b9061272b565b80601f01602080910402602001604051908101604052809291908181526020018280546119979061272b565b80156119e25780601f106119b9576101008083540402835291602001916119e2565b820191905f5260205f20905b8154815290600101906020018083116119c557829003601f168201915b505050505081526020016001820154815260200160028201548152602001600382015f9054906101000a900473ffffffffffffffffffffffffffffffffffffffff1673ffffffffffffffffffffffffffffffffffffffff1673ffffffffffffffffffffffffffffffffffffffff16815250509050805f01518160200151826040015183606001519450945094509450509193509193565b5f600554905090565b5f7f0000000000000000000000000000000000000000000000000000000000000000905090565b611ab1612145565b7f0000000000000000000000000000000000000000000000000000000000000000421015611b0b576040517fc62c35d500000000000000000000000000000000000000000000000000000000815260040160405180910390fd5b60065f9054906101000a900460ff16611b50576040517f82f3861b00000000000000000000000000000000000000000000000000000000815260040160405180910390fd5b5f600b5f3373ffffffffffffffffffffffffffffffffffffffff1673ffffffffffffffffffffffffffffffffffffffff1681526020019081526020015f205490505f8103611bca576040517fdfe5dfe100000000000000000000000000000000000000000000000000000000815260040160405180910390fd5b5f60045490505f6005549050808211611c0f576040517faadb7b6000000000000000000000000000000000000000000000000000000000815260040160405180910390fd5b5f8183611c1c919061283f565b90505f83670de0b6b3a764000086611c3491906126bd565b611c3e9190612788565b90505f670de0b6b3a76400008383611c5691906126bd565b611c609190612788565b90505f8103611c9b576040517f2968927c00000000000000000000000000000000000000000000000000000000815260040160405180910390fd5b5f600b5f3373ffffffffffffffffffffffffffffffffffffffff1673ffffffffffffffffffffffffffffffffffffffff1681526020019081526020015f20819055505f7f000000000000000000000000000000000000000000000000000000000000000073ffffffffffffffffffffffffffffffffffffffff1663a9059cbb33846040518363ffffffff1660e01b8152600401611d399291906127b8565b6020604051808303815f875af1158015611d55573d5f5f3e3d5ffd5b505050506040513d601f19601f82011682018060405250810190611d799190612814565b905080611db2576040517f779f564400000000000000000000000000000000000000000000000000000000815260040160405180910390fd5b3373ffffffffffffffffffffffffffffffffffffffff167f1e563d9e18af5db6fd44fc692df8325fdf25841bc9ba0ec5ea17f128b12766e383604051611df89190612210565b60405180910390a250505050505050611e0f612189565b565b611e19612145565b7f0000000000000000000000000000000000000000000000000000000000000000421115611e73576040517f3ff8795900000000000000000000000000000000000000000000000000000000815260040160405180910390fd5b5f8111611eac576040517f58fcece600000000000000000000000000000000000000000000000000000000815260040160405180910390fd5b807f000000000000000000000000000000000000000000000000000000000000000073ffffffffffffffffffffffffffffffffffffffff166370a08231336040518263ffffffff1660e01b8152600401611f069190612268565b602060405180830381865afa158015611f21573d5f5f3e3d5ffd5b505050506040513d601f19601f82011682018060405250810190611f459190612665565b1015611f7d576040517fbc9f544400000000000000000000000000000000000000000000000000000000815260040160405180910390fd5b7f000000000000000000000000000000000000000000000000000000000000000073ffffffffffffffffffffffffffffffffffffffff166323b872dd3330846040518463ffffffff1660e01b8152600401611fda939291906128ec565b6020604051808303815f875af1158015611ff6573d5f5f3e3d5ffd5b505050506040513d601f19601f8201168201806040525081019061201a9190612814565b507f000000000000000000000000000000000000000000000000000000000000000073ffffffffffffffffffffffffffffffffffffffff166340c10f1933836040518363ffffffff1660e01b81526004016120769291906127b8565b5f604051808303815f87803b15801561208d575f5ffd5b505af115801561209f573d5f5f3e3d5ffd5b5050505080600a5f3373ffffffffffffffffffffffffffffffffffffffff1673ffffffffffffffffffffffffffffffffffffffff1681526020019081526020015f205f8282546120ef9190612872565b92505081905550803373ffffffffffffffffffffffffffffffffffffffff167f0c3becdb286011bdfd6932f09baa4447106b6078f69fb6b49891a69b1541706460405160405180910390a3612142612189565b50565b60025f5403612180576040517f3ee5aeb500000000000000000000000000000000000000000000000000000000815260040160405180910390fd5b60025f81905550565b60015f81905550565b5f604051905090565b5f5ffd5b5f5ffd5b5f819050919050565b6121b5816121a3565b81146121bf575f5ffd5b50565b5f813590506121d0816121ac565b92915050565b5f602082840312156121eb576121ea61219b565b5b5f6121f8848285016121c2565b91505092915050565b61220a816121a3565b82525050565b5f6020820190506122235f830184612201565b92915050565b5f73ffffffffffffffffffffffffffffffffffffffff82169050919050565b5f61225282612229565b9050919050565b61226281612248565b82525050565b5f60208201905061227b5f830184612259565b92915050565b61228a81612248565b8114612294575f5ffd5b50565b5f813590506122a581612281565b92915050565b5f602082840312156122c0576122bf61219b565b5b5f6122cd84828501612297565b91505092915050565b5f81519050919050565b5f82825260208201905092915050565b5f819050602082019050919050565b612308816121a3565b82525050565b5f61231983836122ff565b60208301905092915050565b5f602082019050919050565b5f61233b826122d6565b61234581856122e0565b9350612350836122f0565b805f5b83811015612380578151612367888261230e565b975061237283612325565b925050600181019050612353565b5085935050505092915050565b5f6020820190508181035f8301526123a58184612331565b905092915050565b5f5f604083850312156123c3576123c261219b565b5b5f6123d0858286016121c2565b92505060206123e1858286016121c2565b9150509250929050565b5f5ffd5b5f5ffd5b5f601f19601f8301169050919050565b7f4e487b71000000000000000000000000000000000000000000000000000000005f52604160045260245ffd5b612439826123f3565b810181811067ffffffffffffffff8211171561245857612457612403565b5b80604052505050565b5f61246a612192565b90506124768282612430565b919050565b5f67ffffffffffffffff82111561249557612494612403565b5b61249e826123f3565b9050602081019050919050565b828183375f83830152505050565b5f6124cb6124c68461247b565b612461565b9050828152602081018484840111156124e7576124e66123ef565b5b6124f28482856124ab565b509392505050565b5f82601f83011261250e5761250d6123eb565b5b813561251e8482602086016124b9565b91505092915050565b5f5f5f5f6080858703121561253f5761253e61219b565b5b5f85013567ffffffffffffffff81111561255c5761255b61219f565b5b612568878288016124fa565b9450506020612579878288016121c2565b935050604061258a878288016121c2565b925050606061259b87828801612297565b91505092959194509250565b5f81519050919050565b5f82825260208201905092915050565b8281835e5f83830152505050565b5f6125d9826125a7565b6125e381856125b1565b93506125f38185602086016125c1565b6125fc816123f3565b840191505092915050565b5f6080820190508181035f83015261261f81876125cf565b905061262e6020830186612201565b61263b6040830185612201565b6126486060830184612259565b95945050505050565b5f8151905061265f816121ac565b92915050565b5f6020828403121561267a5761267961219b565b5b5f61268784828501612651565b91505092915050565b7f4e487b71000000000000000000000000000000000000000000000000000000005f52601160045260245ffd5b5f6126c7826121a3565b91506126d2836121a3565b92508282026126e0816121a3565b915082820484148315176126f7576126f6612690565b5b5092915050565b7f4e487b71000000000000000000000000000000000000000000000000000000005f52602260045260245ffd5b5f600282049050600182168061274257607f821691505b602082108103612755576127546126fe565b5b50919050565b7f4e487b71000000000000000000000000000000000000000000000000000000005f52601260045260245ffd5b5f612792826121a3565b915061279d836121a3565b9250826127ad576127ac61275b565b5b828204905092915050565b5f6040820190506127cb5f830185612259565b6127d86020830184612201565b9392505050565b5f8115159050919050565b6127f3816127df565b81146127fd575f5ffd5b50565b5f8151905061280e816127ea565b92915050565b5f602082840312156128295761282861219b565b5b5f61283684828501612800565b91505092915050565b5f612849826121a3565b9150612854836121a3565b925082820390508181111561286c5761286b612690565b5b92915050565b5f61287c826121a3565b9150612887836121a3565b925082820190508082111561289f5761289e612690565b5b92915050565b5f6128af826121a3565b91507fffffffffffffffffffffffffffffffffffffffffffffffffffffffffffffffff82036128e1576128e0612690565b5b600182019050919050565b5f6060820190506128ff5f830186612259565b61290c6020830185612259565b6129196040830184612201565b949350505050565b5f819050815f5260205f209050919050565b5f6020601f8301049050919050565b5f82821b905092915050565b5f6008830261297d7fffffffffffffffffffffffffffffffffffffffffffffffffffffffffffffffff82612942565b6129878683612942565b95508019841693508086168417925050509392505050565b5f819050919050565b5f6129c26129bd6129b8846121a3565b61299f565b6121a3565b9050919050565b5f819050919050565b6129db836129a8565b6129ef6129e7826129c9565b84845461294e565b825550505050565b5f5f905090565b612a066129f7565b612a118184846129d2565b505050565b5b81811015612a3457612a295f826129fe565b600181019050612a17565b5050565b601f821115612a7957612a4a81612921565b612a5384612933565b81016020851015612a62578190505b612a76612a6e85612933565b830182612a16565b50505b505050565b5f82821c905092915050565b5f612a995f1984600802612a7e565b1980831691505092915050565b5f612ab18383612a8a565b9150826002028217905092915050565b612aca826125a7565b67ffffffffffffffff811115612ae357612ae2612403565b5b612aed825461272b565b612af8828285612a38565b5f60209050601f831160018114612b29575f8415612b17578287015190505b612b218582612aa6565b865550612b88565b601f198416612b3786612921565b5f5b82811015612b5e57848901518255600182019150602085019450602081019050612b39565b86831015612b7b5784890151612b77601f891682612a8a565b8355505b6001600288020188555050505b50505050505056fea26469706673582212209904f7ec9320ea324e086ffb692c6b5db10f86e56523a963dcbba8db11c1c7a564736f6c634300081c0033","linkReferences":{}},"methodIdentifiers":{"calculateFundingToBeReceived(uint256)":"0e392155","deposit(uint256)":"b6b55f25","distributeFunds()":"3a6a4d2e","getDeployer()":"72630531","getFundingToken()":"96c8370c","getMaxRequestableAmount()":"24bd06fc","getMinRequestableAmount()":"1cdb13d9","getProposal(uint256)":"c7f758a8","getProposalIdsByProposer(address)":"323bef09","getTallyDate()":"7770477d","getTotalBalanceAvailbleForDistribution()":"28e952a9","getTotalFundsDistributed()":"d5bd8d64","getTotalProposals()":"1a5007dd","getTotalVotingPowerTokensMinted()":"70467ecb","getTotalVotingPowerTokensUsed()":"7fa107c9","getVotingPowerOf(address)":"4595fbfc","getVotingPowerToken()":"31cbd295","getVotingToken()":"e28c3b19","register(uint256)":"f207564e","releaseVotingTokens()":"3644e2c2","submitProposal(string,uint256,uint256,address)":"bb39d1b9","voteOnProposal(uint256,uint256)":"556f6cc0","withdrawRemaining()":"ee38db95"},"id":42}