{"abi":[{"type":"constructor","inputs":[{"name":"_fundingToken","type":"address","internalType":"address"},{"name":"_votingToken","type":"address","internalType":"address"},{"name":"_votingPowerToken","type":"address","internalType":"address"},{"name":"_minRequestableAmount","type":"uint256","internalType":"uint256"},{"name":"_maxRequestableAmount","type":"uint256","internalType":"uint256"},{"name":"_tallyDate","type":"uint256","internalType":"uint256"},{"name":"_deployer","type":"address","internalType":"address"}],"stateMutability":"nonpayable"},{"type":"function","name":"calculateFundingToBeReceived","inputs":[{"name":"_proposalId","type":"uint256","internalType":"uint256"}],"outputs":[{"name":"","type":"uint256","internalType":"uint256"}],"stateMutability":"view"},{"type":"function","name":"deposit","inputs":[{"name":"_amount","type":"uint256","internalType":"uint256"}],"outputs":[],"stateMutability":"nonpayable"},{"type":"function","name":"distributeFunds","inputs":[],"outputs":[],"stateMutability":"nonpayable"},{"type":"function","name":"getDeployer","inputs":[],"outputs":[{"name":"","type":"address","internalType":"address"}],"stateMutability":"view"},{"type":"function","name":"getFundingToken","inputs":[],"outputs":[{"name":"","type":"address","internalType":"address"}],"stateMutability":"view"},{"type":"function","name":"getMaxRequestableAmount","inputs":[],"outputs":[{"name":"","type":"uint256","internalType":"uint256"}],"stateMutability":"view"},{"type":"function","name":"getMinRequestableAmount","inputs":[],"outputs":[{"name":"","type":"uint256","internalType":"uint256"}],"stateMutability":"view"},{"type":"function","name":"getProposal","inputs":[{"name":"_proposalId","type":"uint256","internalType":"uint256"}],"outputs":[{"name":"","type":"string","internalType":"string"},{"name":"","type":"uint256","internalType":"uint256"},{"name":"","type":"uint256","internalType":"uint256"},{"name":"","type":"address","internalType":"address"}],"stateMutability":"view"},{"type":"function","name":"getProposalIdsByProposer","inputs":[{"name":"_proposer","type":"address","internalType":"address"}],"outputs":[{"name":"","type":"uint256[]","internalType":"uint256[]"}],"stateMutability":"view"},{"type":"function","name":"getTallyDate","inputs":[],"outputs":[{"name":"","type":"uint256","internalType":"uint256"}],"stateMutability":"view"},{"type":"function","name":"getTotalBalanceAvailbleForDistribution","inputs":[],"outputs":[{"name":"","type":"uint256","internalType":"uint256"}],"stateMutability":"view"},{"type":"function","name":"getTotalFundsDistributed","inputs":[],"outputs":[{"name":"","type":"uint256","internalType":"uint256"}],"stateMutability":"view"},{"type":"function","name":"getTotalProposals","inputs":[],"outputs":[{"name":"","type":"uint256","internalType":"uint256"}],"stateMutability":"view"},{"type":"function","name":"getTotalVotingPowerTokensMinted","inputs":[],"outputs":[{"name":"","type":"uint256","internalType":"uint256"}],"stateMutability":"view"},{"type":"function","name":"getTotalVotingPowerTokensUsed","inputs":[],"outputs":[{"name":"","type":"uint256","internalType":"uint256"}],"stateMutability":"view"},{"type":"function","name":"getVotingPowerOf","inputs":[{"name":"_voter","type":"address","internalType":"address"}],"outputs":[{"name":"","type":"uint256","internalType":"uint256"}],"stateMutability":"view"},{"type":"function","name":"getVotingPowerToken","inputs":[],"outputs":[{"name":"","type":"address","internalType":"address"}],"stateMutability":"view"},{"type":"function","name":"getVotingToken","inputs":[],"outputs":[{"name":"","type":"address","internalType":"address"}],"stateMutability":"view"},{"type":"function","name":"register","inputs":[{"name":"_amount","type":"uint256","internalType":"uint256"}],"outputs":[],"stateMutability":"nonpayable"},{"type":"function","name":"releaseVotingTokens","inputs":[],"outputs":[],"stateMutability":"nonpayable"},{"type":"function","name":"submitProposal","inputs":[{"name":"_metadata","type":"string","internalType":"string"},{"name":"_minimumAmount","type":"uint256","internalType":"uint256"},{"name":"_maximumAmount","type":"uint256","internalType":"uint256"},{"name":"_recipient","type":"address","internalType":"address"}],"outputs":[{"name":"","type":"uint256","internalType":"uint256"}],"stateMutability":"nonpayable"},{"type":"function","name":"voteOnProposal","inputs":[{"name":"_proposalId","type":"uint256","internalType":"uint256"},{"name":"_amount","type":"uint256","internalType":"uint256"}],"outputs":[],"stateMutability":"nonpayable"},{"type":"function","name":"withdrawRemaining","inputs":[],"outputs":[],"stateMutability":"nonpayable"},{"type":"event","name":"FundingTokenDeposited","inputs":[{"name":"from","type":"address","indexed":true,"internalType":"address"},{"name":"amount","type":"uint256","indexed":true,"internalType":"uint256"}],"anonymous":false},{"type":"event","name":"FundsDistributed","inputs":[{"name":"proposalId","type":"uint256","indexed":true,"internalType":"uint256"},{"name":"recipient","type":"address","indexed":true,"internalType":"address"},{"name":"amount","type":"uint256","indexed":true,"internalType":"uint256"}],"anonymous":false},{"type":"event","name":"PlatformFeeSubmitted","inputs":[{"name":"platform","type":"address","indexed":true,"internalType":"address"},{"name":"amount","type":"uint256","indexed":false,"internalType":"uint256"}],"anonymous":false},{"type":"event","name":"ProposalSubmitted","inputs":[{"name":"proposer","type":"address","indexed":true,"internalType":"address"},{"name":"proposalId","type":"uint256","indexed":true,"internalType":"uint256"}],"anonymous":false},{"type":"event","name":"RegisteredVoter","inputs":[{"name":"voter","type":"address","indexed":true,"internalType":"address"},{"name":"amount","type":"uint256","indexed":true,"internalType":"uint256"}],"anonymous":false},{"type":"event","name":"ReleasedTokens","inputs":[{"name":"voter","type":"address","indexed":true,"internalType":"address"},{"name":"amount","type":"uint256","indexed":true,"internalType":"uint256"}],"anonymous":false},{"type":"event","name":"RemainingFundsWithdrawn","inputs":[{"name":"user","type":"address","indexed":true,"internalType":"address"},{"name":"amount","type":"uint256","indexed":false,"internalType":"uint256"}],"anonymous":false},{"type":"event","name":"VotedOnProposal","inputs":[{"name":"voter","type":"address","indexed":true,"internalType":"address"},{"name":"proposalId","type":"uint256","indexed":true,"internalType":"uint256"},{"name":"amount","type":"uint256","indexed":true,"internalType":"uint256"}],"anonymous":false},{"type":"error","name":"FundingVault__AlreadyDistributedFunds","inputs":[]},{"type":"error","name":"FundingVault__AlreadyVoted","inputs":[]},{"type":"error","name":"FundingVault__AmountCannotBeZero","inputs":[]},{"type":"error","name":"FundingVault__AmountExceededsLimit","inputs":[]},{"type":"error","name":"FundingVault__CannotBeAZeroAddress","inputs":[]},{"type":"error","name":"FundingVault__FundsNotDistributedYet","inputs":[]},{"type":"error","name":"FundingVault__MaxRequestableAmountCannotBeLessThanMinRequestableAmount","inputs":[]},{"type":"error","name":"FundingVault__MetadataCannotBeEmpty","inputs":[]},{"type":"error","name":"FundingVault__MinRequestableAmountCannotBeGreaterThanMaxRequestableAmount","inputs":[]},{"type":"error","name":"FundingVault__NoFundsToWithdraw","inputs":[]},{"type":"error","name":"FundingVault__NoRemainingFundsToWithdraw","inputs":[]},{"type":"error","name":"FundingVault__NoVotingPowerTokenMinted","inputs":[]},{"type":"error","name":"FundingVault__NotEnoughBalance","inputs":[]},{"type":"error","name":"FundingVault__ProposalDoesNotExist","inputs":[]},{"type":"error","name":"FundingVault__TallyDateNotPassed","inputs":[]},{"type":"error","name":"FundingVault__TransferFailed","inputs":[]},{"type":"error","name":"FundingVault__WithdrawableAmountTooSmall","inputs":[]},{"type":"error","name":"ReentrancyGuardReentrantCall","inputs":[]}],"bytecode":{"object":"0x61012060405234801561001157600080fd5b50604051611dd2380380611dd283398101604081905261003091610098565b60016000908155610100929092526001600160a01b0396871660805294861660a05292851660c05260029190915560035560048190556005556006805460ff191690551660e052610109565b80516001600160a01b038116811461009357600080fd5b919050565b600080600080600080600060e0888a0312156100b357600080fd5b6100bc8861007c565b96506100ca6020890161007c565b95506100d86040890161007c565b9450606088015193506080880151925060a088015191506100fb60c0890161007c565b905092959891949750929550565b60805160a05160c05160e05161010051611bf96101d9600039600081816102700152818161035801528181610656015281816107ad01526112f301526000818161024a0152818161083a01528181610b210152610be401526000818161019a015281816103c701528181610c9f01528181610d5701528181610e3201528181610ecf01526116ae015260008181610315015281816106fb01528181611568015261161c01526000818161029e01528181610a0101528181610b5301528181610f8001526114550152611bf96000f3fe608060405234801561001057600080fd5b506004361061014d5760003560e01c806370467ecb116100c3578063bb39d1b91161007c578063bb39d1b9146102d5578063c7f758a8146102e8578063d5bd8d641461030b578063e28c3b1914610313578063ee38db9514610339578063f207564e1461034157600080fd5b806370467ecb1461024057806372630531146102485780637770477d1461026e5780637fa107c91461029457806396c8370c1461029c578063b6b55f25146102c257600080fd5b806331cbd2951161011557806331cbd29514610198578063323bef09146101d25780633644e2c2146101f25780633a6a4d2e146101fc5780634595fbfc14610204578063556f6cc01461022d57600080fd5b80630e392155146101525780631a5007dd146101785780631cdb13d91461018057806324bd06fc1461018857806328e952a914610190575b600080fd5b610165610160366004611798565b610354565b6040519081526020015b60405180910390f35b600154610165565b600254610165565b600354610165565b600454610165565b7f00000000000000000000000000000000000000000000000000000000000000005b6040516001600160a01b03909116815260200161016f565b6101e56101e03660046117c8565b6105e0565b60405161016f91906117ea565b6101fa61064c565b005b6101fa6107a3565b6101656102123660046117c8565b6001600160a01b03166000908152600a602052604090205490565b6101fa61023b36600461182e565b610c53565b610165610e2e565b7f00000000000000000000000000000000000000000000000000000000000000006101ba565b7f0000000000000000000000000000000000000000000000000000000000000000610165565b610165610eb7565b7f00000000000000000000000000000000000000000000000000000000000000006101ba565b6101fa6102d0366004611798565b610f1e565b6101656102e3366004611866565b61103d565b6102fb6102f6366004611798565b6111e1565b60405161016f949392919061193b565b600554610165565b7f00000000000000000000000000000000000000000000000000000000000000006101ba565b6101fa6112e9565b6101fa61034f366004611798565b611528565b60007f00000000000000000000000000000000000000000000000000000000000000004210156103975760405163c62c35d560e01b815260040160405180910390fd5b8115806103a5575060015482115b156103c357604051630a54249560e01b815260040160405180910390fd5b60007f00000000000000000000000000000000000000000000000000000000000000006001600160a01b03166318160ddd6040518163ffffffff1660e01b8152600401602060405180830381865afa158015610423573d6000803e3d6000fd5b505050506040513d601f19601f8201168201806040525081019061044791906119a9565b90508060000361046a57604051633161f99760e11b815260040160405180910390fd5b60008381526009602052604081205461048b90670de0b6b3a76400006119d8565b90506000600860008681526020019081526020016000206040518060800160405290816000820180546104bd906119f5565b80601f01602080910402602001604051908101604052809291908181526020018280546104e9906119f5565b80156105365780601f1061050b57610100808354040283529160200191610536565b820191906000526020600020905b81548152906001019060200180831161051957829003601f168201915b505050918352505060018201546020820152600282015460408201526003909101546001600160a01b031660609091015290506000670de0b6b3a764000061057e8585611a2f565b60045461058b91906119d8565b6105959190611a2f565b602083015190915081108015906105ce5782604001518211156105c25750506040015192506105db915050565b5093506105db92505050565b5060009695505050505050565b919050565b6001600160a01b03811660009081526007602090815260409182902080548351818402810184019094528084526060939283018282801561064057602002820191906000526020600020905b81548152602001906001019080831161062c575b50505050509050919050565b61065461176e565b7f00000000000000000000000000000000000000000000000000000000000000004210156106955760405163c62c35d560e01b815260040160405180910390fd5b336000908152600a6020526040902054806106c357604051632c7e767360e11b815260040160405180910390fd5b336000818152600a6020526040808220919091555163a9059cbb60e01b81526004810191909152602481018290526001600160a01b037f0000000000000000000000000000000000000000000000000000000000000000169063a9059cbb906044016020604051808303816000875af1158015610744573d6000803e3d6000fd5b505050506040513d601f19601f820116820180604052508101906107689190611a51565b50604051819033907fada8b88f0652690c97e2c67433a0d69ead55259f8d2037887cd88d0db849e20890600090a3506107a16001600055565b565b6107ab61176e565b7f00000000000000000000000000000000000000000000000000000000000000004210156107ec5760405163c62c35d560e01b815260040160405180910390fd5b60065460ff161561081057604051632df64c7d60e21b815260040160405180910390fd5b6006805460ff19166001179055604080516306ea8bc160e41b815290516000916001600160a01b037f00000000000000000000000000000000000000000000000000000000000000001691636ea8bc10916004808201926020929091908290030181865afa158015610886573d6000803e3d6000fd5b505050506040513d601f19601f820116820180604052508101906108aa91906119a9565b9050600060015b6001548111610b035760006108c582610354565b90508015610af0576000828152600860205260408082208151608081019092528054829082906108f4906119f5565b80601f0160208091040260200160405190810160405280929190818152602001828054610920906119f5565b801561096d5780601f106109425761010080835404028352916020019161096d565b820191906000526020600020905b81548152906001019060200180831161095057829003601f168201915b505050918352505060018201546020820152600282015460408201526003909101546001600160a01b03166060909101529050600060646109ae87856119d8565b6109b89190611a2f565b90506109c48184611a73565b92506109d08186611a86565b606083015160405163a9059cbb60e01b81526001600160a01b039182166004820152602481018690529196506000917f00000000000000000000000000000000000000000000000000000000000000009091169063a9059cbb906044016020604051808303816000875af1158015610a4c573d6000803e3d6000fd5b505050506040513d601f19601f82011682018060405250810190610a709190611a51565b905080610a9057604051631de7d59160e21b815260040160405180910390fd5b610a9a8285611a86565b60056000828254610aab9190611a86565b9091555050606083015160405185916001600160a01b03169087907f9f5926601e7fc353505f05fae61282ae5d67b716f95656849456e6aa7bbbbb5f90600090a45050505b5080610afb81611a99565b9150506108b1565b508015610c475760405163a9059cbb60e01b81526001600160a01b037f000000000000000000000000000000000000000000000000000000000000000081166004830152602482018390526000917f00000000000000000000000000000000000000000000000000000000000000009091169063a9059cbb906044016020604051808303816000875af1158015610b9e573d6000803e3d6000fd5b505050506040513d601f19601f82011682018060405250810190610bc29190611a51565b905080610be257604051631de7d59160e21b815260040160405180910390fd5b7f00000000000000000000000000000000000000000000000000000000000000006001600160a01b03167f78960d0b6d9da496cfe65faff867ec64774b887e2991495bb66abaa7afb1ddeb83604051610c3d91815260200190565b60405180910390a2505b50506107a16001600055565b610c5b61176e565b811580610c69575060015482115b15610c8757604051630a54249560e01b815260040160405180910390fd5b6040516370a0823160e01b81523360048201526000907f00000000000000000000000000000000000000000000000000000000000000006001600160a01b0316906370a0823190602401602060405180830381865afa158015610cee573d6000803e3d6000fd5b505050506040513d601f19601f82011682018060405250810190610d1291906119a9565b905080821115610d3557604051634144687160e01b815260040160405180910390fd5b6040516323b872dd60e01b8152336004820152306024820152604481018390527f00000000000000000000000000000000000000000000000000000000000000006001600160a01b0316906323b872dd906064016020604051808303816000875af1158015610da8573d6000803e3d6000fd5b505050506040513d601f19601f82011682018060405250810190610dcc9190611a51565b5060008381526009602052604081208054849290610deb908490611a86565b90915550506040518290849033907f4f320d0dd50d47ce5b5d001a0fc303f39b669f9e6adf87bcf899dc4a2b9a80cd90600090a450610e2a6001600055565b5050565b60007f00000000000000000000000000000000000000000000000000000000000000006001600160a01b03166318160ddd6040518163ffffffff1660e01b8152600401602060405180830381865afa158015610e8e573d6000803e3d6000fd5b505050506040513d601f19601f82011682018060405250810190610eb291906119a9565b905090565b6040516370a0823160e01b81523060048201526000907f00000000000000000000000000000000000000000000000000000000000000006001600160a01b0316906370a0823190602401602060405180830381865afa158015610e8e573d6000803e3d6000fd5b610f2661176e565b60008111610f4757604051632c7e767360e11b815260040160405180910390fd5b8060046000828254610f599190611a86565b90915550506040516323b872dd60e01b8152336004820152306024820152604481018290527f00000000000000000000000000000000000000000000000000000000000000006001600160a01b0316906323b872dd906064016020604051808303816000875af1158015610fd1573d6000803e3d6000fd5b505050506040513d601f19601f82011682018060405250810190610ff59190611a51565b50336000818152600b6020526040808220849055518392917f697042ef5da31e8cc8af5610bbeda31e034ff7c72945a28c25a38d2c7a38f5f591a361103a6001600055565b50565b600061104761176e565b845160000361106957604051630120cfa760e61b815260040160405180910390fd5b60025484108061107a575060035483115b1561109857604051634144687160e01b815260040160405180910390fd5b828411156110b95760405163d292434b60e01b815260040160405180910390fd5b6001600160a01b0382166110e057604051630fb38e4f60e31b815260040160405180910390fd5b600180549060006110f083611a99565b90915550506040805160808101825286815260208082018790528183018690526001600160a01b038516606083015260015460009081526008909152919091208151819061113e9082611b03565b506020828101516001838101919091556040808501516002850155606090940151600390930180546001600160a01b0319166001600160a01b0390941693909317909255336000818152600783528481208454815480870183559183529382200192909255915492517f9502d7618553b38b99edbe5d1547756cc9ab18db5ddd0674b051490ca4e2fb4c9190a3506001546111d96001600055565b949350505050565b606060008060008060086000878152602001908152602001600020604051806080016040529081600082018054611217906119f5565b80601f0160208091040260200160405190810160405280929190818152602001828054611243906119f5565b80156112905780601f1061126557610100808354040283529160200191611290565b820191906000526020600020905b81548152906001019060200180831161127357829003601f168201915b5050509183525050600182015460208083019190915260028301546040808401919091526003909301546001600160a01b0316606092830152835190840151928401519390910151909991985091965090945092505050565b6112f161176e565b7f00000000000000000000000000000000000000000000000000000000000000004210156113325760405163c62c35d560e01b815260040160405180910390fd5b60065460ff16611355576040516382f3861b60e01b815260040160405180910390fd5b336000908152600b6020526040812054908190036113865760405163dfe5dfe160e01b815260040160405180910390fd5b6004546005548082116113ac57604051630556dbdb60e51b815260040160405180910390fd5b60006113b88284611a73565b90506000836113cf86670de0b6b3a76400006119d8565b6113d99190611a2f565b90506000670de0b6b3a76400006113f084846119d8565b6113fa9190611a2f565b90508060000361141d57604051630a5a249f60e21b815260040160405180910390fd5b336000818152600b60205260408082208290555163a9059cbb60e01b8152600481019290925260248201839052906001600160a01b037f0000000000000000000000000000000000000000000000000000000000000000169063a9059cbb906044016020604051808303816000875af115801561149e573d6000803e3d6000fd5b505050506040513d601f19601f820116820180604052508101906114c29190611a51565b9050806114e257604051631de7d59160e21b815260040160405180910390fd5b60405182815233907f1e563d9e18af5db6fd44fc692df8325fdf25841bc9ba0ec5ea17f128b12766e39060200160405180910390a2505050505050506107a16001600055565b61153061176e565b6000811161155157604051632c7e767360e11b815260040160405180910390fd5b6040516370a0823160e01b815233600482015281907f00000000000000000000000000000000000000000000000000000000000000006001600160a01b0316906370a0823190602401602060405180830381865afa1580156115b7573d6000803e3d6000fd5b505050506040513d601f19601f820116820180604052508101906115db91906119a9565b10156115fa57604051632f27d51160e21b815260040160405180910390fd5b6040516323b872dd60e01b8152336004820152306024820152604481018290527f00000000000000000000000000000000000000000000000000000000000000006001600160a01b0316906323b872dd906064016020604051808303816000875af115801561166d573d6000803e3d6000fd5b505050506040513d601f19601f820116820180604052508101906116919190611a51565b506040516340c10f1960e01b8152336004820152602481018290527f00000000000000000000000000000000000000000000000000000000000000006001600160a01b0316906340c10f1990604401600060405180830381600087803b1580156116fa57600080fd5b505af115801561170e573d6000803e3d6000fd5b5050336000908152600a602052604081208054859450909250611732908490611a86565b9091555050604051819033907f0c3becdb286011bdfd6932f09baa4447106b6078f69fb6b49891a69b1541706490600090a361103a6001600055565b60026000540361179157604051633ee5aeb560e01b815260040160405180910390fd5b6002600055565b6000602082840312156117aa57600080fd5b5035919050565b80356001600160a01b03811681146105db57600080fd5b6000602082840312156117da57600080fd5b6117e3826117b1565b9392505050565b6020808252825182820181905260009190848201906040850190845b8181101561182257835183529284019291840191600101611806565b50909695505050505050565b6000806040838503121561184157600080fd5b50508035926020909101359150565b634e487b7160e01b600052604160045260246000fd5b6000806000806080858703121561187c57600080fd5b843567ffffffffffffffff8082111561189457600080fd5b818701915087601f8301126118a857600080fd5b8135818111156118ba576118ba611850565b604051601f8201601f19908116603f011681019083821181831017156118e2576118e2611850565b816040528281528a60208487010111156118fb57600080fd5b8260208601602083013760006020848301015280985050505050506020850135925060408501359150611930606086016117b1565b905092959194509250565b608081526000855180608084015260005b8181101561196957602081890181015160a086840101520161194c565b50600060a082850181019190915260208401969096526040830194909452506001600160a01b03919091166060820152601f909101601f19160101919050565b6000602082840312156119bb57600080fd5b5051919050565b634e487b7160e01b600052601160045260246000fd5b80820281158282048414176119ef576119ef6119c2565b92915050565b600181811c90821680611a0957607f821691505b602082108103611a2957634e487b7160e01b600052602260045260246000fd5b50919050565b600082611a4c57634e487b7160e01b600052601260045260246000fd5b500490565b600060208284031215611a6357600080fd5b815180151581146117e357600080fd5b818103818111156119ef576119ef6119c2565b808201808211156119ef576119ef6119c2565b600060018201611aab57611aab6119c2565b5060010190565b601f821115611afe576000816000526020600020601f850160051c81016020861015611adb5750805b601f850160051c820191505b81811015611afa57828155600101611ae7565b5050505b505050565b815167ffffffffffffffff811115611b1d57611b1d611850565b611b3181611b2b84546119f5565b84611ab2565b602080601f831160018114611b665760008415611b4e5750858301515b600019600386901b1c1916600185901b178555611afa565b600085815260208120601f198616915b82811015611b9557888601518255948401946001909101908401611b76565b5085821015611bb35787850151600019600388901b60f8161c191681555b5050505050600190811b0190555056fea26469706673582212203d1be38b8c3cd32b69625b06685904a1e50012f0df1bad3ec4395edf9ae6e01064736f6c63430008190033","linkReferences":{}},"methodIdentifiers":{"calculateFundingToBeReceived(uint256)":"0e392155","deposit(uint256)":"b6b55f25","distributeFunds()":"3a6a4d2e","getDeployer()":"72630531","getFundingToken()":"96c8370c","getMaxRequestableAmount()":"24bd06fc","getMinRequestableAmount()":"1cdb13d9","getProposal(uint256)":"c7f758a8","getProposalIdsByProposer(address)":"323bef09","getTallyDate()":"7770477d","getTotalBalanceAvailbleForDistribution()":"28e952a9","getTotalFundsDistributed()":"d5bd8d64","getTotalProposals()":"1a5007dd","getTotalVotingPowerTokensMinted()":"70467ecb","getTotalVotingPowerTokensUsed()":"7fa107c9","getVotingPowerOf(address)":"4595fbfc","getVotingPowerToken()":"31cbd295","getVotingToken()":"e28c3b19","register(uint256)":"f207564e","releaseVotingTokens()":"3644e2c2","submitProposal(string,uint256,uint256,address)":"bb39d1b9","voteOnProposal(uint256,uint256)":"556f6cc0","withdrawRemaining()":"ee38db95"},"id":32}