{"abi":[{"type":"constructor","inputs":[{"name":"_fundingToken","type":"address","internalType":"address"},{"name":"_votingToken","type":"address","internalType":"address"},{"name":"_votingPowerToken","type":"address","internalType":"address"},{"name":"_minRequestableAmount","type":"uint256","internalType":"uint256"},{"name":"_maxRequestableAmount","type":"uint256","internalType":"uint256"},{"name":"_tallyDate","type":"uint256","internalType":"uint256"},{"name":"_owner","type":"address","internalType":"address"}],"stateMutability":"nonpayable"},{"type":"function","name":"calculateFundingToBeReceived","inputs":[{"name":"_proposalId","type":"uint256","internalType":"uint256"}],"outputs":[{"name":"","type":"uint256","internalType":"uint256"}],"stateMutability":"view"},{"type":"function","name":"deposit","inputs":[{"name":"_amount","type":"uint256","internalType":"uint256"}],"outputs":[],"stateMutability":"nonpayable"},{"type":"function","name":"distributeFunds","inputs":[],"outputs":[],"stateMutability":"nonpayable"},{"type":"function","name":"getFundingToken","inputs":[],"outputs":[{"name":"","type":"address","internalType":"address"}],"stateMutability":"view"},{"type":"function","name":"getMaxRequestableAmount","inputs":[],"outputs":[{"name":"","type":"uint256","internalType":"uint256"}],"stateMutability":"view"},{"type":"function","name":"getMinRequestableAmount","inputs":[],"outputs":[{"name":"","type":"uint256","internalType":"uint256"}],"stateMutability":"view"},{"type":"function","name":"getProposal","inputs":[{"name":"_proposalId","type":"uint256","internalType":"uint256"}],"outputs":[{"name":"","type":"string","internalType":"string"},{"name":"","type":"uint256","internalType":"uint256"},{"name":"","type":"uint256","internalType":"uint256"},{"name":"","type":"address","internalType":"address"}],"stateMutability":"view"},{"type":"function","name":"getProposalIdsByProposer","inputs":[{"name":"_proposer","type":"address","internalType":"address"}],"outputs":[{"name":"","type":"uint256[]","internalType":"uint256[]"}],"stateMutability":"view"},{"type":"function","name":"getTallyDate","inputs":[],"outputs":[{"name":"","type":"uint256","internalType":"uint256"}],"stateMutability":"view"},{"type":"function","name":"getTotalBalanceAvailbleForDistribution","inputs":[],"outputs":[{"name":"","type":"uint256","internalType":"uint256"}],"stateMutability":"view"},{"type":"function","name":"getTotalProposals","inputs":[],"outputs":[{"name":"","type":"uint256","internalType":"uint256"}],"stateMutability":"view"},{"type":"function","name":"getTotalVotingPowerTokensMinted","inputs":[],"outputs":[{"name":"","type":"uint256","internalType":"uint256"}],"stateMutability":"view"},{"type":"function","name":"getTotalVotingPowerTokensUsed","inputs":[],"outputs":[{"name":"","type":"uint256","internalType":"uint256"}],"stateMutability":"view"},{"type":"function","name":"getVotingPowerOf","inputs":[{"name":"_voter","type":"address","internalType":"address"}],"outputs":[{"name":"","type":"uint256","internalType":"uint256"}],"stateMutability":"view"},{"type":"function","name":"getVotingPowerToken","inputs":[],"outputs":[{"name":"","type":"address","internalType":"address"}],"stateMutability":"view"},{"type":"function","name":"getVotingToken","inputs":[],"outputs":[{"name":"","type":"address","internalType":"address"}],"stateMutability":"view"},{"type":"function","name":"owner","inputs":[],"outputs":[{"name":"","type":"address","internalType":"address"}],"stateMutability":"view"},{"type":"function","name":"register","inputs":[{"name":"_amount","type":"uint256","internalType":"uint256"}],"outputs":[],"stateMutability":"nonpayable"},{"type":"function","name":"releaseVotingTokens","inputs":[],"outputs":[],"stateMutability":"nonpayable"},{"type":"function","name":"renounceOwnership","inputs":[],"outputs":[],"stateMutability":"nonpayable"},{"type":"function","name":"setMaxRequestableAmount","inputs":[{"name":"_maxRequestableAmount","type":"uint256","internalType":"uint256"}],"outputs":[],"stateMutability":"nonpayable"},{"type":"function","name":"setMinRequestableAmount","inputs":[{"name":"_minRequestableAmount","type":"uint256","internalType":"uint256"}],"outputs":[],"stateMutability":"nonpayable"},{"type":"function","name":"submitProposal","inputs":[{"name":"_metadata","type":"string","internalType":"string"},{"name":"_minimumAmount","type":"uint256","internalType":"uint256"},{"name":"_maximumAmount","type":"uint256","internalType":"uint256"},{"name":"_recipient","type":"address","internalType":"address"}],"outputs":[{"name":"","type":"uint256","internalType":"uint256"}],"stateMutability":"nonpayable"},{"type":"function","name":"transferOwnership","inputs":[{"name":"newOwner","type":"address","internalType":"address"}],"outputs":[],"stateMutability":"nonpayable"},{"type":"function","name":"voteOnProposal","inputs":[{"name":"_proposalId","type":"uint256","internalType":"uint256"},{"name":"_amount","type":"uint256","internalType":"uint256"}],"outputs":[],"stateMutability":"nonpayable"},{"type":"event","name":"FundingTokenDeposited","inputs":[{"name":"from","type":"address","indexed":true,"internalType":"address"},{"name":"amount","type":"uint256","indexed":true,"internalType":"uint256"}],"anonymous":false},{"type":"event","name":"FundsDistributed","inputs":[{"name":"proposalId","type":"uint256","indexed":true,"internalType":"uint256"},{"name":"recipient","type":"address","indexed":true,"internalType":"address"},{"name":"amount","type":"uint256","indexed":true,"internalType":"uint256"}],"anonymous":false},{"type":"event","name":"OwnershipTransferred","inputs":[{"name":"previousOwner","type":"address","indexed":true,"internalType":"address"},{"name":"newOwner","type":"address","indexed":true,"internalType":"address"}],"anonymous":false},{"type":"event","name":"ProposalSubmitted","inputs":[{"name":"proposer","type":"address","indexed":true,"internalType":"address"},{"name":"proposalId","type":"uint256","indexed":true,"internalType":"uint256"}],"anonymous":false},{"type":"event","name":"RegisteredVoter","inputs":[{"name":"voter","type":"address","indexed":true,"internalType":"address"},{"name":"amount","type":"uint256","indexed":true,"internalType":"uint256"}],"anonymous":false},{"type":"event","name":"ReleasedTokens","inputs":[{"name":"voter","type":"address","indexed":true,"internalType":"address"},{"name":"amount","type":"uint256","indexed":true,"internalType":"uint256"}],"anonymous":false},{"type":"event","name":"VotedOnProposal","inputs":[{"name":"voter","type":"address","indexed":true,"internalType":"address"},{"name":"proposalId","type":"uint256","indexed":true,"internalType":"uint256"},{"name":"amount","type":"uint256","indexed":true,"internalType":"uint256"}],"anonymous":false},{"type":"error","name":"FundingVault__AlreadyDistributedFunds","inputs":[]},{"type":"error","name":"FundingVault__AlreadyVoted","inputs":[]},{"type":"error","name":"FundingVault__AmountCannotBeZero","inputs":[]},{"type":"error","name":"FundingVault__AmountExceededsLimit","inputs":[]},{"type":"error","name":"FundingVault__CannotBeAZeroAddress","inputs":[]},{"type":"error","name":"FundingVault__MaxRequestableAmountCannotBeLessThanMinRequestableAmount","inputs":[]},{"type":"error","name":"FundingVault__MetadataCannotBeEmpty","inputs":[]},{"type":"error","name":"FundingVault__MinRequestableAmountCannotBeGreaterThanMaxRequestableAmount","inputs":[]},{"type":"error","name":"FundingVault__NoVotingPowerTokenMinted","inputs":[]},{"type":"error","name":"FundingVault__NotEnoughBalance","inputs":[]},{"type":"error","name":"FundingVault__ProposalDoesNotExist","inputs":[]},{"type":"error","name":"FundingVault__TallyDateNotPassed","inputs":[]},{"type":"error","name":"FundingVault__TransferFailed","inputs":[]},{"type":"error","name":"OwnableInvalidOwner","inputs":[{"name":"owner","type":"address","internalType":"address"}]},{"type":"error","name":"OwnableUnauthorizedAccount","inputs":[{"name":"account","type":"address","internalType":"address"}]},{"type":"error","name":"ReentrancyGuardReentrantCall","inputs":[]}],"bytecode":{"object":"0x61010060405234801561001157600080fd5b50604051611b37380380611b3783398101604081905261003091610113565b806001600160a01b03811661005f57604051631e4fbdf760e01b81526000600482015260240160405180910390fd5b610068816100a7565b50506001805560e0526001600160a01b0394851660805292841660a052921660c05260039190915560045560006005556006805460ff19169055610184565b600080546001600160a01b038381166001600160a01b0319831681178455604051919092169283917f8be0079c531659141344cd1fd0a4f28419497f9722a3daafe3b4186f6b6457e09190a35050565b80516001600160a01b038116811461010e57600080fd5b919050565b600080600080600080600060e0888a03121561012e57600080fd5b610137886100f7565b9650610145602089016100f7565b9550610153604089016100f7565b9450606088015193506080880151925060a0880151915061017660c089016100f7565b905092959891949750929550565b60805160a05160c05160e05161191861021f600039600081816102780152818161039a0152818161069801526107ee0152600081816101c00152818161040901528181610ad601528181610b8e01528181610c6801528181610d17015261131101526000818161034c0152818161073d015281816111cb015261127f0152600081816102ca015281816109880152610e2701526119186000f3fe608060405234801561001057600080fd5b50600436106101735760003560e01c8063715018a6116100de578063b5e8cc2a11610097578063c7f758a811610071578063c7f758a814610327578063e28c3b191461034a578063f207564e14610370578063f2fde38b1461038357600080fd5b8063b5e8cc2a146102ee578063b6b55f2514610301578063bb39d1b91461031457600080fd5b8063715018a61461026e5780637770477d146102765780637fa107c91461029c5780638c8e39ec146102a45780638da5cb5b146102b757806396c8370c146102c857600080fd5b8063323bef0911610130578063323bef09146101f85780633644e2c2146102185780633a6a4d2e146102225780634595fbfc1461022a578063556f6cc01461025357806370467ecb1461026657600080fd5b80630e392155146101785780631a5007dd1461019e5780631cdb13d9146101a657806324bd06fc146101ae57806328e952a9146101b657806331cbd295146101be575b600080fd5b61018b6101863660046114b7565b610396565b6040519081526020015b60405180910390f35b60025461018b565b60035461018b565b60045461018b565b60055461018b565b7f00000000000000000000000000000000000000000000000000000000000000005b6040516001600160a01b039091168152602001610195565b61020b6102063660046114e7565b610622565b6040516101959190611509565b61022061068e565b005b6102206107e4565b61018b6102383660046114e7565b6001600160a01b03166000908152600a602052604090205490565b61022061026136600461154d565b610a8a565b61018b610c64565b610220610ced565b7f000000000000000000000000000000000000000000000000000000000000000061018b565b61018b610cff565b6102206102b23660046114b7565b610d66565b6000546001600160a01b03166101e0565b7f00000000000000000000000000000000000000000000000000000000000000006101e0565b6102206102fc3660046114b7565b610d96565b61022061030f3660046114b7565b610dc5565b61018b610322366004611585565b610ed6565b61033a6103353660046114b7565b611083565b604051610195949392919061165a565b7f00000000000000000000000000000000000000000000000000000000000000006101e0565b61022061037e3660046114b7565b61118b565b6102206103913660046114e7565b6113d0565b60007f00000000000000000000000000000000000000000000000000000000000000004210156103d95760405163c62c35d560e01b815260040160405180910390fd5b8115806103e7575060025482115b1561040557604051630a54249560e01b815260040160405180910390fd5b60007f00000000000000000000000000000000000000000000000000000000000000006001600160a01b03166318160ddd6040518163ffffffff1660e01b8152600401602060405180830381865afa158015610465573d6000803e3d6000fd5b505050506040513d601f19601f8201168201806040525081019061048991906116c8565b9050806000036104ac57604051633161f99760e11b815260040160405180910390fd5b6000838152600960205260408120546104cd90670de0b6b3a76400006116f7565b90506000600860008681526020019081526020016000206040518060800160405290816000820180546104ff90611714565b80601f016020809104026020016040519081016040528092919081815260200182805461052b90611714565b80156105785780601f1061054d57610100808354040283529160200191610578565b820191906000526020600020905b81548152906001019060200180831161055b57829003601f168201915b505050918352505060018201546020820152600282015460408201526003909101546001600160a01b031660609091015290506000670de0b6b3a76400006105c0858561174e565b6005546105cd91906116f7565b6105d7919061174e565b6020830151909150811080159061061057826040015182111561060457505060400151925061061d915050565b50935061061d92505050565b5060009695505050505050565b919050565b6001600160a01b03811660009081526007602090815260409182902080548351818402810184019094528084526060939283018282801561068257602002820191906000526020600020905b81548152602001906001019080831161066e575b50505050509050919050565b610696611410565b7f00000000000000000000000000000000000000000000000000000000000000004210156106d75760405163c62c35d560e01b815260040160405180910390fd5b336000908152600a60205260409020548061070557604051632c7e767360e11b815260040160405180910390fd5b336000818152600a6020526040808220919091555163a9059cbb60e01b81526004810191909152602481018290526001600160a01b037f0000000000000000000000000000000000000000000000000000000000000000169063a9059cbb906044016020604051808303816000875af1158015610786573d6000803e3d6000fd5b505050506040513d601f19601f820116820180604052508101906107aa9190611770565b50604051819033907fada8b88f0652690c97e2c67433a0d69ead55259f8d2037887cd88d0db849e20890600090a3506107e260018055565b565b6107ec611410565b7f000000000000000000000000000000000000000000000000000000000000000042101561082d5760405163c62c35d560e01b815260040160405180910390fd5b60065460ff161561085157604051632df64c7d60e21b815260040160405180910390fd5b6006805460ff191660019081179091555b6002548111610a8057600061087682610396565b90506000600860008481526020019081526020016000206040518060800160405290816000820180546108a890611714565b80601f01602080910402602001604051908101604052809291908181526020018280546108d490611714565b80156109215780601f106108f657610100808354040283529160200191610921565b820191906000526020600020905b81548152906001019060200180831161090457829003601f168201915b505050918352505060018201546020820152600282015460408201526003909101546001600160a01b031660609091015290508115610a6b57606081015160405163a9059cbb60e01b81526001600160a01b039182166004820152602481018490526000917f0000000000000000000000000000000000000000000000000000000000000000169063a9059cbb906044016020604051808303816000875af11580156109d1573d6000803e3d6000fd5b505050506040513d601f19601f820116820180604052508101906109f59190611770565b90508260056000828254610a099190611792565b90915550819050610a2d57604051631de7d59160e21b815260040160405180910390fd5b8282606001516001600160a01b0316857f9f5926601e7fc353505f05fae61282ae5d67b716f95656849456e6aa7bbbbb5f60405160405180910390a4505b50508080610a78906117a5565b915050610862565b506107e260018055565b610a92611410565b811580610aa0575060025482115b15610abe57604051630a54249560e01b815260040160405180910390fd5b6040516370a0823160e01b81523360048201526000907f00000000000000000000000000000000000000000000000000000000000000006001600160a01b0316906370a0823190602401602060405180830381865afa158015610b25573d6000803e3d6000fd5b505050506040513d601f19601f82011682018060405250810190610b4991906116c8565b905080821115610b6c57604051634144687160e01b815260040160405180910390fd5b6040516323b872dd60e01b8152336004820152306024820152604481018390527f00000000000000000000000000000000000000000000000000000000000000006001600160a01b0316906323b872dd906064016020604051808303816000875af1158015610bdf573d6000803e3d6000fd5b505050506040513d601f19601f82011682018060405250810190610c039190611770565b5060008381526009602052604081208054849290610c229084906117be565b90915550506040518290849033907f4f320d0dd50d47ce5b5d001a0fc303f39b669f9e6adf87bcf899dc4a2b9a80cd90600090a450610c6060018055565b5050565b60007f00000000000000000000000000000000000000000000000000000000000000006001600160a01b03166318160ddd6040518163ffffffff1660e01b8152600401602060405180830381865afa158015610cc4573d6000803e3d6000fd5b505050506040513d601f19601f82011682018060405250810190610ce891906116c8565b905090565b610cf561143a565b6107e26000611467565b6040516370a0823160e01b81523060048201526000907f00000000000000000000000000000000000000000000000000000000000000006001600160a01b0316906370a0823190602401602060405180830381865afa158015610cc4573d6000803e3d6000fd5b610d6e61143a565b600454811115610d915760405163d292434b60e01b815260040160405180910390fd5b600355565b610d9e61143a565b6003548111610dc057604051632193c39560e21b815260040160405180910390fd5b600455565b610dcd611410565b60008111610dee57604051632c7e767360e11b815260040160405180910390fd5b8060056000828254610e0091906117be565b90915550506040516323b872dd60e01b8152336004820152306024820152604481018290527f00000000000000000000000000000000000000000000000000000000000000006001600160a01b0316906323b872dd906064016020604051808303816000875af1158015610e78573d6000803e3d6000fd5b505050506040513d601f19601f82011682018060405250810190610e9c9190611770565b50604051819033907f697042ef5da31e8cc8af5610bbeda31e034ff7c72945a28c25a38d2c7a38f5f590600090a3610ed360018055565b50565b6000610ee0611410565b8451600003610f0257604051630120cfa760e61b815260040160405180910390fd5b600354841080610f13575060045483115b15610f3157604051634144687160e01b815260040160405180910390fd5b82841115610f525760405163d292434b60e01b815260040160405180910390fd5b6001600160a01b038216610f7957604051630fb38e4f60e31b815260040160405180910390fd5b60028054906000610f89836117a5565b90915550506040805160808101825286815260208082018790528183018690526001600160a01b0385166060830152600254600090815260089091529190912081518190610fd79082611822565b50602082810151600183810191909155604080850151600280860191909155606090950151600390940180546001600160a01b0319166001600160a01b0390951694909417909355336000818152600784528481208654815494850182559082529381209092019290925592549151919290917f9502d7618553b38b99edbe5d1547756cc9ab18db5ddd0674b051490ca4e2fb4c9190a35060025461107b60018055565b949350505050565b6060600080600080600860008781526020019081526020016000206040518060800160405290816000820180546110b990611714565b80601f01602080910402602001604051908101604052809291908181526020018280546110e590611714565b80156111325780601f1061110757610100808354040283529160200191611132565b820191906000526020600020905b81548152906001019060200180831161111557829003601f168201915b5050509183525050600182015460208083019190915260028301546040808401919091526003909301546001600160a01b0316606092830152835190840151928401519390910151909991985091965090945092505050565b611193611410565b600081116111b457604051632c7e767360e11b815260040160405180910390fd5b6040516370a0823160e01b815233600482015281907f00000000000000000000000000000000000000000000000000000000000000006001600160a01b0316906370a0823190602401602060405180830381865afa15801561121a573d6000803e3d6000fd5b505050506040513d601f19601f8201168201806040525081019061123e91906116c8565b101561125d57604051632f27d51160e21b815260040160405180910390fd5b6040516323b872dd60e01b8152336004820152306024820152604481018290527f00000000000000000000000000000000000000000000000000000000000000006001600160a01b0316906323b872dd906064016020604051808303816000875af11580156112d0573d6000803e3d6000fd5b505050506040513d601f19601f820116820180604052508101906112f49190611770565b506040516340c10f1960e01b8152336004820152602481018290527f00000000000000000000000000000000000000000000000000000000000000006001600160a01b0316906340c10f1990604401600060405180830381600087803b15801561135d57600080fd5b505af1158015611371573d6000803e3d6000fd5b5050336000908152600a6020526040812080548594509092506113959084906117be565b9091555050604051819033907f0c3becdb286011bdfd6932f09baa4447106b6078f69fb6b49891a69b1541706490600090a3610ed360018055565b6113d861143a565b6001600160a01b03811661140757604051631e4fbdf760e01b8152600060048201526024015b60405180910390fd5b610ed381611467565b60026001540361143357604051633ee5aeb560e01b815260040160405180910390fd5b6002600155565b6000546001600160a01b031633146107e25760405163118cdaa760e01b81523360048201526024016113fe565b600080546001600160a01b038381166001600160a01b0319831681178455604051919092169283917f8be0079c531659141344cd1fd0a4f28419497f9722a3daafe3b4186f6b6457e09190a35050565b6000602082840312156114c957600080fd5b5035919050565b80356001600160a01b038116811461061d57600080fd5b6000602082840312156114f957600080fd5b611502826114d0565b9392505050565b6020808252825182820181905260009190848201906040850190845b8181101561154157835183529284019291840191600101611525565b50909695505050505050565b6000806040838503121561156057600080fd5b50508035926020909101359150565b634e487b7160e01b600052604160045260246000fd5b6000806000806080858703121561159b57600080fd5b843567ffffffffffffffff808211156115b357600080fd5b818701915087601f8301126115c757600080fd5b8135818111156115d9576115d961156f565b604051601f8201601f19908116603f011681019083821181831017156116015761160161156f565b816040528281528a602084870101111561161a57600080fd5b826020860160208301376000602084830101528098505050505050602085013592506040850135915061164f606086016114d0565b905092959194509250565b608081526000855180608084015260005b8181101561168857602081890181015160a086840101520161166b565b50600060a082850181019190915260208401969096526040830194909452506001600160a01b03919091166060820152601f909101601f19160101919050565b6000602082840312156116da57600080fd5b5051919050565b634e487b7160e01b600052601160045260246000fd5b808202811582820484141761170e5761170e6116e1565b92915050565b600181811c9082168061172857607f821691505b60208210810361174857634e487b7160e01b600052602260045260246000fd5b50919050565b60008261176b57634e487b7160e01b600052601260045260246000fd5b500490565b60006020828403121561178257600080fd5b8151801515811461150257600080fd5b8181038181111561170e5761170e6116e1565b6000600182016117b7576117b76116e1565b5060010190565b8082018082111561170e5761170e6116e1565b601f82111561181d576000816000526020600020601f850160051c810160208610156117fa5750805b601f850160051c820191505b8181101561181957828155600101611806565b5050505b505050565b815167ffffffffffffffff81111561183c5761183c61156f565b6118508161184a8454611714565b846117d1565b602080601f831160018114611885576000841561186d5750858301515b600019600386901b1c1916600185901b178555611819565b600085815260208120601f198616915b828110156118b457888601518255948401946001909101908401611895565b50858210156118d25787850151600019600388901b60f8161c191681555b5050505050600190811b0190555056fea2646970667358221220d4e29449a8646e1f83bac3f52ad7dbc131709fe02d3ef4bdc158a2d8c9b4370064736f6c63430008190033","linkReferences":{}},"methodIdentifiers":{"calculateFundingToBeReceived(uint256)":"0e392155","deposit(uint256)":"b6b55f25","distributeFunds()":"3a6a4d2e","getFundingToken()":"96c8370c","getMaxRequestableAmount()":"24bd06fc","getMinRequestableAmount()":"1cdb13d9","getProposal(uint256)":"c7f758a8","getProposalIdsByProposer(address)":"323bef09","getTallyDate()":"7770477d","getTotalBalanceAvailbleForDistribution()":"28e952a9","getTotalProposals()":"1a5007dd","getTotalVotingPowerTokensMinted()":"70467ecb","getTotalVotingPowerTokensUsed()":"7fa107c9","getVotingPowerOf(address)":"4595fbfc","getVotingPowerToken()":"31cbd295","getVotingToken()":"e28c3b19","owner()":"8da5cb5b","register(uint256)":"f207564e","releaseVotingTokens()":"3644e2c2","renounceOwnership()":"715018a6","setMaxRequestableAmount(uint256)":"b5e8cc2a","setMinRequestableAmount(uint256)":"8c8e39ec","submitProposal(string,uint256,uint256,address)":"bb39d1b9","transferOwnership(address)":"f2fde38b","voteOnProposal(uint256,uint256)":"556f6cc0"},"id":32}