{
    "abi": [
        {
            "type": "constructor",
            "inputs": [
                {
                    "name": "_fundingToken",
                    "type": "address",
                    "internalType": "address"
                },
                {
                    "name": "_votingToken",
                    "type": "address",
                    "internalType": "address"
                },
                {
                    "name": "_votingPowerToken",
                    "type": "address",
                    "internalType": "address"
                },
                {
                    "name": "_minRequestableAmount",
                    "type": "uint256",
                    "internalType": "uint256"
                },
                {
                    "name": "_maxRequestableAmount",
                    "type": "uint256",
                    "internalType": "uint256"
                },
                {
                    "name": "_tallyDate",
                    "type": "uint256",
                    "internalType": "uint256"
                },
                {
                    "name": "_owner",
                    "type": "address",
                    "internalType": "address"
                }
            ],
            "stateMutability": "nonpayable"
        },
        {
            "type": "function",
            "name": "calculateFundingToBeReceived",
            "inputs": [
                {
                    "name": "_proposalId",
                    "type": "uint256",
                    "internalType": "uint256"
                }
            ],
            "outputs": [
                {
                    "name": "",
                    "type": "uint256",
                    "internalType": "uint256"
                }
            ],
            "stateMutability": "view"
        },
        {
            "type": "function",
            "name": "deposit",
            "inputs": [
                {
                    "name": "_amount",
                    "type": "uint256",
                    "internalType": "uint256"
                }
            ],
            "outputs": [],
            "stateMutability": "nonpayable"
        },
        {
            "type": "function",
            "name": "distributeFunds",
            "inputs": [],
            "outputs": [],
            "stateMutability": "nonpayable"
        },
        {
            "type": "function",
            "name": "getFundingToken",
            "inputs": [],
            "outputs": [
                {
                    "name": "",
                    "type": "address",
                    "internalType": "address"
                }
            ],
            "stateMutability": "view"
        },
        {
            "type": "function",
            "name": "getMaxRequestableAmount",
            "inputs": [],
            "outputs": [
                {
                    "name": "",
                    "type": "uint256",
                    "internalType": "uint256"
                }
            ],
            "stateMutability": "view"
        },
        {
            "type": "function",
            "name": "getMinRequestableAmount",
            "inputs": [],
            "outputs": [
                {
                    "name": "",
                    "type": "uint256",
                    "internalType": "uint256"
                }
            ],
            "stateMutability": "view"
        },
        {
            "type": "function",
            "name": "getProposal",
            "inputs": [
                {
                    "name": "_proposalId",
                    "type": "uint256",
                    "internalType": "uint256"
                }
            ],
            "outputs": [
                {
                    "name": "",
                    "type": "string",
                    "internalType": "string"
                },
                {
                    "name": "",
                    "type": "uint256",
                    "internalType": "uint256"
                },
                {
                    "name": "",
                    "type": "uint256",
                    "internalType": "uint256"
                },
                {
                    "name": "",
                    "type": "address",
                    "internalType": "address"
                }
            ],
            "stateMutability": "view"
        },
        {
            "type": "function",
            "name": "getProposalIdsByProposer",
            "inputs": [
                {
                    "name": "_proposer",
                    "type": "address",
                    "internalType": "address"
                }
            ],
            "outputs": [
                {
                    "name": "",
                    "type": "uint256[]",
                    "internalType": "uint256[]"
                }
            ],
            "stateMutability": "view"
        },
        {
            "type": "function",
            "name": "getTallyDate",
            "inputs": [],
            "outputs": [
                {
                    "name": "",
                    "type": "uint256",
                    "internalType": "uint256"
                }
            ],
            "stateMutability": "view"
        },
        {
            "type": "function",
            "name": "getTotalBalanceAvailbleForDistribution",
            "inputs": [],
            "outputs": [
                {
                    "name": "",
                    "type": "uint256",
                    "internalType": "uint256"
                }
            ],
            "stateMutability": "view"
        },
        {
            "type": "function",
            "name": "getTotalFundsDistributed",
            "inputs": [],
            "outputs": [
                {
                    "name": "",
                    "type": "uint256",
                    "internalType": "uint256"
                }
            ],
            "stateMutability": "view"
        },
        {
            "type": "function",
            "name": "getTotalProposals",
            "inputs": [],
            "outputs": [
                {
                    "name": "",
                    "type": "uint256",
                    "internalType": "uint256"
                }
            ],
            "stateMutability": "view"
        },
        {
            "type": "function",
            "name": "getTotalVotingPowerTokensMinted",
            "inputs": [],
            "outputs": [
                {
                    "name": "",
                    "type": "uint256",
                    "internalType": "uint256"
                }
            ],
            "stateMutability": "view"
        },
        {
            "type": "function",
            "name": "getTotalVotingPowerTokensUsed",
            "inputs": [],
            "outputs": [
                {
                    "name": "",
                    "type": "uint256",
                    "internalType": "uint256"
                }
            ],
            "stateMutability": "view"
        },
        {
            "type": "function",
            "name": "getVotingPowerOf",
            "inputs": [
                {
                    "name": "_voter",
                    "type": "address",
                    "internalType": "address"
                }
            ],
            "outputs": [
                {
                    "name": "",
                    "type": "uint256",
                    "internalType": "uint256"
                }
            ],
            "stateMutability": "view"
        },
        {
            "type": "function",
            "name": "getVotingPowerToken",
            "inputs": [],
            "outputs": [
                {
                    "name": "",
                    "type": "address",
                    "internalType": "address"
                }
            ],
            "stateMutability": "view"
        },
        {
            "type": "function",
            "name": "getVotingToken",
            "inputs": [],
            "outputs": [
                {
                    "name": "",
                    "type": "address",
                    "internalType": "address"
                }
            ],
            "stateMutability": "view"
        },
        {
            "type": "function",
            "name": "owner",
            "inputs": [],
            "outputs": [
                {
                    "name": "",
                    "type": "address",
                    "internalType": "address"
                }
            ],
            "stateMutability": "view"
        },
        {
            "type": "function",
            "name": "register",
            "inputs": [
                {
                    "name": "_amount",
                    "type": "uint256",
                    "internalType": "uint256"
                }
            ],
            "outputs": [],
            "stateMutability": "nonpayable"
        },
        {
            "type": "function",
            "name": "releaseVotingTokens",
            "inputs": [],
            "outputs": [],
            "stateMutability": "nonpayable"
        },
        {
            "type": "function",
            "name": "renounceOwnership",
            "inputs": [],
            "outputs": [],
            "stateMutability": "nonpayable"
        },
        {
            "type": "function",
            "name": "setMaxRequestableAmount",
            "inputs": [
                {
                    "name": "_maxRequestableAmount",
                    "type": "uint256",
                    "internalType": "uint256"
                }
            ],
            "outputs": [],
            "stateMutability": "nonpayable"
        },
        {
            "type": "function",
            "name": "setMinRequestableAmount",
            "inputs": [
                {
                    "name": "_minRequestableAmount",
                    "type": "uint256",
                    "internalType": "uint256"
                }
            ],
            "outputs": [],
            "stateMutability": "nonpayable"
        },
        {
            "type": "function",
            "name": "submitProposal",
            "inputs": [
                {
                    "name": "_metadata",
                    "type": "string",
                    "internalType": "string"
                },
                {
                    "name": "_minimumAmount",
                    "type": "uint256",
                    "internalType": "uint256"
                },
                {
                    "name": "_maximumAmount",
                    "type": "uint256",
                    "internalType": "uint256"
                },
                {
                    "name": "_recipient",
                    "type": "address",
                    "internalType": "address"
                }
            ],
            "outputs": [
                {
                    "name": "",
                    "type": "uint256",
                    "internalType": "uint256"
                }
            ],
            "stateMutability": "nonpayable"
        },
        {
            "type": "function",
            "name": "transferOwnership",
            "inputs": [
                {
                    "name": "newOwner",
                    "type": "address",
                    "internalType": "address"
                }
            ],
            "outputs": [],
            "stateMutability": "nonpayable"
        },
        {
            "type": "function",
            "name": "voteOnProposal",
            "inputs": [
                {
                    "name": "_proposalId",
                    "type": "uint256",
                    "internalType": "uint256"
                },
                {
                    "name": "_amount",
                    "type": "uint256",
                    "internalType": "uint256"
                }
            ],
            "outputs": [],
            "stateMutability": "nonpayable"
        },
        {
            "type": "function",
            "name": "withdrawRemaining",
            "inputs": [],
            "outputs": [],
            "stateMutability": "nonpayable"
        },
        {
            "type": "event",
            "name": "FundingTokenDeposited",
            "inputs": [
                {
                    "name": "from",
                    "type": "address",
                    "indexed": true,
                    "internalType": "address"
                },
                {
                    "name": "amount",
                    "type": "uint256",
                    "indexed": true,
                    "internalType": "uint256"
                }
            ],
            "anonymous": false
        },
        {
            "type": "event",
            "name": "FundsDistributed",
            "inputs": [
                {
                    "name": "proposalId",
                    "type": "uint256",
                    "indexed": true,
                    "internalType": "uint256"
                },
                {
                    "name": "recipient",
                    "type": "address",
                    "indexed": true,
                    "internalType": "address"
                },
                {
                    "name": "amount",
                    "type": "uint256",
                    "indexed": true,
                    "internalType": "uint256"
                }
            ],
            "anonymous": false
        },
        {
            "type": "event",
            "name": "OwnershipTransferred",
            "inputs": [
                {
                    "name": "previousOwner",
                    "type": "address",
                    "indexed": true,
                    "internalType": "address"
                },
                {
                    "name": "newOwner",
                    "type": "address",
                    "indexed": true,
                    "internalType": "address"
                }
            ],
            "anonymous": false
        },
        {
            "type": "event",
            "name": "ProposalSubmitted",
            "inputs": [
                {
                    "name": "proposer",
                    "type": "address",
                    "indexed": true,
                    "internalType": "address"
                },
                {
                    "name": "proposalId",
                    "type": "uint256",
                    "indexed": true,
                    "internalType": "uint256"
                }
            ],
            "anonymous": false
        },
        {
            "type": "event",
            "name": "RegisteredVoter",
            "inputs": [
                {
                    "name": "voter",
                    "type": "address",
                    "indexed": true,
                    "internalType": "address"
                },
                {
                    "name": "amount",
                    "type": "uint256",
                    "indexed": true,
                    "internalType": "uint256"
                }
            ],
            "anonymous": false
        },
        {
            "type": "event",
            "name": "ReleasedTokens",
            "inputs": [
                {
                    "name": "voter",
                    "type": "address",
                    "indexed": true,
                    "internalType": "address"
                },
                {
                    "name": "amount",
                    "type": "uint256",
                    "indexed": true,
                    "internalType": "uint256"
                }
            ],
            "anonymous": false
        },
        {
            "type": "event",
            "name": "RemainingFundsWithdrawn",
            "inputs": [
                {
                    "name": "user",
                    "type": "address",
                    "indexed": true,
                    "internalType": "address"
                },
                {
                    "name": "amount",
                    "type": "uint256",
                    "indexed": false,
                    "internalType": "uint256"
                }
            ],
            "anonymous": false
        },
        {
            "type": "event",
            "name": "VotedOnProposal",
            "inputs": [
                {
                    "name": "voter",
                    "type": "address",
                    "indexed": true,
                    "internalType": "address"
                },
                {
                    "name": "proposalId",
                    "type": "uint256",
                    "indexed": true,
                    "internalType": "uint256"
                },
                {
                    "name": "amount",
                    "type": "uint256",
                    "indexed": true,
                    "internalType": "uint256"
                }
            ],
            "anonymous": false
        },
        {
            "type": "error",
            "name": "FundingVault__AlreadyDistributedFunds",
            "inputs": []
        },
        {
            "type": "error",
            "name": "FundingVault__AlreadyVoted",
            "inputs": []
        },
        {
            "type": "error",
            "name": "FundingVault__AmountCannotBeZero",
            "inputs": []
        },
        {
            "type": "error",
            "name": "FundingVault__AmountExceededsLimit",
            "inputs": []
        },
        {
            "type": "error",
            "name": "FundingVault__CannotBeAZeroAddress",
            "inputs": []
        },
        {
            "type": "error",
            "name": "FundingVault__FundsNotDistributedYet",
            "inputs": []
        },
        {
            "type": "error",
            "name": "FundingVault__MaxRequestableAmountCannotBeLessThanMinRequestableAmount",
            "inputs": []
        },
        {
            "type": "error",
            "name": "FundingVault__MetadataCannotBeEmpty",
            "inputs": []
        },
        {
            "type": "error",
            "name": "FundingVault__MinRequestableAmountCannotBeGreaterThanMaxRequestableAmount",
            "inputs": []
        },
        {
            "type": "error",
            "name": "FundingVault__NoFundsToWithdraw",
            "inputs": []
        },
        {
            "type": "error",
            "name": "FundingVault__NoRemainingFundsToWithdraw",
            "inputs": []
        },
        {
            "type": "error",
            "name": "FundingVault__NoVotingPowerTokenMinted",
            "inputs": []
        },
        {
            "type": "error",
            "name": "FundingVault__NotEnoughBalance",
            "inputs": []
        },
        {
            "type": "error",
            "name": "FundingVault__ProposalDoesNotExist",
            "inputs": []
        },
        {
            "type": "error",
            "name": "FundingVault__TallyDateNotPassed",
            "inputs": []
        },
        {
            "type": "error",
            "name": "FundingVault__TransferFailed",
            "inputs": []
        },
        {
            "type": "error",
            "name": "FundingVault__WithdrawableAmountTooSmall",
            "inputs": []
        },
        {
            "type": "error",
            "name": "OwnableInvalidOwner",
            "inputs": [
                {
                    "name": "owner",
                    "type": "address",
                    "internalType": "address"
                }
            ]
        },
        {
            "type": "error",
            "name": "OwnableUnauthorizedAccount",
            "inputs": [
                {
                    "name": "account",
                    "type": "address",
                    "internalType": "address"
                }
            ]
        },
        {
            "type": "error",
            "name": "ReentrancyGuardReentrantCall",
            "inputs": []
        }
    ],
    "bytecode": {
        "object": "0x61010060405234801561001157600080fd5b50604051611dda380380611dda83398101604081905261003091610118565b806001600160a01b03811661005f57604051631e4fbdf760e01b81526000600482015260240160405180910390fd5b610068816100ac565b50506001805560e0526001600160a01b0394851660805292841660a052921660c052600391909155600455600060058190556006556007805460ff19169055610189565b600080546001600160a01b038381166001600160a01b0319831681178455604051919092169283917f8be0079c531659141344cd1fd0a4f28419497f9722a3daafe3b4186f6b6457e09190a35050565b80516001600160a01b038116811461011357600080fd5b919050565b600080600080600080600060e0888a03121561013357600080fd5b61013c886100fc565b965061014a602089016100fc565b9550610158604089016100fc565b9450606088015193506080880151925060a0880151915061017b60c089016100fc565b905092959891949750929550565b60805160a05160c05160e051611ba8610232600039600081816102ae015281816103e0015281816106de0152818161083401526111e70152600081816101f60152818161044f01528181610b1b01528181610bd301528181610cad01528181610d5c01526115a101526000818161038a015281816107830152818161145b015261150f015260008181610300015281816109ce01528181610e6c01526113490152611ba86000f3fe608060405234801561001057600080fd5b50600436106101a95760003560e01c80637770477d116100f9578063bb39d1b911610097578063e28c3b1911610071578063e28c3b1914610388578063ee38db95146103ae578063f207564e146103b6578063f2fde38b146103c957600080fd5b8063bb39d1b91461034a578063c7f758a81461035d578063d5bd8d641461038057600080fd5b80638da5cb5b116100d35780638da5cb5b146102ed57806396c8370c146102fe578063b5e8cc2a14610324578063b6b55f251461033757600080fd5b80637770477d146102ac5780637fa107c9146102d25780638c8e39ec146102da57600080fd5b8063323bef09116101665780634595fbfc116101405780634595fbfc14610260578063556f6cc01461028957806370467ecb1461029c578063715018a6146102a457600080fd5b8063323bef091461022e5780633644e2c21461024e5780633a6a4d2e1461025857600080fd5b80630e392155146101ae5780631a5007dd146101d45780631cdb13d9146101dc57806324bd06fc146101e457806328e952a9146101ec57806331cbd295146101f4575b600080fd5b6101c16101bc366004611747565b6103dc565b6040519081526020015b60405180910390f35b6002546101c1565b6003546101c1565b6004546101c1565b6005546101c1565b7f00000000000000000000000000000000000000000000000000000000000000005b6040516001600160a01b0390911681526020016101cb565b61024161023c366004611777565b610668565b6040516101cb9190611799565b6102566106d4565b005b61025661082a565b6101c161026e366004611777565b6001600160a01b03166000908152600b602052604090205490565b6102566102973660046117dd565b610acf565b6101c1610ca9565b610256610d32565b7f00000000000000000000000000000000000000000000000000000000000000006101c1565b6101c1610d44565b6102566102e8366004611747565b610dab565b6000546001600160a01b0316610216565b7f0000000000000000000000000000000000000000000000000000000000000000610216565b610256610332366004611747565b610ddb565b610256610345366004611747565b610e0a565b6101c1610358366004611815565b610f28565b61037061036b366004611747565b6110d5565b6040516101cb94939291906118ea565b6006546101c1565b7f0000000000000000000000000000000000000000000000000000000000000000610216565b6102566111dd565b6102566103c4366004611747565b61141b565b6102566103d7366004611777565b611660565b60007f000000000000000000000000000000000000000000000000000000000000000042101561041f5760405163c62c35d560e01b815260040160405180910390fd5b81158061042d575060025482115b1561044b57604051630a54249560e01b815260040160405180910390fd5b60007f00000000000000000000000000000000000000000000000000000000000000006001600160a01b03166318160ddd6040518163ffffffff1660e01b8152600401602060405180830381865afa1580156104ab573d6000803e3d6000fd5b505050506040513d601f19601f820116820180604052508101906104cf9190611958565b9050806000036104f257604051633161f99760e11b815260040160405180910390fd5b6000838152600a602052604081205461051390670de0b6b3a7640000611987565b9050600060096000868152602001908152602001600020604051806080016040529081600082018054610545906119a4565b80601f0160208091040260200160405190810160405280929190818152602001828054610571906119a4565b80156105be5780601f10610593576101008083540402835291602001916105be565b820191906000526020600020905b8154815290600101906020018083116105a157829003601f168201915b505050918352505060018201546020820152600282015460408201526003909101546001600160a01b031660609091015290506000670de0b6b3a764000061060685856119de565b6005546106139190611987565b61061d91906119de565b6020830151909150811080159061065657826040015182111561064a575050604001519250610663915050565b50935061066392505050565b5060009695505050505050565b919050565b6001600160a01b0381166000908152600860209081526040918290208054835181840281018401909452808452606093928301828280156106c857602002820191906000526020600020905b8154815260200190600101908083116106b4575b50505050509050919050565b6106dc6116a0565b7f000000000000000000000000000000000000000000000000000000000000000042101561071d5760405163c62c35d560e01b815260040160405180910390fd5b336000908152600b60205260409020548061074b57604051632c7e767360e11b815260040160405180910390fd5b336000818152600b6020526040808220919091555163a9059cbb60e01b81526004810191909152602481018290526001600160a01b037f0000000000000000000000000000000000000000000000000000000000000000169063a9059cbb906044016020604051808303816000875af11580156107cc573d6000803e3d6000fd5b505050506040513d601f19601f820116820180604052508101906107f09190611a00565b50604051819033907fada8b88f0652690c97e2c67433a0d69ead55259f8d2037887cd88d0db849e20890600090a35061082860018055565b565b6108326116a0565b7f00000000000000000000000000000000000000000000000000000000000000004210156108735760405163c62c35d560e01b815260040160405180910390fd5b60075460ff161561089757604051632df64c7d60e21b815260040160405180910390fd5b6007805460ff191660019081179091555b6002548111610ac55760006108bc826103dc565b90506000600960008481526020019081526020016000206040518060800160405290816000820180546108ee906119a4565b80601f016020809104026020016040519081016040528092919081815260200182805461091a906119a4565b80156109675780601f1061093c57610100808354040283529160200191610967565b820191906000526020600020905b81548152906001019060200180831161094a57829003601f168201915b505050918352505060018201546020820152600282015460408201526003909101546001600160a01b031660609091015290508115610ab057606081015160405163a9059cbb60e01b81526001600160a01b039182166004820152602481018490526000917f0000000000000000000000000000000000000000000000000000000000000000169063a9059cbb906044016020604051808303816000875af1158015610a17573d6000803e3d6000fd5b505050506040513d601f19601f82011682018060405250810190610a3b9190611a00565b905080610a5b57604051631de7d59160e21b815260040160405180910390fd5b8260066000828254610a6d9190611a22565b9091555050606082015160405184916001600160a01b03169086907f9f5926601e7fc353505f05fae61282ae5d67b716f95656849456e6aa7bbbbb5f90600090a4505b50508080610abd90611a35565b9150506108a8565b5061082860018055565b610ad76116a0565b811580610ae5575060025482115b15610b0357604051630a54249560e01b815260040160405180910390fd5b6040516370a0823160e01b81523360048201526000907f00000000000000000000000000000000000000000000000000000000000000006001600160a01b0316906370a0823190602401602060405180830381865afa158015610b6a573d6000803e3d6000fd5b505050506040513d601f19601f82011682018060405250810190610b8e9190611958565b905080821115610bb157604051634144687160e01b815260040160405180910390fd5b6040516323b872dd60e01b8152336004820152306024820152604481018390527f00000000000000000000000000000000000000000000000000000000000000006001600160a01b0316906323b872dd906064016020604051808303816000875af1158015610c24573d6000803e3d6000fd5b505050506040513d601f19601f82011682018060405250810190610c489190611a00565b506000838152600a602052604081208054849290610c67908490611a22565b90915550506040518290849033907f4f320d0dd50d47ce5b5d001a0fc303f39b669f9e6adf87bcf899dc4a2b9a80cd90600090a450610ca560018055565b5050565b60007f00000000000000000000000000000000000000000000000000000000000000006001600160a01b03166318160ddd6040518163ffffffff1660e01b8152600401602060405180830381865afa158015610d09573d6000803e3d6000fd5b505050506040513d601f19601f82011682018060405250810190610d2d9190611958565b905090565b610d3a6116ca565b61082860006116f7565b6040516370a0823160e01b81523060048201526000907f00000000000000000000000000000000000000000000000000000000000000006001600160a01b0316906370a0823190602401602060405180830381865afa158015610d09573d6000803e3d6000fd5b610db36116ca565b600454811115610dd65760405163d292434b60e01b815260040160405180910390fd5b600355565b610de36116ca565b6003548111610e0557604051632193c39560e21b815260040160405180910390fd5b600455565b610e126116a0565b60008111610e3357604051632c7e767360e11b815260040160405180910390fd5b8060056000828254610e459190611a22565b90915550506040516323b872dd60e01b8152336004820152306024820152604481018290527f00000000000000000000000000000000000000000000000000000000000000006001600160a01b0316906323b872dd906064016020604051808303816000875af1158015610ebd573d6000803e3d6000fd5b505050506040513d601f19601f82011682018060405250810190610ee19190611a00565b50336000818152600c6020526040808220849055518392917f697042ef5da31e8cc8af5610bbeda31e034ff7c72945a28c25a38d2c7a38f5f591a3610f2560018055565b50565b6000610f326116a0565b8451600003610f5457604051630120cfa760e61b815260040160405180910390fd5b600354841080610f65575060045483115b15610f8357604051634144687160e01b815260040160405180910390fd5b82841115610fa45760405163d292434b60e01b815260040160405180910390fd5b6001600160a01b038216610fcb57604051630fb38e4f60e31b815260040160405180910390fd5b60028054906000610fdb83611a35565b90915550506040805160808101825286815260208082018790528183018690526001600160a01b03851660608301526002546000908152600990915291909120815181906110299082611a9f565b50602082810151600183810191909155604080850151600280860191909155606090950151600390940180546001600160a01b0319166001600160a01b0390951694909417909355336000818152600884528481208654815494850182559082529381209092019290925592549151919290917f9502d7618553b38b99edbe5d1547756cc9ab18db5ddd0674b051490ca4e2fb4c9190a3506002546110cd60018055565b949350505050565b60606000806000806009600087815260200190815260200160002060405180608001604052908160008201805461110b906119a4565b80601f0160208091040260200160405190810160405280929190818152602001828054611137906119a4565b80156111845780601f1061115957610100808354040283529160200191611184565b820191906000526020600020905b81548152906001019060200180831161116757829003601f168201915b5050509183525050600182015460208083019190915260028301546040808401919091526003909301546001600160a01b0316606092830152835190840151928401519390910151909991985091965090945092505050565b6111e56116a0565b7f00000000000000000000000000000000000000000000000000000000000000004210156112265760405163c62c35d560e01b815260040160405180910390fd5b60075460ff16611249576040516382f3861b60e01b815260040160405180910390fd5b336000908152600c60205260408120549081900361127a5760405163dfe5dfe160e01b815260040160405180910390fd5b6005546006548082116112a057604051630556dbdb60e51b815260040160405180910390fd5b60006112ac8284611b5f565b90506000836112c386670de0b6b3a7640000611987565b6112cd91906119de565b90506000670de0b6b3a76400006112e48484611987565b6112ee91906119de565b90508060000361131157604051630a5a249f60e21b815260040160405180910390fd5b336000818152600c60205260408082208290555163a9059cbb60e01b8152600481019290925260248201839052906001600160a01b037f0000000000000000000000000000000000000000000000000000000000000000169063a9059cbb906044016020604051808303816000875af1158015611392573d6000803e3d6000fd5b505050506040513d601f19601f820116820180604052508101906113b69190611a00565b9050806113d657604051631de7d59160e21b815260040160405180910390fd5b60405182815233907f1e563d9e18af5db6fd44fc692df8325fdf25841bc9ba0ec5ea17f128b12766e39060200160405180910390a25050505050505061082860018055565b6114236116a0565b6000811161144457604051632c7e767360e11b815260040160405180910390fd5b6040516370a0823160e01b815233600482015281907f00000000000000000000000000000000000000000000000000000000000000006001600160a01b0316906370a0823190602401602060405180830381865afa1580156114aa573d6000803e3d6000fd5b505050506040513d601f19601f820116820180604052508101906114ce9190611958565b10156114ed57604051632f27d51160e21b815260040160405180910390fd5b6040516323b872dd60e01b8152336004820152306024820152604481018290527f00000000000000000000000000000000000000000000000000000000000000006001600160a01b0316906323b872dd906064016020604051808303816000875af1158015611560573d6000803e3d6000fd5b505050506040513d601f19601f820116820180604052508101906115849190611a00565b506040516340c10f1960e01b8152336004820152602481018290527f00000000000000000000000000000000000000000000000000000000000000006001600160a01b0316906340c10f1990604401600060405180830381600087803b1580156115ed57600080fd5b505af1158015611601573d6000803e3d6000fd5b5050336000908152600b602052604081208054859450909250611625908490611a22565b9091555050604051819033907f0c3becdb286011bdfd6932f09baa4447106b6078f69fb6b49891a69b1541706490600090a3610f2560018055565b6116686116ca565b6001600160a01b03811661169757604051631e4fbdf760e01b8152600060048201526024015b60405180910390fd5b610f25816116f7565b6002600154036116c357604051633ee5aeb560e01b815260040160405180910390fd5b6002600155565b6000546001600160a01b031633146108285760405163118cdaa760e01b815233600482015260240161168e565b600080546001600160a01b038381166001600160a01b0319831681178455604051919092169283917f8be0079c531659141344cd1fd0a4f28419497f9722a3daafe3b4186f6b6457e09190a35050565b60006020828403121561175957600080fd5b5035919050565b80356001600160a01b038116811461066357600080fd5b60006020828403121561178957600080fd5b61179282611760565b9392505050565b6020808252825182820181905260009190848201906040850190845b818110156117d1578351835292840192918401916001016117b5565b50909695505050505050565b600080604083850312156117f057600080fd5b50508035926020909101359150565b634e487b7160e01b600052604160045260246000fd5b6000806000806080858703121561182b57600080fd5b843567ffffffffffffffff8082111561184357600080fd5b818701915087601f83011261185757600080fd5b813581811115611869576118696117ff565b604051601f8201601f19908116603f01168101908382118183101715611891576118916117ff565b816040528281528a60208487010111156118aa57600080fd5b82602086016020830137600060208483010152809850505050505060208501359250604085013591506118df60608601611760565b905092959194509250565b608081526000855180608084015260005b8181101561191857602081890181015160a08684010152016118fb565b50600060a082850181019190915260208401969096526040830194909452506001600160a01b03919091166060820152601f909101601f19160101919050565b60006020828403121561196a57600080fd5b5051919050565b634e487b7160e01b600052601160045260246000fd5b808202811582820484141761199e5761199e611971565b92915050565b600181811c908216806119b857607f821691505b6020821081036119d857634e487b7160e01b600052602260045260246000fd5b50919050565b6000826119fb57634e487b7160e01b600052601260045260246000fd5b500490565b600060208284031215611a1257600080fd5b8151801515811461179257600080fd5b8082018082111561199e5761199e611971565b600060018201611a4757611a47611971565b5060010190565b601f821115611a9a576000816000526020600020601f850160051c81016020861015611a775750805b601f850160051c820191505b81811015611a9657828155600101611a83565b5050505b505050565b815167ffffffffffffffff811115611ab957611ab96117ff565b611acd81611ac784546119a4565b84611a4e565b602080601f831160018114611b025760008415611aea5750858301515b600019600386901b1c1916600185901b178555611a96565b600085815260208120601f198616915b82811015611b3157888601518255948401946001909101908401611b12565b5085821015611b4f5787850151600019600388901b60f8161c191681555b5050505050600190811b01905550565b8181038181111561199e5761199e61197156fea264697066735822122033f700c09fd993ceba14b35748c7dba1a3780445fc5eaa5bc783b10194faac7e64736f6c63430008190033",
        "linkReferences": {}
    },
    "methodIdentifiers": {
        "calculateFundingToBeReceived(uint256)": "0e392155",
        "deposit(uint256)": "b6b55f25",
        "distributeFunds()": "3a6a4d2e",
        "getFundingToken()": "96c8370c",
        "getMaxRequestableAmount()": "24bd06fc",
        "getMinRequestableAmount()": "1cdb13d9",
        "getProposal(uint256)": "c7f758a8",
        "getProposalIdsByProposer(address)": "323bef09",
        "getTallyDate()": "7770477d",
        "getTotalBalanceAvailbleForDistribution()": "28e952a9",
        "getTotalFundsDistributed()": "d5bd8d64",
        "getTotalProposals()": "1a5007dd",
        "getTotalVotingPowerTokensMinted()": "70467ecb",
        "getTotalVotingPowerTokensUsed()": "7fa107c9",
        "getVotingPowerOf(address)": "4595fbfc",
        "getVotingPowerToken()": "31cbd295",
        "getVotingToken()": "e28c3b19",
        "owner()": "8da5cb5b",
        "register(uint256)": "f207564e",
        "releaseVotingTokens()": "3644e2c2",
        "renounceOwnership()": "715018a6",
        "setMaxRequestableAmount(uint256)": "b5e8cc2a",
        "setMinRequestableAmount(uint256)": "8c8e39ec",
        "submitProposal(string,uint256,uint256,address)": "bb39d1b9",
        "transferOwnership(address)": "f2fde38b",
        "voteOnProposal(uint256,uint256)": "556f6cc0",
        "withdrawRemaining()": "ee38db95"
    },
    "id": 37
}