{"abi":[{"type":"constructor","inputs":[{"name":"_platformFee","type":"uint256","internalType":"uint256"}],"stateMutability":"nonpayable"},{"type":"function","name":"deployFundingVault","inputs":[{"name":"_fundingToken","type":"address","internalType":"address"},{"name":"_votingToken","type":"address","internalType":"address"},{"name":"_minRequestableAmount","type":"uint256","internalType":"uint256"},{"name":"_maxRequestableAmount","type":"uint256","internalType":"uint256"},{"name":"_tallyDate","type":"uint256","internalType":"uint256"}],"outputs":[{"name":"","type":"address","internalType":"address"}],"stateMutability":"nonpayable"},{"type":"function","name":"getFundingVault","inputs":[{"name":"_fundingVaultId","type":"uint256","internalType":"uint256"}],"outputs":[{"name":"","type":"address","internalType":"address"}],"stateMutability":"view"},{"type":"function","name":"getPlatformFee","inputs":[],"outputs":[{"name":"","type":"uint256","internalType":"uint256"}],"stateMutability":"view"},{"type":"function","name":"getTotalNumberOfFundingVaults","inputs":[],"outputs":[{"name":"","type":"uint256","internalType":"uint256"}],"stateMutability":"view"},{"type":"function","name":"modityPlatformFee","inputs":[{"name":"_platformFee","type":"uint256","internalType":"uint256"}],"outputs":[],"stateMutability":"nonpayable"},{"type":"function","name":"owner","inputs":[],"outputs":[{"name":"","type":"address","internalType":"address"}],"stateMutability":"view"},{"type":"function","name":"renounceOwnership","inputs":[],"outputs":[],"stateMutability":"nonpayable"},{"type":"function","name":"transferOwnership","inputs":[{"name":"newOwner","type":"address","internalType":"address"}],"outputs":[],"stateMutability":"nonpayable"},{"type":"function","name":"withdrawPlatformFee","inputs":[{"name":"recepient","type":"address","internalType":"address"},{"name":"token","type":"address","internalType":"address"}],"outputs":[],"stateMutability":"nonpayable"},{"type":"event","name":"FundingVaultDeployed","inputs":[{"name":"fundingVault","type":"address","indexed":true,"internalType":"address"}],"anonymous":false},{"type":"event","name":"OwnershipTransferred","inputs":[{"name":"previousOwner","type":"address","indexed":true,"internalType":"address"},{"name":"newOwner","type":"address","indexed":true,"internalType":"address"}],"anonymous":false},{"type":"event","name":"TransferTokens","inputs":[{"name":"token","type":"address","indexed":true,"internalType":"address"},{"name":"recepient","type":"address","indexed":true,"internalType":"address"},{"name":"amount","type":"uint256","indexed":false,"internalType":"uint256"}],"anonymous":false},{"type":"error","name":"FairFund__CannotBeAZeroAddress","inputs":[]},{"type":"error","name":"FairFund__MaxRequestableAmountCannotBeZero","inputs":[]},{"type":"error","name":"FairFund__MinRequestableAmountCannotBeGreaterThanMaxRequestableAmount","inputs":[]},{"type":"error","name":"FairFund__TallyDateCannotBeInThePast","inputs":[]},{"type":"error","name":"FairFund__TransferFailed","inputs":[{"name":"token","type":"address","internalType":"address"},{"name":"recepient","type":"address","internalType":"address"},{"name":"amount","type":"uint256","internalType":"uint256"}]},{"type":"error","name":"OwnableInvalidOwner","inputs":[{"name":"owner","type":"address","internalType":"address"}]},{"type":"error","name":"OwnableUnauthorizedAccount","inputs":[{"name":"account","type":"address","internalType":"address"}]}],"bytecode":{"object":"0x6080604052348015600e575f5ffd5b5060405161343a38038061343a833981016040819052602b9160ad565b3380604f57604051631e4fbdf760e01b81525f600482015260240160405180910390fd5b605681605e565b5060035560c3565b5f80546001600160a01b038381166001600160a01b0319831681178455604051919092169283917f8be0079c531659141344cd1fd0a4f28419497f9722a3daafe3b4186f6b6457e09190a35050565b5f6020828403121560bc575f5ffd5b5051919050565b61336a806100d05f395ff3fe608060405234801561000f575f5ffd5b5060043610610090575f3560e01c80638da5cb5b116100635780638da5cb5b146100f3578063a0671d9014610103578063d1f837081461012b578063f24552be1461013e578063f2fde38b14610146575f5ffd5b80630672ee59146100945780635800920e146100a95780636ea8bc10146100d9578063715018a6146100eb575b5f5ffd5b6100a76100a23660046107e7565b610159565b005b6100bc6100b7366004610818565b610312565b6040516001600160a01b0390911681526020015b60405180910390f35b6003545b6040519081526020016100d0565b6100a7610572565b5f546001600160a01b03166100bc565b6100bc610111366004610861565b5f908152600260205260409020546001600160a01b031690565b6100a7610139366004610861565b610585565b6001546100dd565b6100a7610154366004610878565b610592565b6101616105cf565b6001600160a01b038216158061017e57506001600160a01b038116155b1561019c5760405163bb59defb60e01b815260040160405180910390fd5b6040516370a0823160e01b81523060048201525f906001600160a01b038316906370a0823190602401602060405180830381865afa1580156101e0573d5f5f3e3d5ffd5b505050506040513d601f19601f820116820180604052508101906102049190610898565b9050801561030d5760405163a9059cbb60e01b81526001600160a01b038481166004830152602482018390525f919084169063a9059cbb906044016020604051808303815f875af115801561025b573d5f5f3e3d5ffd5b505050506040513d601f19601f8201168201806040525081019061027f91906108af565b9050806102be57604051636a1cc7f360e11b81526001600160a01b03808516600483015285166024820152604481018390526064015b60405180910390fd5b836001600160a01b0316836001600160a01b03167f58908a0fd75f7db2ca358a37b3076327d374ee1403d013a2efbc255535501edf8460405161030391815260200190565b60405180910390a3505b505050565b5f6001600160a01b038616158061033057506001600160a01b038516155b1561034e5760405163bb59defb60e01b815260040160405180910390fd5b4282101561036f5760405163c12866ab60e01b815260040160405180910390fd5b82841115610390576040516338ce4da360e01b815260040160405180910390fd5b825f036103b0576040516366ab508160e11b815260040160405180910390fd5b60018054905f6103bf836108ce565b90915550506001545f6103d1826105fb565b90505f816040516020016103e59190610909565b60405160208183030381529060405290505f826040516020016104089190610930565b60405160208183030381529060405290505f8282604051610428906107b2565b610433929190610977565b604051809103905ff08015801561044c573d5f5f3e3d5ffd5b5090505f8b8b838c8c8c30604051610463906107bf565b6001600160a01b039788168152958716602087015293861660408601526060850192909252608084015260a083015290911660c082015260e001604051809103905ff0801580156104b6573d5f5f3e3d5ffd5b5060405163f2fde38b60e01b81526001600160a01b0380831660048301529192509083169063f2fde38b906024015f604051808303815f87803b1580156104fb575f5ffd5b505af115801561050d573d5f5f3e3d5ffd5b5050505f8781526002602052604080822080546001600160a01b0319166001600160a01b03861690811790915590519092507f88890f101e05f842f970e80a57886fda0f59e782dfe4c9c65bd7ae6c5b1ce9759190a29b9a5050505050505050505050565b61057a6105cf565b6105835f61068b565b565b61058d6105cf565b600355565b61059a6105cf565b6001600160a01b0381166105c357604051631e4fbdf760e01b81525f60048201526024016102b5565b6105cc8161068b565b50565b5f546001600160a01b031633146105835760405163118cdaa760e01b81523360048201526024016102b5565b60605f610607836106da565b60010190505f8167ffffffffffffffff811115610626576106266109a4565b6040519080825280601f01601f191660200182016040528015610650576020820181803683370190505b5090508181016020015b5f19016f181899199a1a9b1b9c1cb0b131b232b360811b600a86061a8153600a850494508461065a57509392505050565b5f80546001600160a01b038381166001600160a01b0319831681178455604051919092169283917f8be0079c531659141344cd1fd0a4f28419497f9722a3daafe3b4186f6b6457e09190a35050565b5f8072184f03e93ff9f4daa797ed6e38ed64bf6a1f0160401b83106107185772184f03e93ff9f4daa797ed6e38ed64bf6a1f0160401b830492506040015b6d04ee2d6d415b85acef81000000008310610744576d04ee2d6d415b85acef8100000000830492506020015b662386f26fc10000831061076257662386f26fc10000830492506010015b6305f5e100831061077a576305f5e100830492506008015b612710831061078e57612710830492506004015b606483106107a0576064830492506002015b600a83106107ac576001015b92915050565b610c65806109b983390190565b611d178061161e83390190565b80356001600160a01b03811681146107e2575f5ffd5b919050565b5f5f604083850312156107f8575f5ffd5b610801836107cc565b915061080f602084016107cc565b90509250929050565b5f5f5f5f5f60a0868803121561082c575f5ffd5b610835866107cc565b9450610843602087016107cc565b94979496505050506040830135926060810135926080909101359150565b5f60208284031215610871575f5ffd5b5035919050565b5f60208284031215610888575f5ffd5b610891826107cc565b9392505050565b5f602082840312156108a8575f5ffd5b5051919050565b5f602082840312156108bf575f5ffd5b81518015158114610891575f5ffd5b5f600182016108eb57634e487b7160e01b5f52601160045260245ffd5b5060010190565b5f81518060208401855e5f93019283525090919050565b7202b37ba34b733902837bbb2b9102a37b5b2b71606d1b81525f61089160138301846108f2565b64564f54455f60d81b81525f61089160058301846108f2565b5f81518084528060208401602086015e5f602082860101526020601f19601f83011685010191505092915050565b604081525f6109896040830185610949565b828103602084015261099b8185610949565b95945050505050565b634e487b7160e01b5f52604160045260245ffdfe608060405234801561000f575f5ffd5b50604051610c65380380610c6583398101604081905261002e91610179565b338282600361003d8382610262565b50600461004a8282610262565b5050506001600160a01b03811661007a57604051631e4fbdf760e01b81525f600482015260240160405180910390fd5b6100838161008b565b50505061031c565b600580546001600160a01b038381166001600160a01b0319831681179093556040519116919082907f8be0079c531659141344cd1fd0a4f28419497f9722a3daafe3b4186f6b6457e0905f90a35050565b634e487b7160e01b5f52604160045260245ffd5b5f82601f8301126100ff575f5ffd5b81516001600160401b03811115610118576101186100dc565b604051601f8201601f19908116603f011681016001600160401b0381118282101715610146576101466100dc565b60405281815283820160200185101561015d575f5ffd5b8160208501602083015e5f918101602001919091529392505050565b5f5f6040838503121561018a575f5ffd5b82516001600160401b0381111561019f575f5ffd5b6101ab858286016100f0565b602085015190935090506001600160401b038111156101c8575f5ffd5b6101d4858286016100f0565b9150509250929050565b600181811c908216806101f257607f821691505b60208210810361021057634e487b7160e01b5f52602260045260245ffd5b50919050565b601f82111561025d57805f5260205f20601f840160051c8101602085101561023b5750805b601f840160051c820191505b8181101561025a575f8155600101610247565b50505b505050565b81516001600160401b0381111561027b5761027b6100dc565b61028f8161028984546101de565b84610216565b6020601f8211600181146102c1575f83156102aa5750848201515b5f19600385901b1c1916600184901b17845561025a565b5f84815260208120601f198516915b828110156102f057878501518255602094850194600190920191016102d0565b508482101561030d57868401515f19600387901b60f8161c191681555b50505050600190811b01905550565b61093c806103295f395ff3fe608060405234801561000f575f5ffd5b50600436106100e5575f3560e01c8063715018a6116100885780639dc29fac116100635780639dc29fac146101c6578063a9059cbb146101d9578063dd62ed3e146101ec578063f2fde38b14610224575f5ffd5b8063715018a61461019b5780638da5cb5b146101a357806395d89b41146101be575f5ffd5b806323b872dd116100c357806323b872dd1461013c578063313ce5671461014f57806340c10f191461015e57806370a0823114610173575f5ffd5b806306fdde03146100e9578063095ea7b31461010757806318160ddd1461012a575b5f5ffd5b6100f1610237565b6040516100fe91906107ac565b60405180910390f35b61011a6101153660046107fc565b6102c7565b60405190151581526020016100fe565b6002545b6040519081526020016100fe565b61011a61014a366004610824565b6102e0565b604051601281526020016100fe565b61017161016c3660046107fc565b61032d565b005b61012e61018136600461085e565b6001600160a01b03165f9081526020819052604090205490565b610171610343565b6005546040516001600160a01b0390911681526020016100fe565b6100f1610356565b6101716101d43660046107fc565b610365565b61011a6101e73660046107fc565b610377565b61012e6101fa36600461087e565b6001600160a01b039182165f90815260016020908152604080832093909416825291909152205490565b61017161023236600461085e565b610384565b606060038054610246906108af565b80601f0160208091040260200160405190810160405280929190818152602001828054610272906108af565b80156102bd5780601f10610294576101008083540402835291602001916102bd565b820191905f5260205f20905b8154815290600101906020018083116102a057829003601f168201915b5050505050905090565b5f336102d48185856103c6565b60019150505b92915050565b5f6102f36005546001600160a01b031690565b6001600160a01b0316336001600160a01b031614610318576103168484846103d8565b505b6103238484846103fb565b5060019392505050565b610335610458565b61033f8282610485565b5050565b61034b610458565b6103545f6104b9565b565b606060048054610246906108af565b61036d610458565b61033f828261050a565b5f336102d48185856103fb565b61038c610458565b6001600160a01b0381166103ba57604051631e4fbdf760e01b81525f60048201526024015b60405180910390fd5b6103c3816104b9565b50565b6103d3838383600161053e565b505050565b5f336103e5858285610611565b6103f08585856103fb565b506001949350505050565b6001600160a01b03831661042457604051634b637e8f60e11b81525f60048201526024016103b1565b6001600160a01b03821661044d5760405163ec442f0560e01b81525f60048201526024016103b1565b6103d3838383610686565b6005546001600160a01b031633146103545760405163118cdaa760e01b81523360048201526024016103b1565b6001600160a01b0382166104ae5760405163ec442f0560e01b81525f60048201526024016103b1565b61033f5f8383610686565b600580546001600160a01b038381166001600160a01b0319831681179093556040519116919082907f8be0079c531659141344cd1fd0a4f28419497f9722a3daafe3b4186f6b6457e0905f90a35050565b6001600160a01b03821661053357604051634b637e8f60e11b81525f60048201526024016103b1565b61033f825f83610686565b6001600160a01b0384166105675760405163e602df0560e01b81525f60048201526024016103b1565b6001600160a01b03831661059057604051634a1406b160e11b81525f60048201526024016103b1565b6001600160a01b038085165f908152600160209081526040808320938716835292905220829055801561060b57826001600160a01b0316846001600160a01b03167f8c5be1e5ebec7d5bd14f71427d1e84f3dd0314c0f7b2291e5b200ac8c7c3b9258460405161060291815260200190565b60405180910390a35b50505050565b6001600160a01b038381165f908152600160209081526040808320938616835292905220545f19811461060b578181101561067857604051637dc7a0d960e11b81526001600160a01b038416600482015260248101829052604481018390526064016103b1565b61060b84848484035f61053e565b6001600160a01b0383166106b0578060025f8282546106a591906108e7565b909155506107209050565b6001600160a01b0383165f90815260208190526040902054818110156107025760405163391434e360e21b81526001600160a01b038516600482015260248101829052604481018390526064016103b1565b6001600160a01b0384165f9081526020819052604090209082900390555b6001600160a01b03821661073c5760028054829003905561075a565b6001600160a01b0382165f9081526020819052604090208054820190555b816001600160a01b0316836001600160a01b03167fddf252ad1be2c89b69c2b068fc378daa952ba7f163c4a11628f55a4df523b3ef8360405161079f91815260200190565b60405180910390a3505050565b602081525f82518060208401528060208501604085015e5f604082850101526040601f19601f83011684010191505092915050565b80356001600160a01b03811681146107f7575f5ffd5b919050565b5f5f6040838503121561080d575f5ffd5b610816836107e1565b946020939093013593505050565b5f5f5f60608486031215610836575f5ffd5b61083f846107e1565b925061084d602085016107e1565b929592945050506040919091013590565b5f6020828403121561086e575f5ffd5b610877826107e1565b9392505050565b5f5f6040838503121561088f575f5ffd5b610898836107e1565b91506108a6602084016107e1565b90509250929050565b600181811c908216806108c357607f821691505b6020821081036108e157634e487b7160e01b5f52602260045260245ffd5b50919050565b808201808211156102da57634e487b7160e01b5f52601160045260245ffdfea26469706673582212201c7a049d25257f57488b942f82efa0e9a2e86fc01387aa64829d7c22ca3f309164736f6c634300081c0033610120604052348015610010575f5ffd5b50604051611d17380380611d1783398101604081905261002f91610095565b60015f908155610100929092526001600160a01b0396871660805294861660a05292851660c05260029190915560035560048190556005556006805460ff191690551660e052610103565b80516001600160a01b0381168114610090575f5ffd5b919050565b5f5f5f5f5f5f5f60e0888a0312156100ab575f5ffd5b6100b48861007a565b96506100c26020890161007a565b95506100d06040890161007a565b606089015160808a015160a08b0151929750909550935091506100f560c0890161007a565b905092959891949750929550565b60805160a05160c05160e05161010051611b4b6101cc5f395f8181610269015281816103500152818161063e0152818161078e015261129d01525f81816102430152818161081a01528181610af30152610bb201525f8181610194015281816103be01528181610c6b01528181610d2101528181610df501528181610e8f015261164801525f818161030e015281816106e10152818161150701526115b901525f8181610297015281816109d801528181610b2401528181610f3c01526113f90152611b4b5ff3fe608060405234801561000f575f5ffd5b5060043610610148575f3560e01c806370467ecb116100bf578063bb39d1b911610079578063bb39d1b9146102ce578063c7f758a8146102e1578063d5bd8d6414610304578063e28c3b191461030c578063ee38db9514610332578063f207564e1461033a575f5ffd5b806370467ecb1461023957806372630531146102415780637770477d146102675780637fa107c91461028d57806396c8370c14610295578063b6b55f25146102bb575f5ffd5b806331cbd2951161011057806331cbd29514610192578063323bef09146101cc5780633644e2c2146101ec5780633a6a4d2e146101f65780634595fbfc146101fe578063556f6cc014610226575f5ffd5b80630e3921551461014c5780631a5007dd146101725780631cdb13d91461017a57806324bd06fc1461018257806328e952a91461018a575b5f5ffd5b61015f61015a366004611728565b61034d565b6040519081526020015b60405180910390f35b60015461015f565b60025461015f565b60035461015f565b60045461015f565b7f00000000000000000000000000000000000000000000000000000000000000005b6040516001600160a01b039091168152602001610169565b6101df6101da366004611755565b6105cb565b6040516101699190611775565b6101f4610634565b005b6101f4610784565b61015f61020c366004611755565b6001600160a01b03165f908152600a602052604090205490565b6101f46102343660046117b7565b610c20565b61015f610df2565b7f00000000000000000000000000000000000000000000000000000000000000006101b4565b7f000000000000000000000000000000000000000000000000000000000000000061015f565b61015f610e78565b7f00000000000000000000000000000000000000000000000000000000000000006101b4565b6101f46102c9366004611728565b610edc565b61015f6102dc3660046117eb565b610ff4565b6102f46102ef366004611728565b611192565b60405161016994939291906118bd565b60055461015f565b7f00000000000000000000000000000000000000000000000000000000000000006101b4565b6101f4611293565b6101f4610348366004611728565b6114c8565b5f7f000000000000000000000000000000000000000000000000000000000000000042101561038f5760405163c62c35d560e01b815260040160405180910390fd5b81158061039d575060015482115b156103bb57604051630a54249560e01b815260040160405180910390fd5b5f7f00000000000000000000000000000000000000000000000000000000000000006001600160a01b03166318160ddd6040518163ffffffff1660e01b8152600401602060405180830381865afa158015610418573d5f5f3e3d5ffd5b505050506040513d601f19601f8201168201806040525081019061043c9190611912565b9050805f0361045e57604051633161f99760e11b815260040160405180910390fd5b5f8381526009602052604081205461047e90670de0b6b3a764000061193d565b90505f60085f8681526020019081526020015f206040518060800160405290815f820180546104ac9061195a565b80601f01602080910402602001604051908101604052809291908181526020018280546104d89061195a565b80156105235780601f106104fa57610100808354040283529160200191610523565b820191905f5260205f20905b81548152906001019060200180831161050657829003601f168201915b505050918352505060018201546020820152600282015460408201526003909101546001600160a01b031660609091015290505f670de0b6b3a764000061056a8585611992565b600454610577919061193d565b6105819190611992565b602083015190915081108015906105ba5782604001518211156105ae5750506040015192506105c6915050565b5093506105c692505050565b505f9695505050505050565b919050565b6001600160a01b0381165f9081526007602090815260409182902080548351818402810184019094528084526060939283018282801561062857602002820191905f5260205f20905b815481526020019060010190808311610614575b50505050509050919050565b61063c611700565b7f000000000000000000000000000000000000000000000000000000000000000042101561067d5760405163c62c35d560e01b815260040160405180910390fd5b335f908152600a6020526040902054806106aa57604051632c7e767360e11b815260040160405180910390fd5b335f818152600a6020526040808220919091555163a9059cbb60e01b81526004810191909152602481018290526001600160a01b037f0000000000000000000000000000000000000000000000000000000000000000169063a9059cbb906044016020604051808303815f875af1158015610727573d5f5f3e3d5ffd5b505050506040513d601f19601f8201168201806040525081019061074b91906119b1565b50604051819033907fada8b88f0652690c97e2c67433a0d69ead55259f8d2037887cd88d0db849e208905f90a35061078260015f55565b565b61078c611700565b7f00000000000000000000000000000000000000000000000000000000000000004210156107cd5760405163c62c35d560e01b815260040160405180910390fd5b60065460ff16156107f157604051632df64c7d60e21b815260040160405180910390fd5b6006805460ff19166001179055604080516306ea8bc160e41b815290515f916001600160a01b037f00000000000000000000000000000000000000000000000000000000000000001691636ea8bc10916004808201926020929091908290030181865afa158015610864573d5f5f3e3d5ffd5b505050506040513d601f19601f820116820180604052508101906108889190611912565b90505f60015b6001548111610ad5575f6108a18261034d565b90508015610ac2575f828152600860205260408082208151608081019092528054829082906108cf9061195a565b80601f01602080910402602001604051908101604052809291908181526020018280546108fb9061195a565b80156109465780601f1061091d57610100808354040283529160200191610946565b820191905f5260205f20905b81548152906001019060200180831161092957829003601f168201915b505050918352505060018201546020820152600282015460408201526003909101546001600160a01b031660609091015290505f6064610986878561193d565b6109909190611992565b905061099c81846119d0565b92506109a881866119e3565b606083015160405163a9059cbb60e01b81526001600160a01b039182166004820152602481018690529196505f917f00000000000000000000000000000000000000000000000000000000000000009091169063a9059cbb906044016020604051808303815f875af1158015610a20573d5f5f3e3d5ffd5b505050506040513d601f19601f82011682018060405250810190610a4491906119b1565b905080610a6457604051631de7d59160e21b815260040160405180910390fd5b610a6e82856119e3565b60055f828254610a7e91906119e3565b9091555050606083015160405185916001600160a01b03169087907f9f5926601e7fc353505f05fae61282ae5d67b716f95656849456e6aa7bbbbb5f905f90a45050505b5080610acd816119f6565b91505061088e565b508015610c155760405163a9059cbb60e01b81526001600160a01b037f000000000000000000000000000000000000000000000000000000000000000081166004830152602482018390525f917f00000000000000000000000000000000000000000000000000000000000000009091169063a9059cbb906044016020604051808303815f875af1158015610b6c573d5f5f3e3d5ffd5b505050506040513d601f19601f82011682018060405250810190610b9091906119b1565b905080610bb057604051631de7d59160e21b815260040160405180910390fd5b7f00000000000000000000000000000000000000000000000000000000000000006001600160a01b03167f78960d0b6d9da496cfe65faff867ec64774b887e2991495bb66abaa7afb1ddeb83604051610c0b91815260200190565b60405180910390a2505b505061078260015f55565b610c28611700565b811580610c36575060015482115b15610c5457604051630a54249560e01b815260040160405180910390fd5b6040516370a0823160e01b81523360048201525f907f00000000000000000000000000000000000000000000000000000000000000006001600160a01b0316906370a0823190602401602060405180830381865afa158015610cb8573d5f5f3e3d5ffd5b505050506040513d601f19601f82011682018060405250810190610cdc9190611912565b905080821115610cff57604051634144687160e01b815260040160405180910390fd5b6040516323b872dd60e01b8152336004820152306024820152604481018390527f00000000000000000000000000000000000000000000000000000000000000006001600160a01b0316906323b872dd906064016020604051808303815f875af1158015610d6f573d5f5f3e3d5ffd5b505050506040513d601f19601f82011682018060405250810190610d9391906119b1565b505f8381526009602052604081208054849290610db19084906119e3565b90915550506040518290849033907f4f320d0dd50d47ce5b5d001a0fc303f39b669f9e6adf87bcf899dc4a2b9a80cd905f90a450610dee60015f55565b5050565b5f7f00000000000000000000000000000000000000000000000000000000000000006001600160a01b03166318160ddd6040518163ffffffff1660e01b8152600401602060405180830381865afa158015610e4f573d5f5f3e3d5ffd5b505050506040513d601f19601f82011682018060405250810190610e739190611912565b905090565b6040516370a0823160e01b81523060048201525f907f00000000000000000000000000000000000000000000000000000000000000006001600160a01b0316906370a0823190602401602060405180830381865afa158015610e4f573d5f5f3e3d5ffd5b610ee4611700565b5f8111610f0457604051632c7e767360e11b815260040160405180910390fd5b8060045f828254610f1591906119e3565b90915550506040516323b872dd60e01b8152336004820152306024820152604481018290527f00000000000000000000000000000000000000000000000000000000000000006001600160a01b0316906323b872dd906064016020604051808303815f875af1158015610f8a573d5f5f3e3d5ffd5b505050506040513d601f19601f82011682018060405250810190610fae91906119b1565b50335f818152600b6020526040808220849055518392917f697042ef5da31e8cc8af5610bbeda31e034ff7c72945a28c25a38d2c7a38f5f591a3610ff160015f55565b50565b5f610ffd611700565b84515f0361101e57604051630120cfa760e61b815260040160405180910390fd5b60025484108061102f575060035483115b1561104d57604051634144687160e01b815260040160405180910390fd5b8284111561106e5760405163d292434b60e01b815260040160405180910390fd5b6001600160a01b03821661109557604051630fb38e4f60e31b815260040160405180910390fd5b60018054905f6110a4836119f6565b90915550506040805160808101825286815260208082018790528183018690526001600160a01b03851660608301526001545f908152600890915291909120815181906110f19082611a5a565b506020828101516001838101919091556040808501516002850155606090940151600390930180546001600160a01b0319166001600160a01b0390941693909317909255335f818152600783528481208454815480870183559183529382200192909255915492517f9502d7618553b38b99edbe5d1547756cc9ab18db5ddd0674b051490ca4e2fb4c9190a35060015461118a60015f55565b949350505050565b60605f5f5f5f60085f8781526020019081526020015f206040518060800160405290815f820180546111c39061195a565b80601f01602080910402602001604051908101604052809291908181526020018280546111ef9061195a565b801561123a5780601f106112115761010080835404028352916020019161123a565b820191905f5260205f20905b81548152906001019060200180831161121d57829003601f168201915b5050509183525050600182015460208083019190915260028301546040808401919091526003909301546001600160a01b0316606092830152835190840151928401519390910151909991985091965090945092505050565b61129b611700565b7f00000000000000000000000000000000000000000000000000000000000000004210156112dc5760405163c62c35d560e01b815260040160405180910390fd5b60065460ff166112ff576040516382f3861b60e01b815260040160405180910390fd5b335f908152600b60205260408120549081900361132f5760405163dfe5dfe160e01b815260040160405180910390fd5b60045460055480821161135557604051630556dbdb60e51b815260040160405180910390fd5b5f61136082846119d0565b90505f8361137686670de0b6b3a764000061193d565b6113809190611992565b90505f670de0b6b3a7640000611396848461193d565b6113a09190611992565b9050805f036113c257604051630a5a249f60e21b815260040160405180910390fd5b335f818152600b60205260408082208290555163a9059cbb60e01b8152600481019290925260248201839052906001600160a01b037f0000000000000000000000000000000000000000000000000000000000000000169063a9059cbb906044016020604051808303815f875af115801561143f573d5f5f3e3d5ffd5b505050506040513d601f19601f8201168201806040525081019061146391906119b1565b90508061148357604051631de7d59160e21b815260040160405180910390fd5b60405182815233907f1e563d9e18af5db6fd44fc692df8325fdf25841bc9ba0ec5ea17f128b12766e39060200160405180910390a25050505050505061078260015f55565b6114d0611700565b5f81116114f057604051632c7e767360e11b815260040160405180910390fd5b6040516370a0823160e01b815233600482015281907f00000000000000000000000000000000000000000000000000000000000000006001600160a01b0316906370a0823190602401602060405180830381865afa158015611554573d5f5f3e3d5ffd5b505050506040513d601f19601f820116820180604052508101906115789190611912565b101561159757604051632f27d51160e21b815260040160405180910390fd5b6040516323b872dd60e01b8152336004820152306024820152604481018290527f00000000000000000000000000000000000000000000000000000000000000006001600160a01b0316906323b872dd906064016020604051808303815f875af1158015611607573d5f5f3e3d5ffd5b505050506040513d601f19601f8201168201806040525081019061162b91906119b1565b506040516340c10f1960e01b8152336004820152602481018290527f00000000000000000000000000000000000000000000000000000000000000006001600160a01b0316906340c10f19906044015f604051808303815f87803b158015611691575f5ffd5b505af11580156116a3573d5f5f3e3d5ffd5b5050335f908152600a6020526040812080548594509092506116c69084906119e3565b9091555050604051819033907f0c3becdb286011bdfd6932f09baa4447106b6078f69fb6b49891a69b15417064905f90a3610ff160015f55565b60025f540361172257604051633ee5aeb560e01b815260040160405180910390fd5b60025f55565b5f60208284031215611738575f5ffd5b5035919050565b80356001600160a01b03811681146105c6575f5ffd5b5f60208284031215611765575f5ffd5b61176e8261173f565b9392505050565b602080825282518282018190525f918401906040840190835b818110156117ac57835183526020938401939092019160010161178e565b509095945050505050565b5f5f604083850312156117c8575f5ffd5b50508035926020909101359150565b634e487b7160e01b5f52604160045260245ffd5b5f5f5f5f608085870312156117fe575f5ffd5b843567ffffffffffffffff811115611814575f5ffd5b8501601f81018713611824575f5ffd5b803567ffffffffffffffff81111561183e5761183e6117d7565b604051601f8201601f19908116603f0116810167ffffffffffffffff8111828210171561186d5761186d6117d7565b604052818152828201602001891015611884575f5ffd5b816020840160208301375f60209282018301529550860135935050604085013591506118b26060860161173f565b905092959194509250565b608081525f8551806080840152806020880160a085015e5f60a082850181019190915260208401969096526040830194909452506001600160a01b03919091166060820152601f909101601f19160101919050565b5f60208284031215611922575f5ffd5b5051919050565b634e487b7160e01b5f52601160045260245ffd5b808202811582820484141761195457611954611929565b92915050565b600181811c9082168061196e57607f821691505b60208210810361198c57634e487b7160e01b5f52602260045260245ffd5b50919050565b5f826119ac57634e487b7160e01b5f52601260045260245ffd5b500490565b5f602082840312156119c1575f5ffd5b8151801515811461176e575f5ffd5b8181038181111561195457611954611929565b8082018082111561195457611954611929565b5f60018201611a0757611a07611929565b5060010190565b601f821115611a5557805f5260205f20601f840160051c81016020851015611a335750805b601f840160051c820191505b81811015611a52575f8155600101611a3f565b50505b505050565b815167ffffffffffffffff811115611a7457611a746117d7565b611a8881611a82845461195a565b84611a0e565b6020601f821160018114611aba575f8315611aa35750848201515b5f19600385901b1c1916600184901b178455611a52565b5f84815260208120601f198516915b82811015611ae95787850151825560209485019460019092019101611ac9565b5084821015611b0657868401515f19600387901b60f8161c191681555b50505050600190811b0190555056fea264697066735822122086de9a9ef79c8089067be246cbf7fb82c3c91c0a6082be4dc82d3a4e0952398c64736f6c634300081c0033a2646970667358221220668b60f073cf7a30e291aa41e8487d97ff8c4bc7d806d1c92800761f211a1d3764736f6c634300081c0033","linkReferences":{}},"methodIdentifiers":{"deployFundingVault(address,address,uint256,uint256,uint256)":"5800920e","getFundingVault(uint256)":"a0671d90","getPlatformFee()":"6ea8bc10","getTotalNumberOfFundingVaults()":"f24552be","modityPlatformFee(uint256)":"d1f83708","owner()":"8da5cb5b","renounceOwnership()":"715018a6","transferOwnership(address)":"f2fde38b","withdrawPlatformFee(address,address)":"0672ee59"},"id":36}