{
    "abi": [
        {
            "type": "function",
            "name": "deployFundingVault",
            "inputs": [
                {
                    "name": "_fundingToken",
                    "type": "address",
                    "internalType": "address"
                },
                {
                    "name": "_votingToken",
                    "type": "address",
                    "internalType": "address"
                },
                {
                    "name": "_minRequestableAmount",
                    "type": "uint256",
                    "internalType": "uint256"
                },
                {
                    "name": "_maxRequestableAmount",
                    "type": "uint256",
                    "internalType": "uint256"
                },
                {
                    "name": "_tallyDate",
                    "type": "uint256",
                    "internalType": "uint256"
                },
                {
                    "name": "_owner",
                    "type": "address",
                    "internalType": "address"
                }
            ],
            "outputs": [
                {
                    "name": "",
                    "type": "address",
                    "internalType": "address"
                }
            ],
            "stateMutability": "nonpayable"
        },
        {
            "type": "function",
            "name": "getFundingVault",
            "inputs": [
                {
                    "name": "_fundingVaultId",
                    "type": "uint256",
                    "internalType": "uint256"
                }
            ],
            "outputs": [
                {
                    "name": "",
                    "type": "address",
                    "internalType": "address"
                }
            ],
            "stateMutability": "view"
        },
        {
            "type": "function",
            "name": "getTotalNumberOfFundingVaults",
            "inputs": [],
            "outputs": [
                {
                    "name": "",
                    "type": "uint256",
                    "internalType": "uint256"
                }
            ],
            "stateMutability": "view"
        },
        {
            "type": "event",
            "name": "FundingVaultDeployed",
            "inputs": [
                {
                    "name": "fundingVault",
                    "type": "address",
                    "indexed": true,
                    "internalType": "address"
                }
            ],
            "anonymous": false
        },
        {
            "type": "error",
            "name": "FairFund__CannotBeAZeroAddress",
            "inputs": []
        },
        {
            "type": "error",
            "name": "FairFund__MaxRequestableAmountCannotBeZero",
            "inputs": []
        },
        {
            "type": "error",
            "name": "FairFund__MinRequestableAmountCannotBeGreaterThanMaxRequestableAmount",
            "inputs": []
        },
        {
            "type": "error",
            "name": "FairFund__TallyDateCannotBeInThePast",
            "inputs": []
        }
    ],
    "bytecode": {
        "object": "0x6080604052348015600f57600080fd5b50612e918061001f6000396000f3fe608060405234801561001057600080fd5b50600436106100405760003560e01c80621dcefc14610045578063a0671d9014610075578063f24552be1461009e575b600080fd5b6100586100533660046104d7565b6100af565b6040516001600160a01b0390911681526020015b60405180910390f35b610058610083366004610536565b6000908152600160205260409020546001600160a01b031690565b60005460405190815260200161006c565b60006001600160a01b03871615806100ce57506001600160a01b038616155b806100e057506001600160a01b038216155b156100fe5760405163bb59defb60e01b815260040160405180910390fd5b4283101561011f5760405163c12866ab60e01b815260040160405180910390fd5b83851115610140576040516338ce4da360e01b815260040160405180910390fd5b83600003610161576040516366ab508160e11b815260040160405180910390fd5b6000805490806101708361054f565b9091555050600080549061018382610335565b9050600081604051602001610198919061059a565b60405160208183030381529060405290506000826040516020016101bc91906105d5565b6040516020818303038152906040529050600082826040516101dd906104a1565b6101e892919061062e565b604051809103906000f080158015610204573d6000803e3d6000fd5b50905060008c8c838d8d8d8d60405161021c906104ae565b6001600160a01b039788168152958716602087015293861660408601526060850192909252608084015260a083015290911660c082015260e001604051809103906000f080158015610272573d6000803e3d6000fd5b5060405163f2fde38b60e01b81526001600160a01b0380831660048301529192509083169063f2fde38b90602401600060405180830381600087803b1580156102ba57600080fd5b505af11580156102ce573d6000803e3d6000fd5b50505060008781526001602052604080822080546001600160a01b0319166001600160a01b03861690811790915590519092507f88890f101e05f842f970e80a57886fda0f59e782dfe4c9c65bd7ae6c5b1ce9759190a29c9b505050505050505050505050565b60606000610342836103c8565b600101905060008167ffffffffffffffff8111156103625761036261065c565b6040519080825280601f01601f19166020018201604052801561038c576020820181803683370190505b5090508181016020015b600019016f181899199a1a9b1b9c1cb0b131b232b360811b600a86061a8153600a850494508461039657509392505050565b60008072184f03e93ff9f4daa797ed6e38ed64bf6a1f0160401b83106104075772184f03e93ff9f4daa797ed6e38ed64bf6a1f0160401b830492506040015b6d04ee2d6d415b85acef81000000008310610433576d04ee2d6d415b85acef8100000000830492506020015b662386f26fc10000831061045157662386f26fc10000830492506010015b6305f5e1008310610469576305f5e100830492506008015b612710831061047d57612710830492506004015b6064831061048f576064830492506002015b600a831061049b576001015b92915050565b610cdd8061067383390190565b611b0c8061135083390190565b80356001600160a01b03811681146104d257600080fd5b919050565b60008060008060008060c087890312156104f057600080fd5b6104f9876104bb565b9550610507602088016104bb565b945060408701359350606087013592506080870135915061052a60a088016104bb565b90509295509295509295565b60006020828403121561054857600080fd5b5035919050565b60006001820161056f57634e487b7160e01b600052601160045260246000fd5b5060010190565b60005b83811015610591578181015183820152602001610579565b50506000910152565b7202b37ba34b733902837bbb2b9102a37b5b2b71606d1b8152600082516105c8816013850160208701610576565b9190910160130192915050565b64564f54455f60d81b8152600082516105f5816005850160208701610576565b9190910160050192915050565b6000815180845261061a816020860160208601610576565b601f01601f19169290920160200192915050565b6040815260006106416040830185610602565b82810360208401526106538185610602565b95945050505050565b634e487b7160e01b600052604160045260246000fdfe608060405234801561001057600080fd5b50604051610cdd380380610cdd83398101604081905261002f9161019d565b338282600361003e838261028b565b50600461004b828261028b565b5050506001600160a01b03811661007c57604051631e4fbdf760e01b81526000600482015260240160405180910390fd5b6100858161008d565b50505061034a565b600580546001600160a01b038381166001600160a01b0319831681179093556040519116919082907f8be0079c531659141344cd1fd0a4f28419497f9722a3daafe3b4186f6b6457e090600090a35050565b634e487b7160e01b600052604160045260246000fd5b600082601f83011261010657600080fd5b81516001600160401b0380821115610120576101206100df565b604051601f8301601f19908116603f01168101908282118183101715610148576101486100df565b816040528381526020925086602085880101111561016557600080fd5b600091505b83821015610187578582018301518183018401529082019061016a565b6000602085830101528094505050505092915050565b600080604083850312156101b057600080fd5b82516001600160401b03808211156101c757600080fd5b6101d3868387016100f5565b935060208501519150808211156101e957600080fd5b506101f6858286016100f5565b9150509250929050565b600181811c9082168061021457607f821691505b60208210810361023457634e487b7160e01b600052602260045260246000fd5b50919050565b601f821115610286576000816000526020600020601f850160051c810160208610156102635750805b601f850160051c820191505b818110156102825782815560010161026f565b5050505b505050565b81516001600160401b038111156102a4576102a46100df565b6102b8816102b28454610200565b8461023a565b602080601f8311600181146102ed57600084156102d55750858301515b600019600386901b1c1916600185901b178555610282565b600085815260208120601f198616915b8281101561031c578886015182559484019460019091019084016102fd565b508582101561033a5787850151600019600388901b60f8161c191681555b5050505050600190811b01905550565b610984806103596000396000f3fe608060405234801561001057600080fd5b50600436106100ea5760003560e01c8063715018a61161008c5780639dc29fac116100665780639dc29fac146101cd578063a9059cbb146101e0578063dd62ed3e146101f3578063f2fde38b1461022c57600080fd5b8063715018a6146101a25780638da5cb5b146101aa57806395d89b41146101c557600080fd5b806323b872dd116100c857806323b872dd14610142578063313ce5671461015557806340c10f191461016457806370a082311461017957600080fd5b806306fdde03146100ef578063095ea7b31461010d57806318160ddd14610130575b600080fd5b6100f761023f565b60405161010491906107cd565b60405180910390f35b61012061011b366004610838565b6102d1565b6040519015158152602001610104565b6002545b604051908152602001610104565b610120610150366004610862565b6102eb565b60405160128152602001610104565b610177610172366004610838565b610339565b005b61013461018736600461089e565b6001600160a01b031660009081526020819052604090205490565b61017761034f565b6005546040516001600160a01b039091168152602001610104565b6100f7610363565b6101776101db366004610838565b610372565b6101206101ee366004610838565b610384565b6101346102013660046108c0565b6001600160a01b03918216600090815260016020908152604080832093909416825291909152205490565b61017761023a36600461089e565b610392565b60606003805461024e906108f3565b80601f016020809104026020016040519081016040528092919081815260200182805461027a906108f3565b80156102c75780601f1061029c576101008083540402835291602001916102c7565b820191906000526020600020905b8154815290600101906020018083116102aa57829003601f168201915b5050505050905090565b6000336102df8185856103d5565b60019150505b92915050565b60006102ff6005546001600160a01b031690565b6001600160a01b0316336001600160a01b031614610324576103228484846103e7565b505b61032f84848461040b565b5060019392505050565b61034161046a565b61034b8282610497565b5050565b61035761046a565b61036160006104cd565b565b60606004805461024e906108f3565b61037a61046a565b61034b828261051f565b6000336102df81858561040b565b61039a61046a565b6001600160a01b0381166103c957604051631e4fbdf760e01b8152600060048201526024015b60405180910390fd5b6103d2816104cd565b50565b6103e28383836001610555565b505050565b6000336103f585828561062b565b61040085858561040b565b506001949350505050565b6001600160a01b03831661043557604051634b637e8f60e11b8152600060048201526024016103c0565b6001600160a01b03821661045f5760405163ec442f0560e01b8152600060048201526024016103c0565b6103e28383836106a3565b6005546001600160a01b031633146103615760405163118cdaa760e01b81523360048201526024016103c0565b6001600160a01b0382166104c15760405163ec442f0560e01b8152600060048201526024016103c0565b61034b600083836106a3565b600580546001600160a01b038381166001600160a01b0319831681179093556040519116919082907f8be0079c531659141344cd1fd0a4f28419497f9722a3daafe3b4186f6b6457e090600090a35050565b6001600160a01b03821661054957604051634b637e8f60e11b8152600060048201526024016103c0565b61034b826000836106a3565b6001600160a01b03841661057f5760405163e602df0560e01b8152600060048201526024016103c0565b6001600160a01b0383166105a957604051634a1406b160e11b8152600060048201526024016103c0565b6001600160a01b038085166000908152600160209081526040808320938716835292905220829055801561062557826001600160a01b0316846001600160a01b03167f8c5be1e5ebec7d5bd14f71427d1e84f3dd0314c0f7b2291e5b200ac8c7c3b9258460405161061c91815260200190565b60405180910390a35b50505050565b6001600160a01b038381166000908152600160209081526040808320938616835292905220546000198114610625578181101561069457604051637dc7a0d960e11b81526001600160a01b038416600482015260248101829052604481018390526064016103c0565b61062584848484036000610555565b6001600160a01b0383166106ce5780600260008282546106c3919061092d565b909155506107409050565b6001600160a01b038316600090815260208190526040902054818110156107215760405163391434e360e21b81526001600160a01b038516600482015260248101829052604481018390526064016103c0565b6001600160a01b03841660009081526020819052604090209082900390555b6001600160a01b03821661075c5760028054829003905561077b565b6001600160a01b03821660009081526020819052604090208054820190555b816001600160a01b0316836001600160a01b03167fddf252ad1be2c89b69c2b068fc378daa952ba7f163c4a11628f55a4df523b3ef836040516107c091815260200190565b60405180910390a3505050565b60006020808352835180602085015260005b818110156107fb578581018301518582016040015282016107df565b506000604082860101526040601f19601f8301168501019250505092915050565b80356001600160a01b038116811461083357600080fd5b919050565b6000806040838503121561084b57600080fd5b6108548361081c565b946020939093013593505050565b60008060006060848603121561087757600080fd5b6108808461081c565b925061088e6020850161081c565b9150604084013590509250925092565b6000602082840312156108b057600080fd5b6108b98261081c565b9392505050565b600080604083850312156108d357600080fd5b6108dc8361081c565b91506108ea6020840161081c565b90509250929050565b600181811c9082168061090757607f821691505b60208210810361092757634e487b7160e01b600052602260045260246000fd5b50919050565b808201808211156102e557634e487b7160e01b600052601160045260246000fdfea264697066735822122023a91868f5541ba79e4ce263c5c7170cf36248c3099aa1d44b599050d56f782464736f6c6343000819003361010060405234801561001157600080fd5b50604051611b0c380380611b0c83398101604081905261003091610113565b806001600160a01b03811661005f57604051631e4fbdf760e01b81526000600482015260240160405180910390fd5b610068816100a7565b50506001805560e0526001600160a01b0394851660805292841660a052921660c05260039190915560045560006005556006805460ff19169055610184565b600080546001600160a01b038381166001600160a01b0319831681178455604051919092169283917f8be0079c531659141344cd1fd0a4f28419497f9722a3daafe3b4186f6b6457e09190a35050565b80516001600160a01b038116811461010e57600080fd5b919050565b600080600080600080600060e0888a03121561012e57600080fd5b610137886100f7565b9650610145602089016100f7565b9550610153604089016100f7565b9450606088015193506080880151925060a0880151915061017660c089016100f7565b905092959891949750929550565b60805160a05160c05160e0516118ed61021f600039600081816102780152818161039a0152818161069801526107ee0152600081816101c00152818161040901528181610abe01528181610b7601528181610c5001528181610cff01526112f901526000818161034c0152818161073d015281816111b301526112670152600081816102ca015281816109880152610e0f01526118ed6000f3fe608060405234801561001057600080fd5b50600436106101735760003560e01c8063715018a6116100de578063b5e8cc2a11610097578063c7f758a811610071578063c7f758a814610327578063e28c3b191461034a578063f207564e14610370578063f2fde38b1461038357600080fd5b8063b5e8cc2a146102ee578063b6b55f2514610301578063bb39d1b91461031457600080fd5b8063715018a61461026e5780637770477d146102765780637fa107c91461029c5780638c8e39ec146102a45780638da5cb5b146102b757806396c8370c146102c857600080fd5b8063323bef0911610130578063323bef09146101f85780633644e2c2146102185780633a6a4d2e146102225780634595fbfc1461022a578063556f6cc01461025357806370467ecb1461026657600080fd5b80630e392155146101785780631a5007dd1461019e5780631cdb13d9146101a657806324bd06fc146101ae57806328e952a9146101b657806331cbd295146101be575b600080fd5b61018b61018636600461149f565b610396565b6040519081526020015b60405180910390f35b60025461018b565b60035461018b565b60045461018b565b60055461018b565b7f00000000000000000000000000000000000000000000000000000000000000005b6040516001600160a01b039091168152602001610195565b61020b6102063660046114cf565b610622565b60405161019591906114f1565b61022061068e565b005b6102206107e4565b61018b6102383660046114cf565b6001600160a01b03166000908152600a602052604090205490565b610220610261366004611535565b610a72565b61018b610c4c565b610220610cd5565b7f000000000000000000000000000000000000000000000000000000000000000061018b565b61018b610ce7565b6102206102b236600461149f565b610d4e565b6000546001600160a01b03166101e0565b7f00000000000000000000000000000000000000000000000000000000000000006101e0565b6102206102fc36600461149f565b610d7e565b61022061030f36600461149f565b610dad565b61018b61032236600461156d565b610ebe565b61033a61033536600461149f565b61106b565b6040516101959493929190611642565b7f00000000000000000000000000000000000000000000000000000000000000006101e0565b61022061037e36600461149f565b611173565b6102206103913660046114cf565b6113b8565b60007f00000000000000000000000000000000000000000000000000000000000000004210156103d95760405163c62c35d560e01b815260040160405180910390fd5b8115806103e7575060025482115b1561040557604051630a54249560e01b815260040160405180910390fd5b60007f00000000000000000000000000000000000000000000000000000000000000006001600160a01b03166318160ddd6040518163ffffffff1660e01b8152600401602060405180830381865afa158015610465573d6000803e3d6000fd5b505050506040513d601f19601f8201168201806040525081019061048991906116b0565b9050806000036104ac57604051633161f99760e11b815260040160405180910390fd5b6000838152600960205260408120546104cd90670de0b6b3a76400006116df565b90506000600860008681526020019081526020016000206040518060800160405290816000820180546104ff906116fc565b80601f016020809104026020016040519081016040528092919081815260200182805461052b906116fc565b80156105785780601f1061054d57610100808354040283529160200191610578565b820191906000526020600020905b81548152906001019060200180831161055b57829003601f168201915b505050918352505060018201546020820152600282015460408201526003909101546001600160a01b031660609091015290506000670de0b6b3a76400006105c08585611736565b6005546105cd91906116df565b6105d79190611736565b6020830151909150811080159061061057826040015182111561060457505060400151925061061d915050565b50935061061d92505050565b5060009695505050505050565b919050565b6001600160a01b03811660009081526007602090815260409182902080548351818402810184019094528084526060939283018282801561068257602002820191906000526020600020905b81548152602001906001019080831161066e575b50505050509050919050565b6106966113f8565b7f00000000000000000000000000000000000000000000000000000000000000004210156106d75760405163c62c35d560e01b815260040160405180910390fd5b336000908152600a60205260409020548061070557604051632c7e767360e11b815260040160405180910390fd5b336000818152600a6020526040808220919091555163a9059cbb60e01b81526004810191909152602481018290526001600160a01b037f0000000000000000000000000000000000000000000000000000000000000000169063a9059cbb906044016020604051808303816000875af1158015610786573d6000803e3d6000fd5b505050506040513d601f19601f820116820180604052508101906107aa9190611758565b50604051819033907fada8b88f0652690c97e2c67433a0d69ead55259f8d2037887cd88d0db849e20890600090a3506107e260018055565b565b6107ec6113f8565b7f000000000000000000000000000000000000000000000000000000000000000042101561082d5760405163c62c35d560e01b815260040160405180910390fd5b60065460ff161561085157604051632df64c7d60e21b815260040160405180910390fd5b6006805460ff191660019081179091555b6002548111610a6857600061087682610396565b90506000600860008481526020019081526020016000206040518060800160405290816000820180546108a8906116fc565b80601f01602080910402602001604051908101604052809291908181526020018280546108d4906116fc565b80156109215780601f106108f657610100808354040283529160200191610921565b820191906000526020600020905b81548152906001019060200180831161090457829003601f168201915b505050918352505060018201546020820152600282015460408201526003909101546001600160a01b031660609091015290508115610a5357606081015160405163a9059cbb60e01b81526001600160a01b039182166004820152602481018490526000917f0000000000000000000000000000000000000000000000000000000000000000169063a9059cbb906044016020604051808303816000875af11580156109d1573d6000803e3d6000fd5b505050506040513d601f19601f820116820180604052508101906109f59190611758565b905080610a1557604051631de7d59160e21b815260040160405180910390fd5b8282606001516001600160a01b0316857f9f5926601e7fc353505f05fae61282ae5d67b716f95656849456e6aa7bbbbb5f60405160405180910390a4505b50508080610a609061177a565b915050610862565b506107e260018055565b610a7a6113f8565b811580610a88575060025482115b15610aa657604051630a54249560e01b815260040160405180910390fd5b6040516370a0823160e01b81523360048201526000907f00000000000000000000000000000000000000000000000000000000000000006001600160a01b0316906370a0823190602401602060405180830381865afa158015610b0d573d6000803e3d6000fd5b505050506040513d601f19601f82011682018060405250810190610b3191906116b0565b905080821115610b5457604051634144687160e01b815260040160405180910390fd5b6040516323b872dd60e01b8152336004820152306024820152604481018390527f00000000000000000000000000000000000000000000000000000000000000006001600160a01b0316906323b872dd906064016020604051808303816000875af1158015610bc7573d6000803e3d6000fd5b505050506040513d601f19601f82011682018060405250810190610beb9190611758565b5060008381526009602052604081208054849290610c0a908490611793565b90915550506040518290849033907f4f320d0dd50d47ce5b5d001a0fc303f39b669f9e6adf87bcf899dc4a2b9a80cd90600090a450610c4860018055565b5050565b60007f00000000000000000000000000000000000000000000000000000000000000006001600160a01b03166318160ddd6040518163ffffffff1660e01b8152600401602060405180830381865afa158015610cac573d6000803e3d6000fd5b505050506040513d601f19601f82011682018060405250810190610cd091906116b0565b905090565b610cdd611422565b6107e2600061144f565b6040516370a0823160e01b81523060048201526000907f00000000000000000000000000000000000000000000000000000000000000006001600160a01b0316906370a0823190602401602060405180830381865afa158015610cac573d6000803e3d6000fd5b610d56611422565b600454811115610d795760405163d292434b60e01b815260040160405180910390fd5b600355565b610d86611422565b6003548111610da857604051632193c39560e21b815260040160405180910390fd5b600455565b610db56113f8565b60008111610dd657604051632c7e767360e11b815260040160405180910390fd5b8060056000828254610de89190611793565b90915550506040516323b872dd60e01b8152336004820152306024820152604481018290527f00000000000000000000000000000000000000000000000000000000000000006001600160a01b0316906323b872dd906064016020604051808303816000875af1158015610e60573d6000803e3d6000fd5b505050506040513d601f19601f82011682018060405250810190610e849190611758565b50604051819033907f697042ef5da31e8cc8af5610bbeda31e034ff7c72945a28c25a38d2c7a38f5f590600090a3610ebb60018055565b50565b6000610ec86113f8565b8451600003610eea57604051630120cfa760e61b815260040160405180910390fd5b600354841080610efb575060045483115b15610f1957604051634144687160e01b815260040160405180910390fd5b82841115610f3a5760405163d292434b60e01b815260040160405180910390fd5b6001600160a01b038216610f6157604051630fb38e4f60e31b815260040160405180910390fd5b60028054906000610f718361177a565b90915550506040805160808101825286815260208082018790528183018690526001600160a01b0385166060830152600254600090815260089091529190912081518190610fbf90826117f7565b50602082810151600183810191909155604080850151600280860191909155606090950151600390940180546001600160a01b0319166001600160a01b0390951694909417909355336000818152600784528481208654815494850182559082529381209092019290925592549151919290917f9502d7618553b38b99edbe5d1547756cc9ab18db5ddd0674b051490ca4e2fb4c9190a35060025461106360018055565b949350505050565b6060600080600080600860008781526020019081526020016000206040518060800160405290816000820180546110a1906116fc565b80601f01602080910402602001604051908101604052809291908181526020018280546110cd906116fc565b801561111a5780601f106110ef5761010080835404028352916020019161111a565b820191906000526020600020905b8154815290600101906020018083116110fd57829003601f168201915b5050509183525050600182015460208083019190915260028301546040808401919091526003909301546001600160a01b0316606092830152835190840151928401519390910151909991985091965090945092505050565b61117b6113f8565b6000811161119c57604051632c7e767360e11b815260040160405180910390fd5b6040516370a0823160e01b815233600482015281907f00000000000000000000000000000000000000000000000000000000000000006001600160a01b0316906370a0823190602401602060405180830381865afa158015611202573d6000803e3d6000fd5b505050506040513d601f19601f8201168201806040525081019061122691906116b0565b101561124557604051632f27d51160e21b815260040160405180910390fd5b6040516323b872dd60e01b8152336004820152306024820152604481018290527f00000000000000000000000000000000000000000000000000000000000000006001600160a01b0316906323b872dd906064016020604051808303816000875af11580156112b8573d6000803e3d6000fd5b505050506040513d601f19601f820116820180604052508101906112dc9190611758565b506040516340c10f1960e01b8152336004820152602481018290527f00000000000000000000000000000000000000000000000000000000000000006001600160a01b0316906340c10f1990604401600060405180830381600087803b15801561134557600080fd5b505af1158015611359573d6000803e3d6000fd5b5050336000908152600a60205260408120805485945090925061137d908490611793565b9091555050604051819033907f0c3becdb286011bdfd6932f09baa4447106b6078f69fb6b49891a69b1541706490600090a3610ebb60018055565b6113c0611422565b6001600160a01b0381166113ef57604051631e4fbdf760e01b8152600060048201526024015b60405180910390fd5b610ebb8161144f565b60026001540361141b57604051633ee5aeb560e01b815260040160405180910390fd5b6002600155565b6000546001600160a01b031633146107e25760405163118cdaa760e01b81523360048201526024016113e6565b600080546001600160a01b038381166001600160a01b0319831681178455604051919092169283917f8be0079c531659141344cd1fd0a4f28419497f9722a3daafe3b4186f6b6457e09190a35050565b6000602082840312156114b157600080fd5b5035919050565b80356001600160a01b038116811461061d57600080fd5b6000602082840312156114e157600080fd5b6114ea826114b8565b9392505050565b6020808252825182820181905260009190848201906040850190845b818110156115295783518352928401929184019160010161150d565b50909695505050505050565b6000806040838503121561154857600080fd5b50508035926020909101359150565b634e487b7160e01b600052604160045260246000fd5b6000806000806080858703121561158357600080fd5b843567ffffffffffffffff8082111561159b57600080fd5b818701915087601f8301126115af57600080fd5b8135818111156115c1576115c1611557565b604051601f8201601f19908116603f011681019083821181831017156115e9576115e9611557565b816040528281528a602084870101111561160257600080fd5b8260208601602083013760006020848301015280985050505050506020850135925060408501359150611637606086016114b8565b905092959194509250565b608081526000855180608084015260005b8181101561167057602081890181015160a0868401015201611653565b50600060a082850181019190915260208401969096526040830194909452506001600160a01b03919091166060820152601f909101601f19160101919050565b6000602082840312156116c257600080fd5b5051919050565b634e487b7160e01b600052601160045260246000fd5b80820281158282048414176116f6576116f66116c9565b92915050565b600181811c9082168061171057607f821691505b60208210810361173057634e487b7160e01b600052602260045260246000fd5b50919050565b60008261175357634e487b7160e01b600052601260045260246000fd5b500490565b60006020828403121561176a57600080fd5b815180151581146114ea57600080fd5b60006001820161178c5761178c6116c9565b5060010190565b808201808211156116f6576116f66116c9565b601f8211156117f2576000816000526020600020601f850160051c810160208610156117cf5750805b601f850160051c820191505b818110156117ee578281556001016117db565b5050505b505050565b815167ffffffffffffffff81111561181157611811611557565b6118258161181f84546116fc565b846117a6565b602080601f83116001811461185a57600084156118425750858301515b600019600386901b1c1916600185901b1785556117ee565b600085815260208120601f198616915b828110156118895788860151825594840194600190910190840161186a565b50858210156118a75787850151600019600388901b60f8161c191681555b5050505050600190811b0190555056fea26469706673582212202071d26947561436bafe16cb80dbbe7079b264c052bc89a879e4bc10a551cf6a64736f6c63430008190033a264697066735822122098cef31a5401e0f88398d86ee2a47e42e60f496ffe62d0d7c983a42a7b11a8d164736f6c63430008190033",
        "linkReferences": {}
    },
    "methodIdentifiers": {
        "deployFundingVault(address,address,uint256,uint256,uint256,address)": "001dcefc",
        "getFundingVault(uint256)": "a0671d90",
        "getTotalNumberOfFundingVaults()": "f24552be"
    },
    "id": 31
}