{"abi":[{"type":"constructor","inputs":[{"name":"_platformFee","type":"uint256","internalType":"uint256"}],"stateMutability":"nonpayable"},{"type":"function","name":"deployFundingVault","inputs":[{"name":"_fundingToken","type":"address","internalType":"address"},{"name":"_votingToken","type":"address","internalType":"address"},{"name":"_minRequestableAmount","type":"uint256","internalType":"uint256"},{"name":"_maxRequestableAmount","type":"uint256","internalType":"uint256"},{"name":"_tallyDate","type":"uint256","internalType":"uint256"}],"outputs":[{"name":"","type":"address","internalType":"address"}],"stateMutability":"nonpayable"},{"type":"function","name":"getFundingVault","inputs":[{"name":"_fundingVaultId","type":"uint256","internalType":"uint256"}],"outputs":[{"name":"","type":"address","internalType":"address"}],"stateMutability":"view"},{"type":"function","name":"getPlatformFee","inputs":[],"outputs":[{"name":"","type":"uint256","internalType":"uint256"}],"stateMutability":"view"},{"type":"function","name":"getTotalNumberOfFundingVaults","inputs":[],"outputs":[{"name":"","type":"uint256","internalType":"uint256"}],"stateMutability":"view"},{"type":"function","name":"getTreasury","inputs":[],"outputs":[{"name":"","type":"address","internalType":"address"}],"stateMutability":"view"},{"type":"function","name":"owner","inputs":[],"outputs":[{"name":"","type":"address","internalType":"address"}],"stateMutability":"view"},{"type":"function","name":"renounceOwnership","inputs":[],"outputs":[],"stateMutability":"nonpayable"},{"type":"function","name":"setTreasury","inputs":[{"name":"_treasury","type":"address","internalType":"address"}],"outputs":[],"stateMutability":"nonpayable"},{"type":"function","name":"transferOwnership","inputs":[{"name":"newOwner","type":"address","internalType":"address"}],"outputs":[],"stateMutability":"nonpayable"},{"type":"function","name":"updatePlatformFee","inputs":[{"name":"_platformFee","type":"uint256","internalType":"uint256"}],"outputs":[],"stateMutability":"nonpayable"},{"type":"function","name":"withdrawPlatformFee","inputs":[{"name":"token","type":"address","internalType":"address"}],"outputs":[],"stateMutability":"nonpayable"},{"type":"event","name":"FundingVaultDeployed","inputs":[{"name":"fundingVault","type":"address","indexed":true,"internalType":"address"}],"anonymous":false},{"type":"event","name":"OwnershipTransferred","inputs":[{"name":"previousOwner","type":"address","indexed":true,"internalType":"address"},{"name":"newOwner","type":"address","indexed":true,"internalType":"address"}],"anonymous":false},{"type":"event","name":"TransferTokens","inputs":[{"name":"token","type":"address","indexed":true,"internalType":"address"},{"name":"recepient","type":"address","indexed":true,"internalType":"address"},{"name":"amount","type":"uint256","indexed":false,"internalType":"uint256"}],"anonymous":false},{"type":"error","name":"FairFund__CannotBeAZeroAddress","inputs":[]},{"type":"error","name":"FairFund__MaxRequestableAmountCannotBeZero","inputs":[]},{"type":"error","name":"FairFund__MinRequestableAmountCannotBeGreaterThanMaxRequestableAmount","inputs":[]},{"type":"error","name":"FairFund__TallyDateCannotBeInThePast","inputs":[]},{"type":"error","name":"FairFund__TransferFailed","inputs":[{"name":"token","type":"address","internalType":"address"},{"name":"recepient","type":"address","internalType":"address"},{"name":"amount","type":"uint256","internalType":"uint256"}]},{"type":"error","name":"OwnableInvalidOwner","inputs":[{"name":"owner","type":"address","internalType":"address"}]},{"type":"error","name":"OwnableUnauthorizedAccount","inputs":[{"name":"account","type":"address","internalType":"address"}]},{"type":"error","name":"ReentrancyGuardReentrantCall","inputs":[]}],"bytecode":{"object":"0x608060405234801561000f575f5ffd5b50604051615cfa380380615cfa833981810160405281019061003191906101fe565b335f73ffffffffffffffffffffffffffffffffffffffff168173ffffffffffffffffffffffffffffffffffffffff16036100a2575f6040517f1e4fbdf70000000000000000000000000000000000000000000000000000000081526004016100999190610268565b60405180910390fd5b6100b18161010660201b60201c565b50600180819055503360025f6101000a81548173ffffffffffffffffffffffffffffffffffffffff021916908373ffffffffffffffffffffffffffffffffffffffff1602179055508060058190555050610281565b5f5f5f9054906101000a900473ffffffffffffffffffffffffffffffffffffffff169050815f5f6101000a81548173ffffffffffffffffffffffffffffffffffffffff021916908373ffffffffffffffffffffffffffffffffffffffff1602179055508173ffffffffffffffffffffffffffffffffffffffff168173ffffffffffffffffffffffffffffffffffffffff167f8be0079c531659141344cd1fd0a4f28419497f9722a3daafe3b4186f6b6457e060405160405180910390a35050565b5f5ffd5b5f819050919050565b6101dd816101cb565b81146101e7575f5ffd5b50565b5f815190506101f8816101d4565b92915050565b5f60208284031215610213576102126101c7565b5b5f610220848285016101ea565b91505092915050565b5f73ffffffffffffffffffffffffffffffffffffffff82169050919050565b5f61025282610229565b9050919050565b61026281610248565b82525050565b5f60208201905061027b5f830184610259565b92915050565b615a6c8061028e5f395ff3fe608060405234801561000f575f5ffd5b50600436106100a7575f3560e01c8063a0671d901161006f578063a0671d901461013f578063aa0b59881461016f578063c51769411461018b578063f0f44260146101a7578063f24552be146101c3578063f2fde38b146101e1576100a7565b80633b19e84a146100ab5780635800920e146100c95780636ea8bc10146100f9578063715018a6146101175780638da5cb5b14610121575b5f5ffd5b6100b36101fd565b6040516100c09190610dd5565b60405180910390f35b6100e360048036038101906100de9190610e4f565b610225565b6040516100f09190610dd5565b60405180910390f35b6101016105d4565b60405161010e9190610ed5565b60405180910390f35b61011f6105dd565b005b6101296105f0565b6040516101369190610dd5565b60405180910390f35b61015960048036038101906101549190610eee565b610617565b6040516101669190610dd5565b60405180910390f35b61018960048036038101906101849190610eee565b610650565b005b6101a560048036038101906101a09190610f19565b610662565b005b6101c160048036038101906101bc9190610f19565b6108eb565b005b6101cb610936565b6040516101d89190610ed5565b60405180910390f35b6101fb60048036038101906101f69190610f19565b61093f565b005b5f60025f9054906101000a900473ffffffffffffffffffffffffffffffffffffffff16905090565b5f5f73ffffffffffffffffffffffffffffffffffffffff168673ffffffffffffffffffffffffffffffffffffffff16148061028b57505f73ffffffffffffffffffffffffffffffffffffffff168573ffffffffffffffffffffffffffffffffffffffff16145b156102c2576040517fbb59defb00000000000000000000000000000000000000000000000000000000815260040160405180910390fd5b428210156102fc576040517fc12866ab00000000000000000000000000000000000000000000000000000000815260040160405180910390fd5b82841115610336576040517f38ce4da300000000000000000000000000000000000000000000000000000000815260040160405180910390fd5b5f830361036f576040517fcd56a10200000000000000000000000000000000000000000000000000000000815260040160405180910390fd5b60035f81548092919061038190610f71565b91905055505f60035490505f610396826109c3565b90505f816040516020016103aa9190611030565b60405160208183030381529060405290505f826040516020016103cd919061107b565b60405160208183030381529060405290505f8973ffffffffffffffffffffffffffffffffffffffff1663313ce5676040518163ffffffff1660e01b8152600401602060405180830381865afa158015610428573d5f5f3e3d5ffd5b505050506040513d601f19601f8201168201806040525081019061044c91906110d6565b60ff1690505f83838360405161046190610d7c565b61046d93929190611159565b604051809103905ff080158015610486573d5f5f3e3d5ffd5b5090505f8c8c838d8d8d3060405161049d90610d89565b6104ad979695949392919061119c565b604051809103905ff0801580156104c6573d5f5f3e3d5ffd5b5090508173ffffffffffffffffffffffffffffffffffffffff1663f2fde38b826040518263ffffffff1660e01b81526004016105029190610dd5565b5f604051808303815f87803b158015610519575f5ffd5b505af115801561052b573d5f5f3e3d5ffd5b505050508060045f8981526020019081526020015f205f6101000a81548173ffffffffffffffffffffffffffffffffffffffff021916908373ffffffffffffffffffffffffffffffffffffffff1602179055508073ffffffffffffffffffffffffffffffffffffffff167f88890f101e05f842f970e80a57886fda0f59e782dfe4c9c65bd7ae6c5b1ce97560405160405180910390a28097505050505050505095945050505050565b5f600554905090565b6105e5610a8d565b6105ee5f610b14565b565b5f5f5f9054906101000a900473ffffffffffffffffffffffffffffffffffffffff16905090565b5f60045f8381526020019081526020015f205f9054906101000a900473ffffffffffffffffffffffffffffffffffffffff169050919050565b610658610a8d565b8060058190555050565b61066a610bd5565b5f73ffffffffffffffffffffffffffffffffffffffff168173ffffffffffffffffffffffffffffffffffffffff16036106cf576040517fbb59defb00000000000000000000000000000000000000000000000000000000815260040160405180910390fd5b5f8173ffffffffffffffffffffffffffffffffffffffff166370a08231306040518263ffffffff1660e01b81526004016107099190610dd5565b602060405180830381865afa158015610724573d5f5f3e3d5ffd5b505050506040513d601f19601f82011682018060405250810190610748919061121d565b90505f81146108df575f8273ffffffffffffffffffffffffffffffffffffffff1663a9059cbb60025f9054906101000a900473ffffffffffffffffffffffffffffffffffffffff16846040518363ffffffff1660e01b81526004016107ae929190611248565b6020604051808303815f875af11580156107ca573d5f5f3e3d5ffd5b505050506040513d601f19601f820116820180604052508101906107ee91906112a4565b905080610857578260025f9054906101000a900473ffffffffffffffffffffffffffffffffffffffff16836040517fd4398fe600000000000000000000000000000000000000000000000000000000815260040161084e939291906112cf565b60405180910390fd5b60025f9054906101000a900473ffffffffffffffffffffffffffffffffffffffff1673ffffffffffffffffffffffffffffffffffffffff168373ffffffffffffffffffffffffffffffffffffffff167f58908a0fd75f7db2ca358a37b3076327d374ee1403d013a2efbc255535501edf846040516108d59190610ed5565b60405180910390a3505b506108e8610c1b565b50565b6108f3610a8d565b8060025f6101000a81548173ffffffffffffffffffffffffffffffffffffffff021916908373ffffffffffffffffffffffffffffffffffffffff16021790555050565b5f600354905090565b610947610a8d565b5f73ffffffffffffffffffffffffffffffffffffffff168173ffffffffffffffffffffffffffffffffffffffff16036109b7575f6040517f1e4fbdf70000000000000000000000000000000000000000000000000000000081526004016109ae9190610dd5565b60405180910390fd5b6109c081610b14565b50565b60605f60016109d184610c24565b0190505f8167ffffffffffffffff8111156109ef576109ee611304565b5b6040519080825280601f01601f191660200182016040528015610a215781602001600182028036833780820191505090505b5090505f82602001820190505b600115610a82578080600190039150507f3031323334353637383961626364656600000000000000000000000000000000600a86061a8153600a8581610a7757610a76611331565b5b0494505f8503610a2e575b819350505050919050565b610a95610d75565b73ffffffffffffffffffffffffffffffffffffffff16610ab36105f0565b73ffffffffffffffffffffffffffffffffffffffff1614610b1257610ad6610d75565b6040517f118cdaa7000000000000000000000000000000000000000000000000000000008152600401610b099190610dd5565b60405180910390fd5b565b5f5f5f9054906101000a900473ffffffffffffffffffffffffffffffffffffffff169050815f5f6101000a81548173ffffffffffffffffffffffffffffffffffffffff021916908373ffffffffffffffffffffffffffffffffffffffff1602179055508173ffffffffffffffffffffffffffffffffffffffff168173ffffffffffffffffffffffffffffffffffffffff167f8be0079c531659141344cd1fd0a4f28419497f9722a3daafe3b4186f6b6457e060405160405180910390a35050565b600260015403610c11576040517f3ee5aeb500000000000000000000000000000000000000000000000000000000815260040160405180910390fd5b6002600181905550565b60018081905550565b5f5f5f90507a184f03e93ff9f4daa797ed6e38ed64bf6a1f0100000000000000008310610c80577a184f03e93ff9f4daa797ed6e38ed64bf6a1f0100000000000000008381610c7657610c75611331565b5b0492506040810190505b6d04ee2d6d415b85acef81000000008310610cbd576d04ee2d6d415b85acef81000000008381610cb357610cb2611331565b5b0492506020810190505b662386f26fc100008310610cec57662386f26fc100008381610ce257610ce1611331565b5b0492506010810190505b6305f5e1008310610d15576305f5e1008381610d0b57610d0a611331565b5b0492506008810190505b6127108310610d3a576127108381610d3057610d2f611331565b5b0492506004810190505b60648310610d5d5760648381610d5357610d52611331565b5b0492506002810190505b600a8310610d6c576001810190505b80915050919050565b5f33905090565b6119308061135f83390190565b612da880612c8f83390190565b5f73ffffffffffffffffffffffffffffffffffffffff82169050919050565b5f610dbf82610d96565b9050919050565b610dcf81610db5565b82525050565b5f602082019050610de85f830184610dc6565b92915050565b5f5ffd5b610dfb81610db5565b8114610e05575f5ffd5b50565b5f81359050610e1681610df2565b92915050565b5f819050919050565b610e2e81610e1c565b8114610e38575f5ffd5b50565b5f81359050610e4981610e25565b92915050565b5f5f5f5f5f60a08688031215610e6857610e67610dee565b5b5f610e7588828901610e08565b9550506020610e8688828901610e08565b9450506040610e9788828901610e3b565b9350506060610ea888828901610e3b565b9250506080610eb988828901610e3b565b9150509295509295909350565b610ecf81610e1c565b82525050565b5f602082019050610ee85f830184610ec6565b92915050565b5f60208284031215610f0357610f02610dee565b5b5f610f1084828501610e3b565b91505092915050565b5f60208284031215610f2e57610f2d610dee565b5b5f610f3b84828501610e08565b91505092915050565b7f4e487b71000000000000000000000000000000000000000000000000000000005f52601160045260245ffd5b5f610f7b82610e1c565b91507fffffffffffffffffffffffffffffffffffffffffffffffffffffffffffffffff8203610fad57610fac610f44565b5b600182019050919050565b7f566f74696e6720506f77657220546f6b656e2000000000000000000000000000815250565b5f81519050919050565b5f81905092915050565b8281835e5f83830152505050565b5f61100a82610fde565b6110148185610fe8565b9350611024818560208601610ff2565b80840191505092915050565b5f61103a82610fb8565b60138201915061104a8284611000565b915081905092915050565b7f564f54455f000000000000000000000000000000000000000000000000000000815250565b5f61108582611055565b6005820191506110958284611000565b915081905092915050565b5f60ff82169050919050565b6110b5816110a0565b81146110bf575f5ffd5b50565b5f815190506110d0816110ac565b92915050565b5f602082840312156110eb576110ea610dee565b5b5f6110f8848285016110c2565b91505092915050565b5f82825260208201905092915050565b5f601f19601f8301169050919050565b5f61112b82610fde565b6111358185611101565b9350611145818560208601610ff2565b61114e81611111565b840191505092915050565b5f6060820190508181035f8301526111718186611121565b905081810360208301526111858185611121565b90506111946040830184610ec6565b949350505050565b5f60e0820190506111af5f83018a610dc6565b6111bc6020830189610dc6565b6111c96040830188610dc6565b6111d66060830187610ec6565b6111e36080830186610ec6565b6111f060a0830185610ec6565b6111fd60c0830184610dc6565b98975050505050505050565b5f8151905061121781610e25565b92915050565b5f6020828403121561123257611231610dee565b5b5f61123f84828501611209565b91505092915050565b5f60408201905061125b5f830185610dc6565b6112686020830184610ec6565b9392505050565b5f8115159050919050565b6112838161126f565b811461128d575f5ffd5b50565b5f8151905061129e8161127a565b92915050565b5f602082840312156112b9576112b8610dee565b5b5f6112c684828501611290565b91505092915050565b5f6060820190506112e25f830186610dc6565b6112ef6020830185610dc6565b6112fc6040830184610ec6565b949350505050565b7f4e487b71000000000000000000000000000000000000000000000000000000005f52604160045260245ffd5b7f4e487b71000000000000000000000000000000000000000000000000000000005f52601260045260245ffdfe608060405234801561000f575f5ffd5b5060405161193038038061193083398181016040528101906100319190610328565b338383816003908161004391906105b7565b50806004908161005391906105b7565b5050505f73ffffffffffffffffffffffffffffffffffffffff168173ffffffffffffffffffffffffffffffffffffffff16036100c6575f6040517f1e4fbdf70000000000000000000000000000000000000000000000000000000081526004016100bd91906106c5565b60405180910390fd5b6100d5816100e560201b60201c565b50806006819055505050506106de565b5f60055f9054906101000a900473ffffffffffffffffffffffffffffffffffffffff1690508160055f6101000a81548173ffffffffffffffffffffffffffffffffffffffff021916908373ffffffffffffffffffffffffffffffffffffffff1602179055508173ffffffffffffffffffffffffffffffffffffffff168173ffffffffffffffffffffffffffffffffffffffff167f8be0079c531659141344cd1fd0a4f28419497f9722a3daafe3b4186f6b6457e060405160405180910390a35050565b5f604051905090565b5f5ffd5b5f5ffd5b5f5ffd5b5f5ffd5b5f601f19601f8301169050919050565b7f4e487b71000000000000000000000000000000000000000000000000000000005f52604160045260245ffd5b610207826101c1565b810181811067ffffffffffffffff82111715610226576102256101d1565b5b80604052505050565b5f6102386101a8565b905061024482826101fe565b919050565b5f67ffffffffffffffff821115610263576102626101d1565b5b61026c826101c1565b9050602081019050919050565b8281835e5f83830152505050565b5f61029961029484610249565b61022f565b9050828152602081018484840111156102b5576102b46101bd565b5b6102c0848285610279565b509392505050565b5f82601f8301126102dc576102db6101b9565b5b81516102ec848260208601610287565b91505092915050565b5f819050919050565b610307816102f5565b8114610311575f5ffd5b50565b5f81519050610322816102fe565b92915050565b5f5f5f6060848603121561033f5761033e6101b1565b5b5f84015167ffffffffffffffff81111561035c5761035b6101b5565b5b610368868287016102c8565b935050602084015167ffffffffffffffff811115610389576103886101b5565b5b610395868287016102c8565b92505060406103a686828701610314565b9150509250925092565b5f81519050919050565b7f4e487b71000000000000000000000000000000000000000000000000000000005f52602260045260245ffd5b5f60028204905060018216806103fe57607f821691505b602082108103610411576104106103ba565b5b50919050565b5f819050815f5260205f209050919050565b5f6020601f8301049050919050565b5f82821b905092915050565b5f600883026104737fffffffffffffffffffffffffffffffffffffffffffffffffffffffffffffffff82610438565b61047d8683610438565b95508019841693508086168417925050509392505050565b5f819050919050565b5f6104b86104b36104ae846102f5565b610495565b6102f5565b9050919050565b5f819050919050565b6104d18361049e565b6104e56104dd826104bf565b848454610444565b825550505050565b5f5f905090565b6104fc6104ed565b6105078184846104c8565b505050565b5b8181101561052a5761051f5f826104f4565b60018101905061050d565b5050565b601f82111561056f5761054081610417565b61054984610429565b81016020851015610558578190505b61056c61056485610429565b83018261050c565b50505b505050565b5f82821c905092915050565b5f61058f5f1984600802610574565b1980831691505092915050565b5f6105a78383610580565b9150826002028217905092915050565b6105c0826103b0565b67ffffffffffffffff8111156105d9576105d86101d1565b5b6105e382546103e7565b6105ee82828561052e565b5f60209050601f83116001811461061f575f841561060d578287015190505b610617858261059c565b86555061067e565b601f19841661062d86610417565b5f5b828110156106545784890151825560018201915060208501945060208101905061062f565b86831015610671578489015161066d601f891682610580565b8355505b6001600288020188555050505b505050505050565b5f73ffffffffffffffffffffffffffffffffffffffff82169050919050565b5f6106af82610686565b9050919050565b6106bf816106a5565b82525050565b5f6020820190506106d85f8301846106b6565b92915050565b611245806106eb5f395ff3fe608060405234801561000f575f5ffd5b50600436106100e8575f3560e01c8063715018a61161008a5780639dc29fac116100645780639dc29fac14610238578063a9059cbb14610254578063dd62ed3e14610284578063f2fde38b146102b4576100e8565b8063715018a6146101f25780638da5cb5b146101fc57806395d89b411461021a576100e8565b806323b872dd116100c657806323b872dd14610158578063313ce5671461018857806340c10f19146101a657806370a08231146101c2576100e8565b806306fdde03146100ec578063095ea7b31461010a57806318160ddd1461013a575b5f5ffd5b6100f46102d0565b6040516101019190610ebe565b60405180910390f35b610124600480360381019061011f9190610f6f565b610360565b6040516101319190610fc7565b60405180910390f35b610142610382565b60405161014f9190610fef565b60405180910390f35b610172600480360381019061016d9190611008565b61038b565b60405161017f9190610fc7565b60405180910390f35b6101906103e9565b60405161019d9190611073565b60405180910390f35b6101c060048036038101906101bb9190610f6f565b6103f1565b005b6101dc60048036038101906101d7919061108c565b610407565b6040516101e99190610fef565b60405180910390f35b6101fa61044c565b005b61020461045f565b60405161021191906110c6565b60405180910390f35b610222610487565b60405161022f9190610ebe565b60405180910390f35b610252600480360381019061024d9190610f6f565b610517565b005b61026e60048036038101906102699190610f6f565b61052d565b60405161027b9190610fc7565b60405180910390f35b61029e600480360381019061029991906110df565b61054f565b6040516102ab9190610fef565b60405180910390f35b6102ce60048036038101906102c9919061108c565b6105d1565b005b6060600380546102df9061114a565b80601f016020809104026020016040519081016040528092919081815260200182805461030b9061114a565b80156103565780601f1061032d57610100808354040283529160200191610356565b820191905f5260205f20905b81548152906001019060200180831161033957829003601f168201915b5050505050905090565b5f5f61036a610655565b905061037781858561065c565b600191505092915050565b5f600254905090565b5f61039461045f565b73ffffffffffffffffffffffffffffffffffffffff163373ffffffffffffffffffffffffffffffffffffffff16146103d3576103d184848461066e565b505b6103de84848461069c565b600190509392505050565b5f6012905090565b6103f961078c565b6104038282610813565b5050565b5f5f5f8373ffffffffffffffffffffffffffffffffffffffff1673ffffffffffffffffffffffffffffffffffffffff1681526020019081526020015f20549050919050565b61045461078c565b61045d5f610892565b565b5f60055f9054906101000a900473ffffffffffffffffffffffffffffffffffffffff16905090565b6060600480546104969061114a565b80601f01602080910402602001604051908101604052809291908181526020018280546104c29061114a565b801561050d5780601f106104e45761010080835404028352916020019161050d565b820191905f5260205f20905b8154815290600101906020018083116104f057829003601f168201915b5050505050905090565b61051f61078c565b6105298282610955565b5050565b5f5f610537610655565b905061054481858561069c565b600191505092915050565b5f60015f8473ffffffffffffffffffffffffffffffffffffffff1673ffffffffffffffffffffffffffffffffffffffff1681526020019081526020015f205f8373ffffffffffffffffffffffffffffffffffffffff1673ffffffffffffffffffffffffffffffffffffffff1681526020019081526020015f2054905092915050565b6105d961078c565b5f73ffffffffffffffffffffffffffffffffffffffff168173ffffffffffffffffffffffffffffffffffffffff1603610649575f6040517f1e4fbdf700000000000000000000000000000000000000000000000000000000815260040161064091906110c6565b60405180910390fd5b61065281610892565b50565b5f33905090565b61066983838360016109d4565b505050565b5f5f610678610655565b9050610685858285610ba3565b61069085858561069c565b60019150509392505050565b5f73ffffffffffffffffffffffffffffffffffffffff168373ffffffffffffffffffffffffffffffffffffffff160361070c575f6040517f96c6fd1e00000000000000000000000000000000000000000000000000000000815260040161070391906110c6565b60405180910390fd5b5f73ffffffffffffffffffffffffffffffffffffffff168273ffffffffffffffffffffffffffffffffffffffff160361077c575f6040517fec442f0500000000000000000000000000000000000000000000000000000000815260040161077391906110c6565b60405180910390fd5b610787838383610c35565b505050565b610794610655565b73ffffffffffffffffffffffffffffffffffffffff166107b261045f565b73ffffffffffffffffffffffffffffffffffffffff1614610811576107d5610655565b6040517f118cdaa700000000000000000000000000000000000000000000000000000000815260040161080891906110c6565b60405180910390fd5b565b5f73ffffffffffffffffffffffffffffffffffffffff168273ffffffffffffffffffffffffffffffffffffffff1603610883575f6040517fec442f0500000000000000000000000000000000000000000000000000000000815260040161087a91906110c6565b60405180910390fd5b61088e5f8383610c35565b5050565b5f60055f9054906101000a900473ffffffffffffffffffffffffffffffffffffffff1690508160055f6101000a81548173ffffffffffffffffffffffffffffffffffffffff021916908373ffffffffffffffffffffffffffffffffffffffff1602179055508173ffffffffffffffffffffffffffffffffffffffff168173ffffffffffffffffffffffffffffffffffffffff167f8be0079c531659141344cd1fd0a4f28419497f9722a3daafe3b4186f6b6457e060405160405180910390a35050565b5f73ffffffffffffffffffffffffffffffffffffffff168273ffffffffffffffffffffffffffffffffffffffff16036109c5575f6040517f96c6fd1e0000000000000000000000000000000000000000000000000000000081526004016109bc91906110c6565b60405180910390fd5b6109d0825f83610c35565b5050565b5f73ffffffffffffffffffffffffffffffffffffffff168473ffffffffffffffffffffffffffffffffffffffff1603610a44575f6040517fe602df05000000000000000000000000000000000000000000000000000000008152600401610a3b91906110c6565b60405180910390fd5b5f73ffffffffffffffffffffffffffffffffffffffff168373ffffffffffffffffffffffffffffffffffffffff1603610ab4575f6040517f94280d62000000000000000000000000000000000000000000000000000000008152600401610aab91906110c6565b60405180910390fd5b8160015f8673ffffffffffffffffffffffffffffffffffffffff1673ffffffffffffffffffffffffffffffffffffffff1681526020019081526020015f205f8573ffffffffffffffffffffffffffffffffffffffff1673ffffffffffffffffffffffffffffffffffffffff1681526020019081526020015f20819055508015610b9d578273ffffffffffffffffffffffffffffffffffffffff168473ffffffffffffffffffffffffffffffffffffffff167f8c5be1e5ebec7d5bd14f71427d1e84f3dd0314c0f7b2291e5b200ac8c7c3b92584604051610b949190610fef565b60405180910390a35b50505050565b5f610bae848461054f565b90507fffffffffffffffffffffffffffffffffffffffffffffffffffffffffffffffff8114610c2f5781811015610c20578281836040517ffb8f41b2000000000000000000000000000000000000000000000000000000008152600401610c179392919061117a565b60405180910390fd5b610c2e84848484035f6109d4565b5b50505050565b5f73ffffffffffffffffffffffffffffffffffffffff168373ffffffffffffffffffffffffffffffffffffffff1603610c85578060025f828254610c7991906111dc565b92505081905550610d53565b5f5f5f8573ffffffffffffffffffffffffffffffffffffffff1673ffffffffffffffffffffffffffffffffffffffff1681526020019081526020015f2054905081811015610d0e578381836040517fe450d38c000000000000000000000000000000000000000000000000000000008152600401610d059392919061117a565b60405180910390fd5b8181035f5f8673ffffffffffffffffffffffffffffffffffffffff1673ffffffffffffffffffffffffffffffffffffffff1681526020019081526020015f2081905550505b5f73ffffffffffffffffffffffffffffffffffffffff168273ffffffffffffffffffffffffffffffffffffffff1603610d9a578060025f8282540392505081905550610de4565b805f5f8473ffffffffffffffffffffffffffffffffffffffff1673ffffffffffffffffffffffffffffffffffffffff1681526020019081526020015f205f82825401925050819055505b8173ffffffffffffffffffffffffffffffffffffffff168373ffffffffffffffffffffffffffffffffffffffff167fddf252ad1be2c89b69c2b068fc378daa952ba7f163c4a11628f55a4df523b3ef83604051610e419190610fef565b60405180910390a3505050565b5f81519050919050565b5f82825260208201905092915050565b8281835e5f83830152505050565b5f601f19601f8301169050919050565b5f610e9082610e4e565b610e9a8185610e58565b9350610eaa818560208601610e68565b610eb381610e76565b840191505092915050565b5f6020820190508181035f830152610ed68184610e86565b905092915050565b5f5ffd5b5f73ffffffffffffffffffffffffffffffffffffffff82169050919050565b5f610f0b82610ee2565b9050919050565b610f1b81610f01565b8114610f25575f5ffd5b50565b5f81359050610f3681610f12565b92915050565b5f819050919050565b610f4e81610f3c565b8114610f58575f5ffd5b50565b5f81359050610f6981610f45565b92915050565b5f5f60408385031215610f8557610f84610ede565b5b5f610f9285828601610f28565b9250506020610fa385828601610f5b565b9150509250929050565b5f8115159050919050565b610fc181610fad565b82525050565b5f602082019050610fda5f830184610fb8565b92915050565b610fe981610f3c565b82525050565b5f6020820190506110025f830184610fe0565b92915050565b5f5f5f6060848603121561101f5761101e610ede565b5b5f61102c86828701610f28565b935050602061103d86828701610f28565b925050604061104e86828701610f5b565b9150509250925092565b5f60ff82169050919050565b61106d81611058565b82525050565b5f6020820190506110865f830184611064565b92915050565b5f602082840312156110a1576110a0610ede565b5b5f6110ae84828501610f28565b91505092915050565b6110c081610f01565b82525050565b5f6020820190506110d95f8301846110b7565b92915050565b5f5f604083850312156110f5576110f4610ede565b5b5f61110285828601610f28565b925050602061111385828601610f28565b9150509250929050565b7f4e487b71000000000000000000000000000000000000000000000000000000005f52602260045260245ffd5b5f600282049050600182168061116157607f821691505b6020821081036111745761117361111d565b5b50919050565b5f60608201905061118d5f8301866110b7565b61119a6020830185610fe0565b6111a76040830184610fe0565b949350505050565b7f4e487b71000000000000000000000000000000000000000000000000000000005f52601160045260245ffd5b5f6111e682610f3c565b91506111f183610f3c565b9250828201905080821115611209576112086111af565b5b9291505056fea2646970667358221220b45a0e64324d5f90f707dbba13f40895dbf37be53e09e1f671b5607178b6ef3c64736f6c634300081c0033610120604052348015610010575f5ffd5b50604051612da8380380612da8833981810160405281019061003291906101e4565b60015f819055508161010081815250508673ffffffffffffffffffffffffffffffffffffffff1660808173ffffffffffffffffffffffffffffffffffffffff16815250508573ffffffffffffffffffffffffffffffffffffffff1660a08173ffffffffffffffffffffffffffffffffffffffff16815250508473ffffffffffffffffffffffffffffffffffffffff1660c08173ffffffffffffffffffffffffffffffffffffffff168152505083600281905550826003819055505f6004819055505f6005819055505f60065f6101000a81548160ff0219169083151502179055508073ffffffffffffffffffffffffffffffffffffffff1660e08173ffffffffffffffffffffffffffffffffffffffff168152505050505050505050610281565b5f5ffd5b5f73ffffffffffffffffffffffffffffffffffffffff82169050919050565b5f61018082610157565b9050919050565b61019081610176565b811461019a575f5ffd5b50565b5f815190506101ab81610187565b92915050565b5f819050919050565b6101c3816101b1565b81146101cd575f5ffd5b50565b5f815190506101de816101ba565b92915050565b5f5f5f5f5f5f5f60e0888a0312156101ff576101fe610153565b5b5f61020c8a828b0161019d565b975050602061021d8a828b0161019d565b965050604061022e8a828b0161019d565b955050606061023f8a828b016101d0565b94505060806102508a828b016101d0565b93505060a06102618a828b016101d0565b92505060c06102728a828b0161019d565b91505092959891949750929550565b60805160a05160c05160e05161010051612a5e61034a5f395f818161041f0152818161082601528181610a2f0152818161130101526119a501525f8181610aea01528181610e9101528181610f4901526112da01525f81816104c1015281816107650152818161105b0152818161112f01528181611247015281816113280152611eb501525f818161093c0152818161197701528181611d470152611e1701525f8181610cef01528181610e55015281816113c6015281816114450152611bd20152612a5e5ff3fe608060405234801561000f575f5ffd5b506004361061014b575f3560e01c806370467ecb116100c1578063bb39d1b91161007a578063bb39d1b914610357578063c7f758a814610387578063d5bd8d64146103ba578063e28c3b19146103d8578063ee38db95146103f6578063f207564e146104005761014b565b806370467ecb146102a557806372630531146102c35780637770477d146102e15780637fa107c9146102ff57806396c8370c1461031d578063b6b55f251461033b5761014b565b806331cbd2951161011357806331cbd295146101f7578063323bef09146102155780633644e2c2146102455780633a6a4d2e1461024f5780634595fbfc14610259578063556f6cc0146102895761014b565b80630e3921551461014f5780631a5007dd1461017f5780631cdb13d91461019d57806324bd06fc146101bb57806328e952a9146101d9575b5f5ffd5b6101696004803603810190610164919061206e565b61041c565b60405161017691906120a8565b60405180910390f35b61018761073e565b60405161019491906120a8565b60405180910390f35b6101a5610747565b6040516101b291906120a8565b60405180910390f35b6101c3610750565b6040516101d091906120a8565b60405180910390f35b6101e1610759565b6040516101ee91906120a8565b60405180910390f35b6101ff610762565b60405161020c9190612100565b60405180910390f35b61022f600480360381019061022a9190612143565b610789565b60405161023c9190612225565b60405180910390f35b61024d61081c565b005b610257610a25565b005b610273600480360381019061026e9190612143565b610fc3565b60405161028091906120a8565b60405180910390f35b6102a3600480360381019061029e9190612245565b611009565b005b6102ad611244565b6040516102ba91906120a8565b60405180910390f35b6102cb6112d7565b6040516102d89190612100565b60405180910390f35b6102e96112fe565b6040516102f691906120a8565b60405180910390f35b610307611325565b60405161031491906120a8565b60405180910390f35b6103256113c3565b6040516103329190612100565b60405180910390f35b6103556004803603810190610350919061206e565b6113ea565b005b610371600480360381019061036c91906123bf565b611572565b60405161037e91906120a8565b60405180910390f35b6103a1600480360381019061039c919061206e565b61182c565b6040516103b1949392919061249f565b60405180910390f35b6103c261196b565b6040516103cf91906120a8565b60405180910390f35b6103e0611974565b6040516103ed9190612100565b60405180910390f35b6103fe61199b565b005b61041a6004803603810190610415919061206e565b611d03565b005b5f7f0000000000000000000000000000000000000000000000000000000000000000421015610477576040517fc62c35d500000000000000000000000000000000000000000000000000000000815260040160405180910390fd5b5f82111580610487575060015482115b156104be576040517f0a54249500000000000000000000000000000000000000000000000000000000815260040160405180910390fd5b5f7f000000000000000000000000000000000000000000000000000000000000000073ffffffffffffffffffffffffffffffffffffffff166318160ddd6040518163ffffffff1660e01b8152600401602060405180830381865afa158015610528573d5f5f3e3d5ffd5b505050506040513d601f19601f8201168201806040525081019061054c91906124fd565b90505f8103610587576040517f62c3f32e00000000000000000000000000000000000000000000000000000000815260040160405180910390fd5b5f670de0b6b3a764000060095f8681526020019081526020015f20546105ad9190612555565b90505f60085f8681526020019081526020015f206040518060800160405290815f820180546105db906125c3565b80601f0160208091040260200160405190810160405280929190818152602001828054610607906125c3565b80156106525780601f1061062957610100808354040283529160200191610652565b820191905f5260205f20905b81548152906001019060200180831161063557829003601f168201915b505050505081526020016001820154815260200160028201548152602001600382015f9054906101000a900473ffffffffffffffffffffffffffffffffffffffff1673ffffffffffffffffffffffffffffffffffffffff1673ffffffffffffffffffffffffffffffffffffffff168152505090505f670de0b6b3a764000084846106dc9190612620565b6004546106e99190612555565b6106f39190612620565b90505f82602001518210159050801561073057826040015182111561072357826040015195505050505050610739565b8195505050505050610739565b5f955050505050505b919050565b5f600154905090565b5f600254905090565b5f600354905090565b5f600454905090565b5f7f0000000000000000000000000000000000000000000000000000000000000000905090565b606060075f8373ffffffffffffffffffffffffffffffffffffffff1673ffffffffffffffffffffffffffffffffffffffff1681526020019081526020015f2080548060200260200160405190810160405280929190818152602001828054801561081057602002820191905f5260205f20905b8154815260200190600101908083116107fc575b50505050509050919050565b610824611fdd565b7f000000000000000000000000000000000000000000000000000000000000000042101561087e576040517fc62c35d500000000000000000000000000000000000000000000000000000000815260040160405180910390fd5b5f600a5f3373ffffffffffffffffffffffffffffffffffffffff1673ffffffffffffffffffffffffffffffffffffffff1681526020019081526020015f205490505f81116108f8576040517f58fcece600000000000000000000000000000000000000000000000000000000815260040160405180910390fd5b5f600a5f3373ffffffffffffffffffffffffffffffffffffffff1673ffffffffffffffffffffffffffffffffffffffff1681526020019081526020015f20819055507f000000000000000000000000000000000000000000000000000000000000000073ffffffffffffffffffffffffffffffffffffffff1663a9059cbb33836040518363ffffffff1660e01b8152600401610995929190612650565b6020604051808303815f875af11580156109b1573d5f5f3e3d5ffd5b505050506040513d601f19601f820116820180604052508101906109d591906126ac565b50803373ffffffffffffffffffffffffffffffffffffffff167fada8b88f0652690c97e2c67433a0d69ead55259f8d2037887cd88d0db849e20860405160405180910390a350610a23612021565b565b610a2d611fdd565b7f0000000000000000000000000000000000000000000000000000000000000000421015610a87576040517fc62c35d500000000000000000000000000000000000000000000000000000000815260040160405180910390fd5b60065f9054906101000a900460ff1615610acd576040517fb7d931f400000000000000000000000000000000000000000000000000000000815260040160405180910390fd5b600160065f6101000a81548160ff0219169083151502179055505f7f000000000000000000000000000000000000000000000000000000000000000073ffffffffffffffffffffffffffffffffffffffff16636ea8bc106040518163ffffffff1660e01b8152600401602060405180830381865afa158015610b51573d5f5f3e3d5ffd5b505050506040513d601f19601f82011682018060405250810190610b7591906124fd565b90505f5f90505f600190505b6001548111610e49575f610b948261041c565b90505f811115610e35575f60085f8481526020019081526020015f206040518060800160405290815f82018054610bca906125c3565b80601f0160208091040260200160405190810160405280929190818152602001828054610bf6906125c3565b8015610c415780601f10610c1857610100808354040283529160200191610c41565b820191905f5260205f20905b815481529060010190602001808311610c2457829003601f168201915b505050505081526020016001820154815260200160028201548152602001600382015f9054906101000a900473ffffffffffffffffffffffffffffffffffffffff1673ffffffffffffffffffffffffffffffffffffffff1673ffffffffffffffffffffffffffffffffffffffff168152505090505f60648684610cc49190612555565b610cce9190612620565b90508083610cdc91906126d7565b92508085610cea919061270a565b94505f7f000000000000000000000000000000000000000000000000000000000000000073ffffffffffffffffffffffffffffffffffffffff1663a9059cbb8460600151866040518363ffffffff1660e01b8152600401610d4c929190612650565b6020604051808303815f875af1158015610d68573d5f5f3e3d5ffd5b505050506040513d601f19601f82011682018060405250810190610d8c91906126ac565b905080610dc5576040517f779f564400000000000000000000000000000000000000000000000000000000815260040160405180910390fd5b8184610dd1919061270a565b60055f828254610de1919061270a565b9250508190555083836060015173ffffffffffffffffffffffffffffffffffffffff16867f9f5926601e7fc353505f05fae61282ae5d67b716f95656849456e6aa7bbbbb5f60405160405180910390a45050505b508080610e419061273d565b915050610b81565b505f811115610fb7575f7f000000000000000000000000000000000000000000000000000000000000000073ffffffffffffffffffffffffffffffffffffffff1663a9059cbb7f0000000000000000000000000000000000000000000000000000000000000000846040518363ffffffff1660e01b8152600401610ece929190612650565b6020604051808303815f875af1158015610eea573d5f5f3e3d5ffd5b505050506040513d601f19601f82011682018060405250810190610f0e91906126ac565b905080610f47576040517f779f564400000000000000000000000000000000000000000000000000000000815260040160405180910390fd5b7f000000000000000000000000000000000000000000000000000000000000000073ffffffffffffffffffffffffffffffffffffffff167f78960d0b6d9da496cfe65faff867ec64774b887e2991495bb66abaa7afb1ddeb83604051610fad91906120a8565b60405180910390a2505b5050610fc1612021565b565b5f600a5f8373ffffffffffffffffffffffffffffffffffffffff1673ffffffffffffffffffffffffffffffffffffffff1681526020019081526020015f20549050919050565b611011611fdd565b5f82111580611021575060015482115b15611058576040517f0a54249500000000000000000000000000000000000000000000000000000000815260040160405180910390fd5b5f7f000000000000000000000000000000000000000000000000000000000000000073ffffffffffffffffffffffffffffffffffffffff166370a08231336040518263ffffffff1660e01b81526004016110b29190612100565b602060405180830381865afa1580156110cd573d5f5f3e3d5ffd5b505050506040513d601f19601f820116820180604052508101906110f191906124fd565b90508082111561112d576040517f4144687100000000000000000000000000000000000000000000000000000000815260040160405180910390fd5b7f000000000000000000000000000000000000000000000000000000000000000073ffffffffffffffffffffffffffffffffffffffff166323b872dd3330856040518463ffffffff1660e01b815260040161118a93929190612784565b6020604051808303815f875af11580156111a6573d5f5f3e3d5ffd5b505050506040513d601f19601f820116820180604052508101906111ca91906126ac565b508160095f8581526020019081526020015f205f8282546111eb919061270a565b9250508190555081833373ffffffffffffffffffffffffffffffffffffffff167f4f320d0dd50d47ce5b5d001a0fc303f39b669f9e6adf87bcf899dc4a2b9a80cd60405160405180910390a450611240612021565b5050565b5f7f000000000000000000000000000000000000000000000000000000000000000073ffffffffffffffffffffffffffffffffffffffff166318160ddd6040518163ffffffff1660e01b8152600401602060405180830381865afa1580156112ae573d5f5f3e3d5ffd5b505050506040513d601f19601f820116820180604052508101906112d291906124fd565b905090565b5f7f0000000000000000000000000000000000000000000000000000000000000000905090565b5f7f0000000000000000000000000000000000000000000000000000000000000000905090565b5f7f000000000000000000000000000000000000000000000000000000000000000073ffffffffffffffffffffffffffffffffffffffff166370a08231306040518263ffffffff1660e01b815260040161137f9190612100565b602060405180830381865afa15801561139a573d5f5f3e3d5ffd5b505050506040513d601f19601f820116820180604052508101906113be91906124fd565b905090565b5f7f0000000000000000000000000000000000000000000000000000000000000000905090565b6113f2611fdd565b5f811161142b576040517f58fcece600000000000000000000000000000000000000000000000000000000815260040160405180910390fd5b8060045f82825461143c919061270a565b925050819055507f000000000000000000000000000000000000000000000000000000000000000073ffffffffffffffffffffffffffffffffffffffff166323b872dd3330846040518463ffffffff1660e01b81526004016114a093929190612784565b6020604051808303815f875af11580156114bc573d5f5f3e3d5ffd5b505050506040513d601f19601f820116820180604052508101906114e091906126ac565b5080600b5f3373ffffffffffffffffffffffffffffffffffffffff1673ffffffffffffffffffffffffffffffffffffffff1681526020019081526020015f2081905550803373ffffffffffffffffffffffffffffffffffffffff167f697042ef5da31e8cc8af5610bbeda31e034ff7c72945a28c25a38d2c7a38f5f560405160405180910390a361156f612021565b50565b5f61157b611fdd565b5f8551036115b5576040517f4833e9c000000000000000000000000000000000000000000000000000000000815260040160405180910390fd5b6002548410806115c6575060035483115b156115fd576040517f4144687100000000000000000000000000000000000000000000000000000000815260040160405180910390fd5b82841115611637576040517fd292434b00000000000000000000000000000000000000000000000000000000815260040160405180910390fd5b5f73ffffffffffffffffffffffffffffffffffffffff168273ffffffffffffffffffffffffffffffffffffffff160361169c576040517f7d9c727800000000000000000000000000000000000000000000000000000000815260040160405180910390fd5b60015f8154809291906116ae9061273d565b919050555060405180608001604052808681526020018581526020018481526020018373ffffffffffffffffffffffffffffffffffffffff1681525060085f60015481526020019081526020015f205f820151815f0190816117109190612959565b5060208201518160010155604082015181600201556060820151816003015f6101000a81548173ffffffffffffffffffffffffffffffffffffffff021916908373ffffffffffffffffffffffffffffffffffffffff16021790555090505060075f3373ffffffffffffffffffffffffffffffffffffffff1673ffffffffffffffffffffffffffffffffffffffff1681526020019081526020015f20600154908060018154018082558091505060019003905f5260205f20015f90919091909150556001543373ffffffffffffffffffffffffffffffffffffffff167f9502d7618553b38b99edbe5d1547756cc9ab18db5ddd0674b051490ca4e2fb4c60405160405180910390a36001549050611824612021565b949350505050565b60605f5f5f5f60085f8781526020019081526020015f206040518060800160405290815f8201805461185d906125c3565b80601f0160208091040260200160405190810160405280929190818152602001828054611889906125c3565b80156118d45780601f106118ab576101008083540402835291602001916118d4565b820191905f5260205f20905b8154815290600101906020018083116118b757829003601f168201915b505050505081526020016001820154815260200160028201548152602001600382015f9054906101000a900473ffffffffffffffffffffffffffffffffffffffff1673ffffffffffffffffffffffffffffffffffffffff1673ffffffffffffffffffffffffffffffffffffffff16815250509050805f01518160200151826040015183606001519450945094509450509193509193565b5f600554905090565b5f7f0000000000000000000000000000000000000000000000000000000000000000905090565b6119a3611fdd565b7f00000000000000000000000000000000000000000000000000000000000000004210156119fd576040517fc62c35d500000000000000000000000000000000000000000000000000000000815260040160405180910390fd5b60065f9054906101000a900460ff16611a42576040517f82f3861b00000000000000000000000000000000000000000000000000000000815260040160405180910390fd5b5f600b5f3373ffffffffffffffffffffffffffffffffffffffff1673ffffffffffffffffffffffffffffffffffffffff1681526020019081526020015f205490505f8103611abc576040517fdfe5dfe100000000000000000000000000000000000000000000000000000000815260040160405180910390fd5b5f60045490505f6005549050808211611b01576040517faadb7b6000000000000000000000000000000000000000000000000000000000815260040160405180910390fd5b5f8183611b0e91906126d7565b90505f83670de0b6b3a764000086611b269190612555565b611b309190612620565b90505f670de0b6b3a76400008383611b489190612555565b611b529190612620565b90505f8103611b8d576040517f2968927c00000000000000000000000000000000000000000000000000000000815260040160405180910390fd5b5f600b5f3373ffffffffffffffffffffffffffffffffffffffff1673ffffffffffffffffffffffffffffffffffffffff1681526020019081526020015f20819055505f7f000000000000000000000000000000000000000000000000000000000000000073ffffffffffffffffffffffffffffffffffffffff1663a9059cbb33846040518363ffffffff1660e01b8152600401611c2b929190612650565b6020604051808303815f875af1158015611c47573d5f5f3e3d5ffd5b505050506040513d601f19601f82011682018060405250810190611c6b91906126ac565b905080611ca4576040517f779f564400000000000000000000000000000000000000000000000000000000815260040160405180910390fd5b3373ffffffffffffffffffffffffffffffffffffffff167f1e563d9e18af5db6fd44fc692df8325fdf25841bc9ba0ec5ea17f128b12766e383604051611cea91906120a8565b60405180910390a250505050505050611d01612021565b565b611d0b611fdd565b5f8111611d44576040517f58fcece600000000000000000000000000000000000000000000000000000000815260040160405180910390fd5b807f000000000000000000000000000000000000000000000000000000000000000073ffffffffffffffffffffffffffffffffffffffff166370a08231336040518263ffffffff1660e01b8152600401611d9e9190612100565b602060405180830381865afa158015611db9573d5f5f3e3d5ffd5b505050506040513d601f19601f82011682018060405250810190611ddd91906124fd565b1015611e15576040517fbc9f544400000000000000000000000000000000000000000000000000000000815260040160405180910390fd5b7f000000000000000000000000000000000000000000000000000000000000000073ffffffffffffffffffffffffffffffffffffffff166323b872dd3330846040518463ffffffff1660e01b8152600401611e7293929190612784565b6020604051808303815f875af1158015611e8e573d5f5f3e3d5ffd5b505050506040513d601f19601f82011682018060405250810190611eb291906126ac565b507f000000000000000000000000000000000000000000000000000000000000000073ffffffffffffffffffffffffffffffffffffffff166340c10f1933836040518363ffffffff1660e01b8152600401611f0e929190612650565b5f604051808303815f87803b158015611f25575f5ffd5b505af1158015611f37573d5f5f3e3d5ffd5b5050505080600a5f3373ffffffffffffffffffffffffffffffffffffffff1673ffffffffffffffffffffffffffffffffffffffff1681526020019081526020015f205f828254611f87919061270a565b92505081905550803373ffffffffffffffffffffffffffffffffffffffff167f0c3becdb286011bdfd6932f09baa4447106b6078f69fb6b49891a69b1541706460405160405180910390a3611fda612021565b50565b60025f5403612018576040517f3ee5aeb500000000000000000000000000000000000000000000000000000000815260040160405180910390fd5b60025f81905550565b60015f81905550565b5f604051905090565b5f5ffd5b5f5ffd5b5f819050919050565b61204d8161203b565b8114612057575f5ffd5b50565b5f8135905061206881612044565b92915050565b5f6020828403121561208357612082612033565b5b5f6120908482850161205a565b91505092915050565b6120a28161203b565b82525050565b5f6020820190506120bb5f830184612099565b92915050565b5f73ffffffffffffffffffffffffffffffffffffffff82169050919050565b5f6120ea826120c1565b9050919050565b6120fa816120e0565b82525050565b5f6020820190506121135f8301846120f1565b92915050565b612122816120e0565b811461212c575f5ffd5b50565b5f8135905061213d81612119565b92915050565b5f6020828403121561215857612157612033565b5b5f6121658482850161212f565b91505092915050565b5f81519050919050565b5f82825260208201905092915050565b5f819050602082019050919050565b6121a08161203b565b82525050565b5f6121b18383612197565b60208301905092915050565b5f602082019050919050565b5f6121d38261216e565b6121dd8185612178565b93506121e883612188565b805f5b838110156122185781516121ff88826121a6565b975061220a836121bd565b9250506001810190506121eb565b5085935050505092915050565b5f6020820190508181035f83015261223d81846121c9565b905092915050565b5f5f6040838503121561225b5761225a612033565b5b5f6122688582860161205a565b92505060206122798582860161205a565b9150509250929050565b5f5ffd5b5f5ffd5b5f601f19601f8301169050919050565b7f4e487b71000000000000000000000000000000000000000000000000000000005f52604160045260245ffd5b6122d18261228b565b810181811067ffffffffffffffff821117156122f0576122ef61229b565b5b80604052505050565b5f61230261202a565b905061230e82826122c8565b919050565b5f67ffffffffffffffff82111561232d5761232c61229b565b5b6123368261228b565b9050602081019050919050565b828183375f83830152505050565b5f61236361235e84612313565b6122f9565b90508281526020810184848401111561237f5761237e612287565b5b61238a848285612343565b509392505050565b5f82601f8301126123a6576123a5612283565b5b81356123b6848260208601612351565b91505092915050565b5f5f5f5f608085870312156123d7576123d6612033565b5b5f85013567ffffffffffffffff8111156123f4576123f3612037565b5b61240087828801612392565b94505060206124118782880161205a565b93505060406124228782880161205a565b92505060606124338782880161212f565b91505092959194509250565b5f81519050919050565b5f82825260208201905092915050565b8281835e5f83830152505050565b5f6124718261243f565b61247b8185612449565b935061248b818560208601612459565b6124948161228b565b840191505092915050565b5f6080820190508181035f8301526124b78187612467565b90506124c66020830186612099565b6124d36040830185612099565b6124e060608301846120f1565b95945050505050565b5f815190506124f781612044565b92915050565b5f6020828403121561251257612511612033565b5b5f61251f848285016124e9565b91505092915050565b7f4e487b71000000000000000000000000000000000000000000000000000000005f52601160045260245ffd5b5f61255f8261203b565b915061256a8361203b565b92508282026125788161203b565b9150828204841483151761258f5761258e612528565b5b5092915050565b7f4e487b71000000000000000000000000000000000000000000000000000000005f52602260045260245ffd5b5f60028204905060018216806125da57607f821691505b6020821081036125ed576125ec612596565b5b50919050565b7f4e487b71000000000000000000000000000000000000000000000000000000005f52601260045260245ffd5b5f61262a8261203b565b91506126358361203b565b925082612645576126446125f3565b5b828204905092915050565b5f6040820190506126635f8301856120f1565b6126706020830184612099565b9392505050565b5f8115159050919050565b61268b81612677565b8114612695575f5ffd5b50565b5f815190506126a681612682565b92915050565b5f602082840312156126c1576126c0612033565b5b5f6126ce84828501612698565b91505092915050565b5f6126e18261203b565b91506126ec8361203b565b925082820390508181111561270457612703612528565b5b92915050565b5f6127148261203b565b915061271f8361203b565b925082820190508082111561273757612736612528565b5b92915050565b5f6127478261203b565b91507fffffffffffffffffffffffffffffffffffffffffffffffffffffffffffffffff820361277957612778612528565b5b600182019050919050565b5f6060820190506127975f8301866120f1565b6127a460208301856120f1565b6127b16040830184612099565b949350505050565b5f819050815f5260205f209050919050565b5f6020601f8301049050919050565b5f82821b905092915050565b5f600883026128157fffffffffffffffffffffffffffffffffffffffffffffffffffffffffffffffff826127da565b61281f86836127da565b95508019841693508086168417925050509392505050565b5f819050919050565b5f61285a6128556128508461203b565b612837565b61203b565b9050919050565b5f819050919050565b61287383612840565b61288761287f82612861565b8484546127e6565b825550505050565b5f5f905090565b61289e61288f565b6128a981848461286a565b505050565b5b818110156128cc576128c15f82612896565b6001810190506128af565b5050565b601f821115612911576128e2816127b9565b6128eb846127cb565b810160208510156128fa578190505b61290e612906856127cb565b8301826128ae565b50505b505050565b5f82821c905092915050565b5f6129315f1984600802612916565b1980831691505092915050565b5f6129498383612922565b9150826002028217905092915050565b6129628261243f565b67ffffffffffffffff81111561297b5761297a61229b565b5b61298582546125c3565b6129908282856128d0565b5f60209050601f8311600181146129c1575f84156129af578287015190505b6129b9858261293e565b865550612a20565b601f1984166129cf866127b9565b5f5b828110156129f6578489015182556001820191506020850194506020810190506129d1565b86831015612a135784890151612a0f601f891682612922565b8355505b6001600288020188555050505b50505050505056fea2646970667358221220a90949cb65cde50b513df534060aeae00ccb846853574b57a4429912a6f5797864736f6c634300081c0033a264697066735822122004a67475578c80877403ee26386def7f60e85e2ccbc6e7c795a50fddd751b69a64736f6c634300081c0033","linkReferences":{}},"methodIdentifiers":{"deployFundingVault(address,address,uint256,uint256,uint256)":"5800920e","getFundingVault(uint256)":"a0671d90","getPlatformFee()":"6ea8bc10","getTotalNumberOfFundingVaults()":"f24552be","getTreasury()":"3b19e84a","owner()":"8da5cb5b","renounceOwnership()":"715018a6","setTreasury(address)":"f0f44260","transferOwnership(address)":"f2fde38b","updatePlatformFee(uint256)":"aa0b5988","withdrawPlatformFee(address)":"c5176941"},"id":42}