{"abi":[{"type":"constructor","inputs":[{"name":"_platformFee","type":"uint256","internalType":"uint256"}],"stateMutability":"nonpayable"},{"type":"function","name":"deployFundingVault","inputs":[{"name":"_fundingToken","type":"address","internalType":"address"},{"name":"_votingToken","type":"address","internalType":"address"},{"name":"_minRequestableAmount","type":"uint256","internalType":"uint256"},{"name":"_maxRequestableAmount","type":"uint256","internalType":"uint256"},{"name":"_tallyDate","type":"uint256","internalType":"uint256"}],"outputs":[{"name":"","type":"address","internalType":"address"}],"stateMutability":"nonpayable"},{"type":"function","name":"getFundingVault","inputs":[{"name":"_fundingVaultId","type":"uint256","internalType":"uint256"}],"outputs":[{"name":"","type":"address","internalType":"address"}],"stateMutability":"view"},{"type":"function","name":"getPlatformFee","inputs":[],"outputs":[{"name":"","type":"uint256","internalType":"uint256"}],"stateMutability":"view"},{"type":"function","name":"getTotalNumberOfFundingVaults","inputs":[],"outputs":[{"name":"","type":"uint256","internalType":"uint256"}],"stateMutability":"view"},{"type":"function","name":"getTreasury","inputs":[],"outputs":[{"name":"","type":"address","internalType":"address"}],"stateMutability":"view"},{"type":"function","name":"owner","inputs":[],"outputs":[{"name":"","type":"address","internalType":"address"}],"stateMutability":"view"},{"type":"function","name":"renounceOwnership","inputs":[],"outputs":[],"stateMutability":"nonpayable"},{"type":"function","name":"setTreasury","inputs":[{"name":"_treasury","type":"address","internalType":"address"}],"outputs":[],"stateMutability":"nonpayable"},{"type":"function","name":"transferOwnership","inputs":[{"name":"newOwner","type":"address","internalType":"address"}],"outputs":[],"stateMutability":"nonpayable"},{"type":"function","name":"updatePlatformFee","inputs":[{"name":"_platformFee","type":"uint256","internalType":"uint256"}],"outputs":[],"stateMutability":"nonpayable"},{"type":"function","name":"withdrawPlatformFee","inputs":[{"name":"token","type":"address","internalType":"address"}],"outputs":[],"stateMutability":"nonpayable"},{"type":"event","name":"FundingVaultDeployed","inputs":[{"name":"fundingVault","type":"address","indexed":true,"internalType":"address"}],"anonymous":false},{"type":"event","name":"OwnershipTransferred","inputs":[{"name":"previousOwner","type":"address","indexed":true,"internalType":"address"},{"name":"newOwner","type":"address","indexed":true,"internalType":"address"}],"anonymous":false},{"type":"event","name":"TransferTokens","inputs":[{"name":"token","type":"address","indexed":true,"internalType":"address"},{"name":"recepient","type":"address","indexed":true,"internalType":"address"},{"name":"amount","type":"uint256","indexed":false,"internalType":"uint256"}],"anonymous":false},{"type":"error","name":"FairFund__CannotBeAZeroAddress","inputs":[]},{"type":"error","name":"FairFund__MaxRequestableAmountCannotBeZero","inputs":[]},{"type":"error","name":"FairFund__MinRequestableAmountCannotBeGreaterThanMaxRequestableAmount","inputs":[]},{"type":"error","name":"FairFund__TallyDateCannotBeInThePast","inputs":[]},{"type":"error","name":"FairFund__TransferFailed","inputs":[{"name":"token","type":"address","internalType":"address"},{"name":"recepient","type":"address","internalType":"address"},{"name":"amount","type":"uint256","internalType":"uint256"}]},{"type":"error","name":"OwnableInvalidOwner","inputs":[{"name":"owner","type":"address","internalType":"address"}]},{"type":"error","name":"OwnableUnauthorizedAccount","inputs":[{"name":"account","type":"address","internalType":"address"}]},{"type":"error","name":"ReentrancyGuardReentrantCall","inputs":[]}],"bytecode":{"object":"0x6080604052348015600f57600080fd5b506040516136e63803806136e6833981016040819052602c9160c6565b3380605157604051631e4fbdf760e01b81526000600482015260240160405180910390fd5b6058816076565b5060018055600280546001600160a01b0319163317905560055560de565b600080546001600160a01b038381166001600160a01b0319831681178455604051919092169283917f8be0079c531659141344cd1fd0a4f28419497f9722a3daafe3b4186f6b6457e09190a35050565b60006020828403121560d757600080fd5b5051919050565b6135f9806100ed6000396000f3fe608060405234801561001057600080fd5b50600436106100a95760003560e01c8063a0671d9011610071578063a0671d9014610118578063aa0b598814610141578063c517694114610154578063f0f4426014610167578063f24552be1461017a578063f2fde38b1461018257600080fd5b80633b19e84a146100ae5780635800920e146100d85780636ea8bc10146100eb578063715018a6146100fd5780638da5cb5b14610107575b600080fd5b6002546001600160a01b03165b6040516001600160a01b0390911681526020015b60405180910390f35b6100bb6100e63660046108f6565b610195565b6005545b6040519081526020016100cf565b610105610475565b005b6000546001600160a01b03166100bb565b6100bb610126366004610943565b6000908152600460205260409020546001600160a01b031690565b61010561014f366004610943565b610489565b61010561016236600461095c565b610496565b61010561017536600461095c565b610648565b6003546100ef565b61010561019036600461095c565b610672565b60006001600160a01b03861615806101b457506001600160a01b038516155b156101d25760405163bb59defb60e01b815260040160405180910390fd5b428210156101f35760405163c12866ab60e01b815260040160405180910390fd5b82841115610214576040516338ce4da360e01b815260040160405180910390fd5b82600003610235576040516366ab508160e11b815260040160405180910390fd5b600380549060006102458361097e565b90915550506003546000610258826106ad565b905060008160405160200161026d91906109c9565b60405160208183030381529060405290506000826040516020016102919190610a04565b60405160208183030381529060405290506000896001600160a01b031663313ce5676040518163ffffffff1660e01b8152600401602060405180830381865afa1580156102e2573d6000803e3d6000fd5b505050506040513d601f19601f820116820180604052508101906103069190610a31565b60ff169050600083838360405161031c906108c0565b61032893929190610a80565b604051809103906000f080158015610344573d6000803e3d6000fd5b50905060008c8c838d8d8d3060405161035c906108cd565b6001600160a01b039788168152958716602087015293861660408601526060850192909252608084015260a083015290911660c082015260e001604051809103906000f0801580156103b2573d6000803e3d6000fd5b5060405163f2fde38b60e01b81526001600160a01b0380831660048301529192509083169063f2fde38b90602401600060405180830381600087803b1580156103fa57600080fd5b505af115801561040e573d6000803e3d6000fd5b50505060008881526004602052604080822080546001600160a01b0319166001600160a01b03861690811790915590519092507f88890f101e05f842f970e80a57886fda0f59e782dfe4c9c65bd7ae6c5b1ce9759190a29c9b505050505050505050505050565b61047d610740565b610487600061076d565b565b610491610740565b600555565b61049e6107bd565b6001600160a01b0381166104c55760405163bb59defb60e01b815260040160405180910390fd5b6040516370a0823160e01b81523060048201526000906001600160a01b038316906370a0823190602401602060405180830381865afa15801561050c573d6000803e3d6000fd5b505050506040513d601f19601f820116820180604052508101906105309190610ab6565b9050801561063b5760025460405163a9059cbb60e01b81526001600160a01b0391821660048201526024810183905260009184169063a9059cbb906044016020604051808303816000875af115801561058d573d6000803e3d6000fd5b505050506040513d601f19601f820116820180604052508101906105b19190610acf565b9050806105f457600254604051636a1cc7f360e11b81526001600160a01b0380861660048301529091166024820152604481018390526064015b60405180910390fd5b6002546040518381526001600160a01b03918216918516907f58908a0fd75f7db2ca358a37b3076327d374ee1403d013a2efbc255535501edf9060200160405180910390a3505b5061064560018055565b50565b610650610740565b600280546001600160a01b0319166001600160a01b0392909216919091179055565b61067a610740565b6001600160a01b0381166106a457604051631e4fbdf760e01b8152600060048201526024016105eb565b6106458161076d565b606060006106ba836107e7565b600101905060008167ffffffffffffffff8111156106da576106da610af1565b6040519080825280601f01601f191660200182016040528015610704576020820181803683370190505b5090508181016020015b600019016f181899199a1a9b1b9c1cb0b131b232b360811b600a86061a8153600a850494508461070e57509392505050565b6000546001600160a01b031633146104875760405163118cdaa760e01b81523360048201526024016105eb565b600080546001600160a01b038381166001600160a01b0319831681178455604051919092169283917f8be0079c531659141344cd1fd0a4f28419497f9722a3daafe3b4186f6b6457e09190a35050565b6002600154036107e057604051633ee5aeb560e01b815260040160405180910390fd5b6002600155565b60008072184f03e93ff9f4daa797ed6e38ed64bf6a1f0160401b83106108265772184f03e93ff9f4daa797ed6e38ed64bf6a1f0160401b830492506040015b6d04ee2d6d415b85acef81000000008310610852576d04ee2d6d415b85acef8100000000830492506020015b662386f26fc10000831061087057662386f26fc10000830492506010015b6305f5e1008310610888576305f5e100830492506008015b612710831061089c57612710830492506004015b606483106108ae576064830492506002015b600a83106108ba576001015b92915050565b610cea80610b0883390190565b611dd2806117f283390190565b80356001600160a01b03811681146108f157600080fd5b919050565b600080600080600060a0868803121561090e57600080fd5b610917866108da565b9450610925602087016108da565b94979496505050506040830135926060810135926080909101359150565b60006020828403121561095557600080fd5b5035919050565b60006020828403121561096e57600080fd5b610977826108da565b9392505050565b60006001820161099e57634e487b7160e01b600052601160045260246000fd5b5060010190565b60005b838110156109c05781810151838201526020016109a8565b50506000910152565b7202b37ba34b733902837bbb2b9102a37b5b2b71606d1b8152600082516109f78160138501602087016109a5565b9190910160130192915050565b64564f54455f60d81b815260008251610a248160058501602087016109a5565b9190910160050192915050565b600060208284031215610a4357600080fd5b815160ff8116811461097757600080fd5b60008151808452610a6c8160208601602086016109a5565b601f01601f19169290920160200192915050565b606081526000610a936060830186610a54565b8281036020840152610aa58186610a54565b915050826040830152949350505050565b600060208284031215610ac857600080fd5b5051919050565b600060208284031215610ae157600080fd5b8151801515811461097757600080fd5b634e487b7160e01b600052604160045260246000fdfe608060405234801561001057600080fd5b50604051610cea380380610cea83398101604081905261002f916101a1565b338383600361003e8382610298565b50600461004b8282610298565b5050506001600160a01b03811661007c57604051631e4fbdf760e01b81526000600482015260240160405180910390fd5b61008581610091565b50600655506103579050565b600580546001600160a01b038381166001600160a01b0319831681179093556040519116919082907f8be0079c531659141344cd1fd0a4f28419497f9722a3daafe3b4186f6b6457e090600090a35050565b634e487b7160e01b600052604160045260246000fd5b600082601f83011261010a57600080fd5b81516001600160401b0380821115610124576101246100e3565b604051601f8301601f19908116603f0116810190828211818310171561014c5761014c6100e3565b816040528381526020925086602085880101111561016957600080fd5b600091505b8382101561018b578582018301518183018401529082019061016e565b6000602085830101528094505050505092915050565b6000806000606084860312156101b657600080fd5b83516001600160401b03808211156101cd57600080fd5b6101d9878388016100f9565b945060208601519150808211156101ef57600080fd5b506101fc868287016100f9565b925050604084015190509250925092565b600181811c9082168061022157607f821691505b60208210810361024157634e487b7160e01b600052602260045260246000fd5b50919050565b601f821115610293576000816000526020600020601f850160051c810160208610156102705750805b601f850160051c820191505b8181101561028f5782815560010161027c565b5050505b505050565b81516001600160401b038111156102b1576102b16100e3565b6102c5816102bf845461020d565b84610247565b602080601f8311600181146102fa57600084156102e25750858301515b600019600386901b1c1916600185901b17855561028f565b600085815260208120601f198616915b828110156103295788860151825594840194600190910190840161030a565b50858210156103475787850151600019600388901b60f8161c191681555b5050505050600190811b01905550565b610984806103666000396000f3fe608060405234801561001057600080fd5b50600436106100ea5760003560e01c8063715018a61161008c5780639dc29fac116100665780639dc29fac146101cd578063a9059cbb146101e0578063dd62ed3e146101f3578063f2fde38b1461022c57600080fd5b8063715018a6146101a25780638da5cb5b146101aa57806395d89b41146101c557600080fd5b806323b872dd116100c857806323b872dd14610142578063313ce5671461015557806340c10f191461016457806370a082311461017957600080fd5b806306fdde03146100ef578063095ea7b31461010d57806318160ddd14610130575b600080fd5b6100f761023f565b60405161010491906107cd565b60405180910390f35b61012061011b366004610838565b6102d1565b6040519015158152602001610104565b6002545b604051908152602001610104565b610120610150366004610862565b6102eb565b60405160128152602001610104565b610177610172366004610838565b610339565b005b61013461018736600461089e565b6001600160a01b031660009081526020819052604090205490565b61017761034f565b6005546040516001600160a01b039091168152602001610104565b6100f7610363565b6101776101db366004610838565b610372565b6101206101ee366004610838565b610384565b6101346102013660046108c0565b6001600160a01b03918216600090815260016020908152604080832093909416825291909152205490565b61017761023a36600461089e565b610392565b60606003805461024e906108f3565b80601f016020809104026020016040519081016040528092919081815260200182805461027a906108f3565b80156102c75780601f1061029c576101008083540402835291602001916102c7565b820191906000526020600020905b8154815290600101906020018083116102aa57829003601f168201915b5050505050905090565b6000336102df8185856103d5565b60019150505b92915050565b60006102ff6005546001600160a01b031690565b6001600160a01b0316336001600160a01b031614610324576103228484846103e7565b505b61032f84848461040b565b5060019392505050565b61034161046a565b61034b8282610497565b5050565b61035761046a565b61036160006104cd565b565b60606004805461024e906108f3565b61037a61046a565b61034b828261051f565b6000336102df81858561040b565b61039a61046a565b6001600160a01b0381166103c957604051631e4fbdf760e01b8152600060048201526024015b60405180910390fd5b6103d2816104cd565b50565b6103e28383836001610555565b505050565b6000336103f585828561062b565b61040085858561040b565b506001949350505050565b6001600160a01b03831661043557604051634b637e8f60e11b8152600060048201526024016103c0565b6001600160a01b03821661045f5760405163ec442f0560e01b8152600060048201526024016103c0565b6103e28383836106a3565b6005546001600160a01b031633146103615760405163118cdaa760e01b81523360048201526024016103c0565b6001600160a01b0382166104c15760405163ec442f0560e01b8152600060048201526024016103c0565b61034b600083836106a3565b600580546001600160a01b038381166001600160a01b0319831681179093556040519116919082907f8be0079c531659141344cd1fd0a4f28419497f9722a3daafe3b4186f6b6457e090600090a35050565b6001600160a01b03821661054957604051634b637e8f60e11b8152600060048201526024016103c0565b61034b826000836106a3565b6001600160a01b03841661057f5760405163e602df0560e01b8152600060048201526024016103c0565b6001600160a01b0383166105a957604051634a1406b160e11b8152600060048201526024016103c0565b6001600160a01b038085166000908152600160209081526040808320938716835292905220829055801561062557826001600160a01b0316846001600160a01b03167f8c5be1e5ebec7d5bd14f71427d1e84f3dd0314c0f7b2291e5b200ac8c7c3b9258460405161061c91815260200190565b60405180910390a35b50505050565b6001600160a01b038381166000908152600160209081526040808320938616835292905220546000198114610625578181101561069457604051637dc7a0d960e11b81526001600160a01b038416600482015260248101829052604481018390526064016103c0565b61062584848484036000610555565b6001600160a01b0383166106ce5780600260008282546106c3919061092d565b909155506107409050565b6001600160a01b038316600090815260208190526040902054818110156107215760405163391434e360e21b81526001600160a01b038516600482015260248101829052604481018390526064016103c0565b6001600160a01b03841660009081526020819052604090209082900390555b6001600160a01b03821661075c5760028054829003905561077b565b6001600160a01b03821660009081526020819052604090208054820190555b816001600160a01b0316836001600160a01b03167fddf252ad1be2c89b69c2b068fc378daa952ba7f163c4a11628f55a4df523b3ef836040516107c091815260200190565b60405180910390a3505050565b60006020808352835180602085015260005b818110156107fb578581018301518582016040015282016107df565b506000604082860101526040601f19601f8301168501019250505092915050565b80356001600160a01b038116811461083357600080fd5b919050565b6000806040838503121561084b57600080fd5b6108548361081c565b946020939093013593505050565b60008060006060848603121561087757600080fd5b6108808461081c565b925061088e6020850161081c565b9150604084013590509250925092565b6000602082840312156108b057600080fd5b6108b98261081c565b9392505050565b600080604083850312156108d357600080fd5b6108dc8361081c565b91506108ea6020840161081c565b90509250929050565b600181811c9082168061090757607f821691505b60208210810361092757634e487b7160e01b600052602260045260246000fd5b50919050565b808201808211156102e557634e487b7160e01b600052601160045260246000fdfea264697066735822122062ffe1c10ead8d1589fa8a36c98a8b418318e43912b22e79eed90ed8a080c7f564736f6c6343000819003361012060405234801561001157600080fd5b50604051611dd2380380611dd283398101604081905261003091610098565b60016000908155610100929092526001600160a01b0396871660805294861660a05292851660c05260029190915560035560048190556005556006805460ff191690551660e052610109565b80516001600160a01b038116811461009357600080fd5b919050565b600080600080600080600060e0888a0312156100b357600080fd5b6100bc8861007c565b96506100ca6020890161007c565b95506100d86040890161007c565b9450606088015193506080880151925060a088015191506100fb60c0890161007c565b905092959891949750929550565b60805160a05160c05160e05161010051611bf96101d9600039600081816102700152818161035801528181610656015281816107ad01526112f301526000818161024a0152818161083a01528181610b210152610be401526000818161019a015281816103c701528181610c9f01528181610d5701528181610e3201528181610ecf01526116ae015260008181610315015281816106fb01528181611568015261161c01526000818161029e01528181610a0101528181610b5301528181610f8001526114550152611bf96000f3fe608060405234801561001057600080fd5b506004361061014d5760003560e01c806370467ecb116100c3578063bb39d1b91161007c578063bb39d1b9146102d5578063c7f758a8146102e8578063d5bd8d641461030b578063e28c3b1914610313578063ee38db9514610339578063f207564e1461034157600080fd5b806370467ecb1461024057806372630531146102485780637770477d1461026e5780637fa107c91461029457806396c8370c1461029c578063b6b55f25146102c257600080fd5b806331cbd2951161011557806331cbd29514610198578063323bef09146101d25780633644e2c2146101f25780633a6a4d2e146101fc5780634595fbfc14610204578063556f6cc01461022d57600080fd5b80630e392155146101525780631a5007dd146101785780631cdb13d91461018057806324bd06fc1461018857806328e952a914610190575b600080fd5b610165610160366004611798565b610354565b6040519081526020015b60405180910390f35b600154610165565b600254610165565b600354610165565b600454610165565b7f00000000000000000000000000000000000000000000000000000000000000005b6040516001600160a01b03909116815260200161016f565b6101e56101e03660046117c8565b6105e0565b60405161016f91906117ea565b6101fa61064c565b005b6101fa6107a3565b6101656102123660046117c8565b6001600160a01b03166000908152600a602052604090205490565b6101fa61023b36600461182e565b610c53565b610165610e2e565b7f00000000000000000000000000000000000000000000000000000000000000006101ba565b7f0000000000000000000000000000000000000000000000000000000000000000610165565b610165610eb7565b7f00000000000000000000000000000000000000000000000000000000000000006101ba565b6101fa6102d0366004611798565b610f1e565b6101656102e3366004611866565b61103d565b6102fb6102f6366004611798565b6111e1565b60405161016f949392919061193b565b600554610165565b7f00000000000000000000000000000000000000000000000000000000000000006101ba565b6101fa6112e9565b6101fa61034f366004611798565b611528565b60007f00000000000000000000000000000000000000000000000000000000000000004210156103975760405163c62c35d560e01b815260040160405180910390fd5b8115806103a5575060015482115b156103c357604051630a54249560e01b815260040160405180910390fd5b60007f00000000000000000000000000000000000000000000000000000000000000006001600160a01b03166318160ddd6040518163ffffffff1660e01b8152600401602060405180830381865afa158015610423573d6000803e3d6000fd5b505050506040513d601f19601f8201168201806040525081019061044791906119a9565b90508060000361046a57604051633161f99760e11b815260040160405180910390fd5b60008381526009602052604081205461048b90670de0b6b3a76400006119d8565b90506000600860008681526020019081526020016000206040518060800160405290816000820180546104bd906119f5565b80601f01602080910402602001604051908101604052809291908181526020018280546104e9906119f5565b80156105365780601f1061050b57610100808354040283529160200191610536565b820191906000526020600020905b81548152906001019060200180831161051957829003601f168201915b505050918352505060018201546020820152600282015460408201526003909101546001600160a01b031660609091015290506000670de0b6b3a764000061057e8585611a2f565b60045461058b91906119d8565b6105959190611a2f565b602083015190915081108015906105ce5782604001518211156105c25750506040015192506105db915050565b5093506105db92505050565b5060009695505050505050565b919050565b6001600160a01b03811660009081526007602090815260409182902080548351818402810184019094528084526060939283018282801561064057602002820191906000526020600020905b81548152602001906001019080831161062c575b50505050509050919050565b61065461176e565b7f00000000000000000000000000000000000000000000000000000000000000004210156106955760405163c62c35d560e01b815260040160405180910390fd5b336000908152600a6020526040902054806106c357604051632c7e767360e11b815260040160405180910390fd5b336000818152600a6020526040808220919091555163a9059cbb60e01b81526004810191909152602481018290526001600160a01b037f0000000000000000000000000000000000000000000000000000000000000000169063a9059cbb906044016020604051808303816000875af1158015610744573d6000803e3d6000fd5b505050506040513d601f19601f820116820180604052508101906107689190611a51565b50604051819033907fada8b88f0652690c97e2c67433a0d69ead55259f8d2037887cd88d0db849e20890600090a3506107a16001600055565b565b6107ab61176e565b7f00000000000000000000000000000000000000000000000000000000000000004210156107ec5760405163c62c35d560e01b815260040160405180910390fd5b60065460ff161561081057604051632df64c7d60e21b815260040160405180910390fd5b6006805460ff19166001179055604080516306ea8bc160e41b815290516000916001600160a01b037f00000000000000000000000000000000000000000000000000000000000000001691636ea8bc10916004808201926020929091908290030181865afa158015610886573d6000803e3d6000fd5b505050506040513d601f19601f820116820180604052508101906108aa91906119a9565b9050600060015b6001548111610b035760006108c582610354565b90508015610af0576000828152600860205260408082208151608081019092528054829082906108f4906119f5565b80601f0160208091040260200160405190810160405280929190818152602001828054610920906119f5565b801561096d5780601f106109425761010080835404028352916020019161096d565b820191906000526020600020905b81548152906001019060200180831161095057829003601f168201915b505050918352505060018201546020820152600282015460408201526003909101546001600160a01b03166060909101529050600060646109ae87856119d8565b6109b89190611a2f565b90506109c48184611a73565b92506109d08186611a86565b606083015160405163a9059cbb60e01b81526001600160a01b039182166004820152602481018690529196506000917f00000000000000000000000000000000000000000000000000000000000000009091169063a9059cbb906044016020604051808303816000875af1158015610a4c573d6000803e3d6000fd5b505050506040513d601f19601f82011682018060405250810190610a709190611a51565b905080610a9057604051631de7d59160e21b815260040160405180910390fd5b610a9a8285611a86565b60056000828254610aab9190611a86565b9091555050606083015160405185916001600160a01b03169087907f9f5926601e7fc353505f05fae61282ae5d67b716f95656849456e6aa7bbbbb5f90600090a45050505b5080610afb81611a99565b9150506108b1565b508015610c475760405163a9059cbb60e01b81526001600160a01b037f000000000000000000000000000000000000000000000000000000000000000081166004830152602482018390526000917f00000000000000000000000000000000000000000000000000000000000000009091169063a9059cbb906044016020604051808303816000875af1158015610b9e573d6000803e3d6000fd5b505050506040513d601f19601f82011682018060405250810190610bc29190611a51565b905080610be257604051631de7d59160e21b815260040160405180910390fd5b7f00000000000000000000000000000000000000000000000000000000000000006001600160a01b03167f78960d0b6d9da496cfe65faff867ec64774b887e2991495bb66abaa7afb1ddeb83604051610c3d91815260200190565b60405180910390a2505b50506107a16001600055565b610c5b61176e565b811580610c69575060015482115b15610c8757604051630a54249560e01b815260040160405180910390fd5b6040516370a0823160e01b81523360048201526000907f00000000000000000000000000000000000000000000000000000000000000006001600160a01b0316906370a0823190602401602060405180830381865afa158015610cee573d6000803e3d6000fd5b505050506040513d601f19601f82011682018060405250810190610d1291906119a9565b905080821115610d3557604051634144687160e01b815260040160405180910390fd5b6040516323b872dd60e01b8152336004820152306024820152604481018390527f00000000000000000000000000000000000000000000000000000000000000006001600160a01b0316906323b872dd906064016020604051808303816000875af1158015610da8573d6000803e3d6000fd5b505050506040513d601f19601f82011682018060405250810190610dcc9190611a51565b5060008381526009602052604081208054849290610deb908490611a86565b90915550506040518290849033907f4f320d0dd50d47ce5b5d001a0fc303f39b669f9e6adf87bcf899dc4a2b9a80cd90600090a450610e2a6001600055565b5050565b60007f00000000000000000000000000000000000000000000000000000000000000006001600160a01b03166318160ddd6040518163ffffffff1660e01b8152600401602060405180830381865afa158015610e8e573d6000803e3d6000fd5b505050506040513d601f19601f82011682018060405250810190610eb291906119a9565b905090565b6040516370a0823160e01b81523060048201526000907f00000000000000000000000000000000000000000000000000000000000000006001600160a01b0316906370a0823190602401602060405180830381865afa158015610e8e573d6000803e3d6000fd5b610f2661176e565b60008111610f4757604051632c7e767360e11b815260040160405180910390fd5b8060046000828254610f599190611a86565b90915550506040516323b872dd60e01b8152336004820152306024820152604481018290527f00000000000000000000000000000000000000000000000000000000000000006001600160a01b0316906323b872dd906064016020604051808303816000875af1158015610fd1573d6000803e3d6000fd5b505050506040513d601f19601f82011682018060405250810190610ff59190611a51565b50336000818152600b6020526040808220849055518392917f697042ef5da31e8cc8af5610bbeda31e034ff7c72945a28c25a38d2c7a38f5f591a361103a6001600055565b50565b600061104761176e565b845160000361106957604051630120cfa760e61b815260040160405180910390fd5b60025484108061107a575060035483115b1561109857604051634144687160e01b815260040160405180910390fd5b828411156110b95760405163d292434b60e01b815260040160405180910390fd5b6001600160a01b0382166110e057604051630fb38e4f60e31b815260040160405180910390fd5b600180549060006110f083611a99565b90915550506040805160808101825286815260208082018790528183018690526001600160a01b038516606083015260015460009081526008909152919091208151819061113e9082611b03565b506020828101516001838101919091556040808501516002850155606090940151600390930180546001600160a01b0319166001600160a01b0390941693909317909255336000818152600783528481208454815480870183559183529382200192909255915492517f9502d7618553b38b99edbe5d1547756cc9ab18db5ddd0674b051490ca4e2fb4c9190a3506001546111d96001600055565b949350505050565b606060008060008060086000878152602001908152602001600020604051806080016040529081600082018054611217906119f5565b80601f0160208091040260200160405190810160405280929190818152602001828054611243906119f5565b80156112905780601f1061126557610100808354040283529160200191611290565b820191906000526020600020905b81548152906001019060200180831161127357829003601f168201915b5050509183525050600182015460208083019190915260028301546040808401919091526003909301546001600160a01b0316606092830152835190840151928401519390910151909991985091965090945092505050565b6112f161176e565b7f00000000000000000000000000000000000000000000000000000000000000004210156113325760405163c62c35d560e01b815260040160405180910390fd5b60065460ff16611355576040516382f3861b60e01b815260040160405180910390fd5b336000908152600b6020526040812054908190036113865760405163dfe5dfe160e01b815260040160405180910390fd5b6004546005548082116113ac57604051630556dbdb60e51b815260040160405180910390fd5b60006113b88284611a73565b90506000836113cf86670de0b6b3a76400006119d8565b6113d99190611a2f565b90506000670de0b6b3a76400006113f084846119d8565b6113fa9190611a2f565b90508060000361141d57604051630a5a249f60e21b815260040160405180910390fd5b336000818152600b60205260408082208290555163a9059cbb60e01b8152600481019290925260248201839052906001600160a01b037f0000000000000000000000000000000000000000000000000000000000000000169063a9059cbb906044016020604051808303816000875af115801561149e573d6000803e3d6000fd5b505050506040513d601f19601f820116820180604052508101906114c29190611a51565b9050806114e257604051631de7d59160e21b815260040160405180910390fd5b60405182815233907f1e563d9e18af5db6fd44fc692df8325fdf25841bc9ba0ec5ea17f128b12766e39060200160405180910390a2505050505050506107a16001600055565b61153061176e565b6000811161155157604051632c7e767360e11b815260040160405180910390fd5b6040516370a0823160e01b815233600482015281907f00000000000000000000000000000000000000000000000000000000000000006001600160a01b0316906370a0823190602401602060405180830381865afa1580156115b7573d6000803e3d6000fd5b505050506040513d601f19601f820116820180604052508101906115db91906119a9565b10156115fa57604051632f27d51160e21b815260040160405180910390fd5b6040516323b872dd60e01b8152336004820152306024820152604481018290527f00000000000000000000000000000000000000000000000000000000000000006001600160a01b0316906323b872dd906064016020604051808303816000875af115801561166d573d6000803e3d6000fd5b505050506040513d601f19601f820116820180604052508101906116919190611a51565b506040516340c10f1960e01b8152336004820152602481018290527f00000000000000000000000000000000000000000000000000000000000000006001600160a01b0316906340c10f1990604401600060405180830381600087803b1580156116fa57600080fd5b505af115801561170e573d6000803e3d6000fd5b5050336000908152600a602052604081208054859450909250611732908490611a86565b9091555050604051819033907f0c3becdb286011bdfd6932f09baa4447106b6078f69fb6b49891a69b1541706490600090a361103a6001600055565b60026000540361179157604051633ee5aeb560e01b815260040160405180910390fd5b6002600055565b6000602082840312156117aa57600080fd5b5035919050565b80356001600160a01b03811681146105db57600080fd5b6000602082840312156117da57600080fd5b6117e3826117b1565b9392505050565b6020808252825182820181905260009190848201906040850190845b8181101561182257835183529284019291840191600101611806565b50909695505050505050565b6000806040838503121561184157600080fd5b50508035926020909101359150565b634e487b7160e01b600052604160045260246000fd5b6000806000806080858703121561187c57600080fd5b843567ffffffffffffffff8082111561189457600080fd5b818701915087601f8301126118a857600080fd5b8135818111156118ba576118ba611850565b604051601f8201601f19908116603f011681019083821181831017156118e2576118e2611850565b816040528281528a60208487010111156118fb57600080fd5b8260208601602083013760006020848301015280985050505050506020850135925060408501359150611930606086016117b1565b905092959194509250565b608081526000855180608084015260005b8181101561196957602081890181015160a086840101520161194c565b50600060a082850181019190915260208401969096526040830194909452506001600160a01b03919091166060820152601f909101601f19160101919050565b6000602082840312156119bb57600080fd5b5051919050565b634e487b7160e01b600052601160045260246000fd5b80820281158282048414176119ef576119ef6119c2565b92915050565b600181811c90821680611a0957607f821691505b602082108103611a2957634e487b7160e01b600052602260045260246000fd5b50919050565b600082611a4c57634e487b7160e01b600052601260045260246000fd5b500490565b600060208284031215611a6357600080fd5b815180151581146117e357600080fd5b818103818111156119ef576119ef6119c2565b808201808211156119ef576119ef6119c2565b600060018201611aab57611aab6119c2565b5060010190565b601f821115611afe576000816000526020600020601f850160051c81016020861015611adb5750805b601f850160051c820191505b81811015611afa57828155600101611ae7565b5050505b505050565b815167ffffffffffffffff811115611b1d57611b1d611850565b611b3181611b2b84546119f5565b84611ab2565b602080601f831160018114611b665760008415611b4e5750858301515b600019600386901b1c1916600185901b178555611afa565b600085815260208120601f198616915b82811015611b9557888601518255948401946001909101908401611b76565b5085821015611bb35787850151600019600388901b60f8161c191681555b5050505050600190811b0190555056fea26469706673582212203d1be38b8c3cd32b69625b06685904a1e50012f0df1bad3ec4395edf9ae6e01064736f6c63430008190033a264697066735822122032f4984c9817ce6e0b7dda05041292cb4a5c54c9f87296cab76499c0b0440fe564736f6c63430008190033","linkReferences":{}},"methodIdentifiers":{"deployFundingVault(address,address,uint256,uint256,uint256)":"5800920e","getFundingVault(uint256)":"a0671d90","getPlatformFee()":"6ea8bc10","getTotalNumberOfFundingVaults()":"f24552be","getTreasury()":"3b19e84a","owner()":"8da5cb5b","renounceOwnership()":"715018a6","setTreasury(address)":"f0f44260","transferOwnership(address)":"f2fde38b","updatePlatformFee(uint256)":"aa0b5988","withdrawPlatformFee(address)":"c5176941"},"id":31}